{
  "_format": "hh-sol-artifact-1",
  "contractName": "BloodDonation",
  "sourceName": "contracts/BloodDonation.sol",
  "abi": [
    {
      "inputs": [],
      "stateMutability": "nonpayable",
      "type": "constructor"
    },
    {
      "anonymous": false,
      "inputs": [
        {
          "indexed": true,
          "internalType": "address",
          "name": "owner",
          "type": "address"
        },
        {
          "indexed": true,
          "internalType": "address",
          "name": "spender",
          "type": "address"
        },
        {
          "indexed": false,
          "internalType": "uint256",
          "name": "value",
          "type": "uint256"
        }
      ],
      "name": "Approval",
      "type": "event"
    },
    {
      "anonymous": false,
      "inputs": [
        {
          "indexed": false,
          "internalType": "uint256",
          "name": "pouchID",
          "type": "uint256"
        },
        {
          "indexed": false,
          "internalType": "address",
          "name": "donorID",
          "type": "address"
        },
        {
          "indexed": false,
          "internalType": "enum BloodDonation.BloodGroup",
          "name": "bloodGroup",
          "type": "uint8"
        },
        {
          "indexed": false,
          "internalType": "address",
          "name": "receiverID",
          "type": "address"
        },
        {
          "indexed": false,
          "internalType": "address",
          "name": "organizationID",
          "type": "address"
        },
        {
          "indexed": false,
          "internalType": "string",
          "name": "details",
          "type": "string"
        },
        {
          "indexed": false,
          "internalType": "uint256",
          "name": "publishDate",
          "type": "uint256"
        },
        {
          "indexed": false,
          "internalType": "uint256",
          "name": "receivedDate",
          "type": "uint256"
        },
        {
          "indexed": false,
          "internalType": "enum BloodDonation.BloodStatus",
          "name": "status",
          "type": "uint8"
        }
      ],
      "name": "BloodPouchCreated",
      "type": "event"
    },
    {
      "anonymous": false,
      "inputs": [
        {
          "indexed": true,
          "internalType": "address",
          "name": "from",
          "type": "address"
        },
        {
          "indexed": true,
          "internalType": "address",
          "name": "to",
          "type": "address"
        },
        {
          "indexed": false,
          "internalType": "uint256",
          "name": "value",
          "type": "uint256"
        }
      ],
      "name": "Transfer",
      "type": "event"
    },
    {
      "inputs": [
        {
          "internalType": "address",
          "name": "_adminAddress",
          "type": "address"
        }
      ],
      "name": "addOrganization",
      "outputs": [],
      "stateMutability": "nonpayable",
      "type": "function"
    },
    {
      "inputs": [
        {
          "internalType": "address",
          "name": "owner",
          "type": "address"
        },
        {
          "internalType": "address",
          "name": "spender",
          "type": "address"
        }
      ],
      "name": "allowance",
      "outputs": [
        {
          "internalType": "uint256",
          "name": "",
          "type": "uint256"
        }
      ],
      "stateMutability": "view",
      "type": "function"
    },
    {
      "inputs": [
        {
          "internalType": "address",
          "name": "spender",
          "type": "address"
        },
        {
          "internalType": "uint256",
          "name": "amount",
          "type": "uint256"
        }
      ],
      "name": "approve",
      "outputs": [
        {
          "internalType": "bool",
          "name": "",
          "type": "bool"
        }
      ],
      "stateMutability": "nonpayable",
      "type": "function"
    },
    {
      "inputs": [
        {
          "internalType": "uint256",
          "name": "_pouchID",
          "type": "uint256"
        }
      ],
      "name": "assignReceiver",
      "outputs": [],
      "stateMutability": "payable",
      "type": "function"
    },
    {
      "inputs": [
        {
          "internalType": "address",
          "name": "account",
          "type": "address"
        }
      ],
      "name": "balanceOf",
      "outputs": [
        {
          "internalType": "uint256",
          "name": "",
          "type": "uint256"
        }
      ],
      "stateMutability": "view",
      "type": "function"
    },
    {
      "inputs": [
        {
          "internalType": "address",
          "name": "_owner",
          "type": "address"
        },
        {
          "internalType": "string",
          "name": "_title",
          "type": "string"
        },
        {
          "internalType": "string",
          "name": "_description",
          "type": "string"
        },
        {
          "internalType": "string",
          "name": "_imageId",
          "type": "string"
        },
        {
          "internalType": "string",
          "name": "_videoId",
          "type": "string"
        },
        {
          "internalType": "uint256",
          "name": "_targetAmount",
          "type": "uint256"
        },
        {
          "internalType": "uint256",
          "name": "_deadlineDate",
          "type": "uint256"
        }
      ],
      "name": "createCampaign",
      "outputs": [
        {
          "internalType": "uint256",
          "name": "",
          "type": "uint256"
        }
      ],
      "stateMutability": "nonpayable",
      "type": "function"
    },
    {
      "inputs": [],
      "name": "decimals",
      "outputs": [
        {
          "internalType": "uint8",
          "name": "",
          "type": "uint8"
        }
      ],
      "stateMutability": "view",
      "type": "function"
    },
    {
      "inputs": [
        {
          "internalType": "address",
          "name": "spender",
          "type": "address"
        },
        {
          "internalType": "uint256",
          "name": "subtractedValue",
          "type": "uint256"
        }
      ],
      "name": "decreaseAllowance",
      "outputs": [
        {
          "internalType": "bool",
          "name": "",
          "type": "bool"
        }
      ],
      "stateMutability": "nonpayable",
      "type": "function"
    },
    {
      "inputs": [
        {
          "internalType": "uint256",
          "name": "_id",
          "type": "uint256"
        }
      ],
      "name": "donateToCampaign",
      "outputs": [],
      "stateMutability": "payable",
      "type": "function"
    },
    {
      "inputs": [
        {
          "internalType": "address",
          "name": "_donorID",
          "type": "address"
        },
        {
          "internalType": "enum BloodDonation.BloodGroup",
          "name": "_bloodGroup",
          "type": "uint8"
        },
        {
          "internalType": "string",
          "name": "_details",
          "type": "string"
        }
      ],
      "name": "enterBloodDetails",
      "outputs": [
        {
          "internalType": "uint256",
          "name": "",
          "type": "uint256"
        }
      ],
      "stateMutability": "nonpayable",
      "type": "function"
    },
    {
      "inputs": [],
      "name": "getAllActiveCampaigns",
      "outputs": [
        {
          "components": [
            {
              "internalType": "uint256",
              "name": "id",
              "type": "uint256"
            },
            {
              "internalType": "address",
              "name": "owner",
              "type": "address"
            },
            {
              "internalType": "string",
              "name": "title",
              "type": "string"
            },
            {
              "internalType": "string",
              "name": "description",
              "type": "string"
            },
            {
              "internalType": "string",
              "name": "imageId",
              "type": "string"
            },
            {
              "internalType": "string",
              "name": "videoId",
              "type": "string"
            },
            {
              "internalType": "uint256",
              "name": "targetAmount",
              "type": "uint256"
            },
            {
              "internalType": "uint256",
              "name": "collectedAmount",
              "type": "uint256"
            },
            {
              "internalType": "uint256",
              "name": "creationDate",
              "type": "uint256"
            },
            {
              "internalType": "uint256",
              "name": "deadlineDate",
              "type": "uint256"
            },
            {
              "internalType": "address[]",
              "name": "donators",
              "type": "address[]"
            },
            {
              "internalType": "uint256[]",
              "name": "donations",
              "type": "uint256[]"
            }
          ],
          "internalType": "struct BloodDonation.Campaign[]",
          "name": "",
          "type": "tuple[]"
        }
      ],
      "stateMutability": "view",
      "type": "function"
    },
    {
      "inputs": [],
      "name": "getAllAvailablePouches",
      "outputs": [
        {
          "components": [
            {
              "internalType": "uint256",
              "name": "pouchID",
              "type": "uint256"
            },
            {
              "internalType": "enum BloodDonation.BloodGroup",
              "name": "bloodGroup",
              "type": "uint8"
            },
            {
              "internalType": "address",
              "name": "donorID",
              "type": "address"
            },
            {
              "internalType": "address",
              "name": "organizationID",
              "type": "address"
            },
            {
              "internalType": "address",
              "name": "receiverID",
              "type": "address"
            },
            {
              "internalType": "string",
              "name": "details",
              "type": "string"
            },
            {
              "internalType": "uint256",
              "name": "publishDate",
              "type": "uint256"
            },
            {
              "internalType": "uint256",
              "name": "receivedDate",
              "type": "uint256"
            },
            {
              "internalType": "enum BloodDonation.BloodStatus",
              "name": "status",
              "type": "uint8"
            }
          ],
          "internalType": "struct BloodDonation.BloodPouch[]",
          "name": "",
          "type": "tuple[]"
        }
      ],
      "stateMutability": "view",
      "type": "function"
    },
    {
      "inputs": [
        {
          "internalType": "uint256",
          "name": "_id",
          "type": "uint256"
        }
      ],
      "name": "getCampaign",
      "outputs": [
        {
          "internalType": "uint256",
          "name": "id",
          "type": "uint256"
        },
        {
          "internalType": "address",
          "name": "owner",
          "type": "address"
        },
        {
          "internalType": "string",
          "name": "title",
          "type": "string"
        },
        {
          "internalType": "string",
          "name": "description",
          "type": "string"
        },
        {
          "internalType": "string",
          "name": "imageId",
          "type": "string"
        },
        {
          "internalType": "string",
          "name": "videoId",
          "type": "string"
        },
        {
          "internalType": "uint256",
          "name": "targetAmount",
          "type": "uint256"
        },
        {
          "internalType": "uint256",
          "name": "collectedAmount",
          "type": "uint256"
        },
        {
          "internalType": "uint256",
          "name": "creationDate",
          "type": "uint256"
        },
        {
          "internalType": "uint256",
          "name": "deadlineDate",
          "type": "uint256"
        },
        {
          "internalType": "address[]",
          "name": "donators",
          "type": "address[]"
        },
        {
          "internalType": "uint256[]",
          "name": "donations",
          "type": "uint256[]"
        }
      ],
      "stateMutability": "view",
      "type": "function"
    },
    {
      "inputs": [
        {
          "internalType": "uint256",
          "name": "_id",
          "type": "uint256"
        }
      ],
      "name": "getCampaignDonators",
      "outputs": [
        {
          "internalType": "address[]",
          "name": "",
          "type": "address[]"
        },
        {
          "internalType": "uint256[]",
          "name": "",
          "type": "uint256[]"
        }
      ],
      "stateMutability": "view",
      "type": "function"
    },
    {
      "inputs": [],
      "name": "getMyCampaigns",
      "outputs": [
        {
          "components": [
            {
              "internalType": "uint256",
              "name": "id",
              "type": "uint256"
            },
            {
              "internalType": "address",
              "name": "owner",
              "type": "address"
            },
            {
              "internalType": "string",
              "name": "title",
              "type": "string"
            },
            {
              "internalType": "string",
              "name": "description",
              "type": "string"
            },
            {
              "internalType": "string",
              "name": "imageId",
              "type": "string"
            },
            {
              "internalType": "string",
              "name": "videoId",
              "type": "string"
            },
            {
              "internalType": "uint256",
              "name": "targetAmount",
              "type": "uint256"
            },
            {
              "internalType": "uint256",
              "name": "collectedAmount",
              "type": "uint256"
            },
            {
              "internalType": "uint256",
              "name": "creationDate",
              "type": "uint256"
            },
            {
              "internalType": "uint256",
              "name": "deadlineDate",
              "type": "uint256"
            },
            {
              "internalType": "address[]",
              "name": "donators",
              "type": "address[]"
            },
            {
              "internalType": "uint256[]",
              "name": "donations",
              "type": "uint256[]"
            }
          ],
          "internalType": "struct BloodDonation.Campaign[]",
          "name": "",
          "type": "tuple[]"
        }
      ],
      "stateMutability": "view",
      "type": "function"
    },
    {
      "inputs": [
        {
          "internalType": "address",
          "name": "_owner",
          "type": "address"
        }
      ],
      "name": "getMyPouches",
      "outputs": [
        {
          "components": [
            {
              "internalType": "uint256",
              "name": "pouchID",
              "type": "uint256"
            },
            {
              "internalType": "enum BloodDonation.BloodGroup",
              "name": "bloodGroup",
              "type": "uint8"
            },
            {
              "internalType": "address",
              "name": "donorID",
              "type": "address"
            },
            {
              "internalType": "address",
              "name": "organizationID",
              "type": "address"
            },
            {
              "internalType": "address",
              "name": "receiverID",
              "type": "address"
            },
            {
              "internalType": "string",
              "name": "details",
              "type": "string"
            },
            {
              "internalType": "uint256",
              "name": "publishDate",
              "type": "uint256"
            },
            {
              "internalType": "uint256",
              "name": "receivedDate",
              "type": "uint256"
            },
            {
              "internalType": "enum BloodDonation.BloodStatus",
              "name": "status",
              "type": "uint8"
            }
          ],
          "internalType": "struct BloodDonation.BloodPouch[]",
          "name": "",
          "type": "tuple[]"
        }
      ],
      "stateMutability": "view",
      "type": "function"
    },
    {
      "inputs": [
        {
          "internalType": "address",
          "name": "_receiver",
          "type": "address"
        }
      ],
      "name": "getReceivedPouches",
      "outputs": [
        {
          "components": [
            {
              "internalType": "uint256",
              "name": "pouchID",
              "type": "uint256"
            },
            {
              "internalType": "enum BloodDonation.BloodGroup",
              "name": "bloodGroup",
              "type": "uint8"
            },
            {
              "internalType": "address",
              "name": "donorID",
              "type": "address"
            },
            {
              "internalType": "address",
              "name": "organizationID",
              "type": "address"
            },
            {
              "internalType": "address",
              "name": "receiverID",
              "type": "address"
            },
            {
              "internalType": "string",
              "name": "details",
              "type": "string"
            },
            {
              "internalType": "uint256",
              "name": "publishDate",
              "type": "uint256"
            },
            {
              "internalType": "uint256",
              "name": "receivedDate",
              "type": "uint256"
            },
            {
              "internalType": "enum BloodDonation.BloodStatus",
              "name": "status",
              "type": "uint8"
            }
          ],
          "internalType": "struct BloodDonation.BloodPouch[]",
          "name": "",
          "type": "tuple[]"
        }
      ],
      "stateMutability": "view",
      "type": "function"
    },
    {
      "inputs": [
        {
          "internalType": "address",
          "name": "spender",
          "type": "address"
        },
        {
          "internalType": "uint256",
          "name": "addedValue",
          "type": "uint256"
        }
      ],
      "name": "increaseAllowance",
      "outputs": [
        {
          "internalType": "bool",
          "name": "",
          "type": "bool"
        }
      ],
      "stateMutability": "nonpayable",
      "type": "function"
    },
    {
      "inputs": [
        {
          "internalType": "address",
          "name": "_account",
          "type": "address"
        }
      ],
      "name": "isAdmin",
      "outputs": [
        {
          "internalType": "bool",
          "name": "",
          "type": "bool"
        }
      ],
      "stateMutability": "view",
      "type": "function"
    },
    {
      "inputs": [
        {
          "internalType": "address",
          "name": "_account",
          "type": "address"
        }
      ],
      "name": "isOrganization",
      "outputs": [
        {
          "internalType": "bool",
          "name": "",
          "type": "bool"
        }
      ],
      "stateMutability": "view",
      "type": "function"
    },
    {
      "inputs": [],
      "name": "name",
      "outputs": [
        {
          "internalType": "string",
          "name": "",
          "type": "string"
        }
      ],
      "stateMutability": "view",
      "type": "function"
    },
    {
      "inputs": [],
      "name": "symbol",
      "outputs": [
        {
          "internalType": "string",
          "name": "",
          "type": "string"
        }
      ],
      "stateMutability": "view",
      "type": "function"
    },
    {
      "inputs": [],
      "name": "totalSupply",
      "outputs": [
        {
          "internalType": "uint256",
          "name": "",
          "type": "uint256"
        }
      ],
      "stateMutability": "view",
      "type": "function"
    },
    {
      "inputs": [
        {
          "internalType": "address",
          "name": "to",
          "type": "address"
        },
        {
          "internalType": "uint256",
          "name": "amount",
          "type": "uint256"
        }
      ],
      "name": "transfer",
      "outputs": [
        {
          "internalType": "bool",
          "name": "",
          "type": "bool"
        }
      ],
      "stateMutability": "nonpayable",
      "type": "function"
    },
    {
      "inputs": [
        {
          "internalType": "address",
          "name": "from",
          "type": "address"
        },
        {
          "internalType": "address",
          "name": "to",
          "type": "address"
        },
        {
          "internalType": "uint256",
          "name": "amount",
          "type": "uint256"
        }
      ],
      "name": "transferFrom",
      "outputs": [
        {
          "internalType": "bool",
          "name": "",
          "type": "bool"
        }
      ],
      "stateMutability": "nonpayable",
      "type": "function"
    }
  ],
  "bytecode": "0x60806040523480156200001157600080fd5b506040518060400160405280600c81526020017f534f4349414c20544f4b454e00000000000000000000000000000000000000008152506040518060400160405280600681526020017f534f4349414c000000000000000000000000000000000000000000000000000081525081600390816200008f9190620003bd565b508060049081620000a19190620003bd565b50505033600960006101000a81548173ffffffffffffffffffffffffffffffffffffffff021916908373ffffffffffffffffffffffffffffffffffffffff1602179055506001600a60003373ffffffffffffffffffffffffffffffffffffffff1673ffffffffffffffffffffffffffffffffffffffff16815260200190815260200160002060006101000a81548160ff021916908315150217905550620004a4565b600081519050919050565b7f4e487b7100000000000000000000000000000000000000000000000000000000600052604160045260246000fd5b7f4e487b7100000000000000000000000000000000000000000000000000000000600052602260045260246000fd5b60006002820490506001821680620001c557607f821691505b602082108103620001db57620001da6200017d565b5b50919050565b60008190508160005260206000209050919050565b60006020601f8301049050919050565b600082821b905092915050565b600060088302620002457fffffffffffffffffffffffffffffffffffffffffffffffffffffffffffffffff8262000206565b62000251868362000206565b95508019841693508086168417925050509392505050565b6000819050919050565b6000819050919050565b60006200029e62000298620002928462000269565b62000273565b62000269565b9050919050565b6000819050919050565b620002ba836200027d565b620002d2620002c982620002a5565b84845462000213565b825550505050565b600090565b620002e9620002da565b620002f6818484620002af565b505050565b5b818110156200031e5762000312600082620002df565b600181019050620002fc565b5050565b601f8211156200036d576200033781620001e1565b6200034284620001f6565b8101602085101562000352578190505b6200036a6200036185620001f6565b830182620002fb565b50505b505050565b600082821c905092915050565b6000620003926000198460080262000372565b1980831691505092915050565b6000620003ad83836200037f565b9150826002028217905092915050565b620003c88262000143565b67ffffffffffffffff811115620003e457620003e36200014e565b5b620003f08254620001ac565b620003fd82828562000322565b600060209050601f83116001811462000435576000841562000420578287015190505b6200042c85826200039f565b8655506200049c565b601f1984166200044586620001e1565b60005b828110156200046f5784890151825560018201915060208501945060208101905062000448565b868310156200048f57848901516200048b601f8916826200037f565b8355505b6001600288020188555050505b505050505050565b615ab480620004b46000396000f3fe6080604052600436106101665760003560e01c80635598f8cc116100d1578063a457c2d71161008a578063d68287df11610064578063d68287df146105b7578063dd62ed3e146105e0578063e6ea7dcc1461061d578063e75d3a951461065b57610166565b8063a457c2d714610500578063a9059cbb1461053d578063b1ce8eab1461057a57610166565b80635598f8cc146103de5780635cc3224e146104265780636e42afbe1461045157806370a082311461046d57806382bea0ca146104aa57806395d89b41146104d557610166565b8063313ce56711610123578063313ce567146102b557806336dd8696146102e0578063395093511461031d57806339c3fb751461035a57806342a4fda8146103975780634b89869f146103b357610166565b806306fdde031461016b578063095ea7b31461019657806318160ddd146101d357806323b872dd146101fe57806324d7806c1461023b57806325f3548a14610278575b600080fd5b34801561017757600080fd5b50610180610698565b60405161018d9190614024565b60405180910390f35b3480156101a257600080fd5b506101bd60048036038101906101b891906140ee565b61072a565b6040516101ca9190614149565b60405180910390f35b3480156101df57600080fd5b506101e861074d565b6040516101f59190614173565b60405180910390f35b34801561020a57600080fd5b506102256004803603810190610220919061418e565b610757565b6040516102329190614149565b60405180910390f35b34801561024757600080fd5b50610262600480360381019061025d91906141e1565b610786565b60405161026f9190614149565b60405180910390f35b34801561028457600080fd5b5061029f600480360381019061029a91906141e1565b6107e0565b6040516102ac91906144bc565b60405180910390f35b3480156102c157600080fd5b506102ca610bf6565b6040516102d791906144fa565b60405180910390f35b3480156102ec57600080fd5b50610307600480360381019061030291906141e1565b610bff565b60405161031491906144bc565b60405180910390f35b34801561032957600080fd5b50610344600480360381019061033f91906140ee565b610ffd565b6040516103519190614149565b60405180910390f35b34801561036657600080fd5b50610381600480360381019061037c919061464a565b611034565b60405161038e9190614173565b60405180910390f35b6103b160048036038101906103ac919061475c565b611316565b005b3480156103bf57600080fd5b506103c8611526565b6040516103d591906144bc565b60405180910390f35b3480156103ea57600080fd5b506104056004803603810190610400919061475c565b6118ee565b60405161041d9c9b9a999897969594939291906148f6565b60405180910390f35b34801561043257600080fd5b5061043b611de6565b6040516104489190614ca1565b60405180910390f35b61046b6004803603810190610466919061475c565b612332565b005b34801561047957600080fd5b50610494600480360381019061048f91906141e1565b6125ef565b6040516104a19190614173565b60405180910390f35b3480156104b657600080fd5b506104bf612637565b6040516104cc9190614ca1565b60405180910390f35b3480156104e157600080fd5b506104ea612c39565b6040516104f79190614024565b60405180910390f35b34801561050c57600080fd5b50610527600480360381019061052291906140ee565b612ccb565b6040516105349190614149565b60405180910390f35b34801561054957600080fd5b50610564600480360381019061055f91906140ee565b612d42565b6040516105719190614149565b60405180910390f35b34801561058657600080fd5b506105a1600480360381019061059c91906141e1565b612d65565b6040516105ae9190614149565b60405180910390f35b3480156105c357600080fd5b506105de60048036038101906105d991906141e1565b612dbb565b005b3480156105ec57600080fd5b5061060760048036038101906106029190614cc3565b612ea6565b6040516106149190614173565b60405180910390f35b34801561062957600080fd5b50610644600480360381019061063f919061475c565b612f2d565b604051610652929190614d03565b60405180910390f35b34801561066757600080fd5b50610682600480360381019061067d9190614d5f565b6133c4565b60405161068f9190614173565b60405180910390f35b6060600380546106a790614dfd565b80601f01602080910402602001604051908101604052809291908181526020018280546106d390614dfd565b80156107205780601f106106f557610100808354040283529160200191610720565b820191906000526020600020905b81548152906001019060200180831161070357829003601f168201915b5050505050905090565b600080610735613744565b905061074281858561374c565b600191505092915050565b6000600254905090565b600080610762613744565b905061076f858285613915565b61077a8585856139a1565b60019150509392505050565b6000600960009054906101000a900473ffffffffffffffffffffffffffffffffffffffff1673ffffffffffffffffffffffffffffffffffffffff168273ffffffffffffffffffffffffffffffffffffffff16149050919050565b6060600060085467ffffffffffffffff811115610800576107ff61451f565b5b60405190808252806020026020018201604052801561083957816020015b610826613d77565b81526020019060019003908161081e5790505b5090506000805b600854811015610b3a578473ffffffffffffffffffffffffffffffffffffffff166006600083815260200190815260200160002060030160009054906101000a900473ffffffffffffffffffffffffffffffffffffffff1673ffffffffffffffffffffffffffffffffffffffff1603610b27576006600082815260200190815260200160002060405180610120016040529081600082015481526020016001820160009054906101000a900460ff16600781111561090157610900614249565b5b600781111561091357610912614249565b5b81526020016001820160019054906101000a900473ffffffffffffffffffffffffffffffffffffffff1673ffffffffffffffffffffffffffffffffffffffff1673ffffffffffffffffffffffffffffffffffffffff1681526020016002820160009054906101000a900473ffffffffffffffffffffffffffffffffffffffff1673ffffffffffffffffffffffffffffffffffffffff1673ffffffffffffffffffffffffffffffffffffffff1681526020016003820160009054906101000a900473ffffffffffffffffffffffffffffffffffffffff1673ffffffffffffffffffffffffffffffffffffffff1673ffffffffffffffffffffffffffffffffffffffff168152602001600482018054610a2990614dfd565b80601f0160208091040260200160405190810160405280929190818152602001828054610a5590614dfd565b8015610aa25780601f10610a7757610100808354040283529160200191610aa2565b820191906000526020600020905b815481529060010190602001808311610a8557829003601f168201915b5050505050815260200160058201548152602001600682015481526020016007820160009054906101000a900460ff166002811115610ae457610ae3614249565b5b6002811115610af657610af5614249565b5b81525050838381518110610b0d57610b0c614e2e565b5b60200260200101819052508180610b2390614e8c565b9250505b8080610b3290614e8c565b915050610840565b5060008167ffffffffffffffff811115610b5757610b5661451f565b5b604051908082528060200260200182016040528015610b9057816020015b610b7d613d77565b815260200190600190039081610b755790505b50905060005b82811015610bea57838181518110610bb157610bb0614e2e565b5b6020026020010151828281518110610bcc57610bcb614e2e565b5b60200260200101819052508080610be290614e8c565b915050610b96565b50809350505050919050565b60006012905090565b60606000805b600854811015610c9a578373ffffffffffffffffffffffffffffffffffffffff166006600083815260200190815260200160002060010160019054906101000a900473ffffffffffffffffffffffffffffffffffffffff1673ffffffffffffffffffffffffffffffffffffffff1603610c87578180610c8390614e8c565b9250505b8080610c9290614e8c565b915050610c05565b5060008167ffffffffffffffff811115610cb757610cb661451f565b5b604051908082528060200260200182016040528015610cf057816020015b610cdd613d77565b815260200190600190039081610cd55790505b5090506000805b600854811015610ff1578573ffffffffffffffffffffffffffffffffffffffff166006600083815260200190815260200160002060010160019054906101000a900473ffffffffffffffffffffffffffffffffffffffff1673ffffffffffffffffffffffffffffffffffffffff1603610fde576006600082815260200190815260200160002060405180610120016040529081600082015481526020016001820160009054906101000a900460ff166007811115610db857610db7614249565b5b6007811115610dca57610dc9614249565b5b81526020016001820160019054906101000a900473ffffffffffffffffffffffffffffffffffffffff1673ffffffffffffffffffffffffffffffffffffffff1673ffffffffffffffffffffffffffffffffffffffff1681526020016002820160009054906101000a900473ffffffffffffffffffffffffffffffffffffffff1673ffffffffffffffffffffffffffffffffffffffff1673ffffffffffffffffffffffffffffffffffffffff1681526020016003820160009054906101000a900473ffffffffffffffffffffffffffffffffffffffff1673ffffffffffffffffffffffffffffffffffffffff1673ffffffffffffffffffffffffffffffffffffffff168152602001600482018054610ee090614dfd565b80601f0160208091040260200160405190810160405280929190818152602001828054610f0c90614dfd565b8015610f595780601f10610f2e57610100808354040283529160200191610f59565b820191906000526020600020905b815481529060010190602001808311610f3c57829003601f168201915b5050505050815260200160058201548152602001600682015481526020016007820160009054906101000a900460ff166002811115610f9b57610f9a614249565b5b6002811115610fad57610fac614249565b5b81525050838381518110610fc457610fc3614e2e565b5b60200260200101819052508180610fda90614e8c565b9250505b8080610fe990614e8c565b915050610cf7565b50819350505050919050565b600080611008613744565b905061102981858561101a8589612ea6565b6110249190614ed4565b61374c565b600191505092915050565b6000600a60003373ffffffffffffffffffffffffffffffffffffffff1673ffffffffffffffffffffffffffffffffffffffff16815260200190815260200160002060009054906101000a900460ff166110c2576040517f08c379a00000000000000000000000000000000000000000000000000000000081526004016110b990614f54565b60405180910390fd5b6000600754905060006040518061018001604052808381526020018b73ffffffffffffffffffffffffffffffffffffffff1681526020018a815260200189815260200188815260200187815260200186815260200160008152602001428152602001858152602001600067ffffffffffffffff8111156111455761114461451f565b5b6040519080825280602002602001820160405280156111735781602001602082028036833780820191505090505b508152602001600067ffffffffffffffff8111156111945761119361451f565b5b6040519080825280602002602001820160405280156111c25781602001602082028036833780820191505090505b50815250905080600560008481526020019081526020016000206000820151816000015560208201518160010160006101000a81548173ffffffffffffffffffffffffffffffffffffffff021916908373ffffffffffffffffffffffffffffffffffffffff16021790555060408201518160020190816112429190615120565b5060608201518160030190816112589190615120565b50608082015181600401908161126e9190615120565b5060a08201518160050190816112849190615120565b5060c0820151816006015560e082015181600701556101008201518160080155610120820151816009015561014082015181600a0190805190602001906112cc929190613e29565b5061016082015181600b0190805190602001906112ea929190613eb3565b509050506007600081548092919061130190614e8c565b91905055508192505050979650505050505050565b600073ffffffffffffffffffffffffffffffffffffffff166005600083815260200190815260200160002060010160009054906101000a900473ffffffffffffffffffffffffffffffffffffffff1673ffffffffffffffffffffffffffffffffffffffff16036113bb576040517f08c379a00000000000000000000000000000000000000000000000000000000081526004016113b290615264565b60405180910390fd5b6005600082815260200190815260200160002060010160009054906101000a900473ffffffffffffffffffffffffffffffffffffffff1673ffffffffffffffffffffffffffffffffffffffff166108fc349081150290604051600060405180830381858888f19350505050158015611437573d6000803e3d6000fd5b506114423334613c17565b60056000828152602001908152602001600020600a01339080600181540180825580915050600190039060005260206000200160009091909190916101000a81548173ffffffffffffffffffffffffffffffffffffffff021916908373ffffffffffffffffffffffffffffffffffffffff16021790555060056000828152602001908152602001600020600b013490806001815401808255809150506001900390600052602060002001600090919091909150553460056000838152602001908152602001600020600701600082825461151c9190614ed4565b9250508190555050565b60606000805b6008548110156115a7576000600281111561154a57611549614249565b5b6006600083815260200190815260200160002060070160009054906101000a900460ff1660028111156115805761157f614249565b5b0361159457818061159090614e8c565b9250505b808061159f90614e8c565b91505061152c565b5060008167ffffffffffffffff8111156115c4576115c361451f565b5b6040519080825280602002602001820160405280156115fd57816020015b6115ea613d77565b8152602001906001900390816115e25790505b5090506000805b6008548110156118e4576000600281111561162257611621614249565b5b6006600083815260200190815260200160002060070160009054906101000a900460ff16600281111561165857611657614249565b5b036118d1576006600082815260200190815260200160002060405180610120016040529081600082015481526020016001820160009054906101000a900460ff1660078111156116ab576116aa614249565b5b60078111156116bd576116bc614249565b5b81526020016001820160019054906101000a900473ffffffffffffffffffffffffffffffffffffffff1673ffffffffffffffffffffffffffffffffffffffff1673ffffffffffffffffffffffffffffffffffffffff1681526020016002820160009054906101000a900473ffffffffffffffffffffffffffffffffffffffff1673ffffffffffffffffffffffffffffffffffffffff1673ffffffffffffffffffffffffffffffffffffffff1681526020016003820160009054906101000a900473ffffffffffffffffffffffffffffffffffffffff1673ffffffffffffffffffffffffffffffffffffffff1673ffffffffffffffffffffffffffffffffffffffff1681526020016004820180546117d390614dfd565b80601f01602080910402602001604051908101604052809291908181526020018280546117ff90614dfd565b801561184c5780601f106118215761010080835404028352916020019161184c565b820191906000526020600020905b81548152906001019060200180831161182f57829003601f168201915b5050505050815260200160058201548152602001600682015481526020016007820160009054906101000a900460ff16600281111561188e5761188d614249565b5b60028111156118a05761189f614249565b5b815250508383815181106118b7576118b6614e2e565b5b602002602001018190525081806118cd90614e8c565b9250505b80806118dc90614e8c565b915050611604565b5081935050505090565b600080606080606080600080600080606080600073ffffffffffffffffffffffffffffffffffffffff16600560008f815260200190815260200160002060010160009054906101000a900473ffffffffffffffffffffffffffffffffffffffff1673ffffffffffffffffffffffffffffffffffffffff16036119a5576040517f08c379a000000000000000000000000000000000000000000000000000000000815260040161199c90615264565b60405180910390fd5b6000600560008f815260200190815260200160002060405180610180016040529081600082015481526020016001820160009054906101000a900473ffffffffffffffffffffffffffffffffffffffff1673ffffffffffffffffffffffffffffffffffffffff1673ffffffffffffffffffffffffffffffffffffffff168152602001600282018054611a3690614dfd565b80601f0160208091040260200160405190810160405280929190818152602001828054611a6290614dfd565b8015611aaf5780601f10611a8457610100808354040283529160200191611aaf565b820191906000526020600020905b815481529060010190602001808311611a9257829003601f168201915b50505050508152602001600382018054611ac890614dfd565b80601f0160208091040260200160405190810160405280929190818152602001828054611af490614dfd565b8015611b415780601f10611b1657610100808354040283529160200191611b41565b820191906000526020600020905b815481529060010190602001808311611b2457829003601f168201915b50505050508152602001600482018054611b5a90614dfd565b80601f0160208091040260200160405190810160405280929190818152602001828054611b8690614dfd565b8015611bd35780601f10611ba857610100808354040283529160200191611bd3565b820191906000526020600020905b815481529060010190602001808311611bb657829003601f168201915b50505050508152602001600582018054611bec90614dfd565b80601f0160208091040260200160405190810160405280929190818152602001828054611c1890614dfd565b8015611c655780601f10611c3a57610100808354040283529160200191611c65565b820191906000526020600020905b815481529060010190602001808311611c4857829003601f168201915b5050505050815260200160068201548152602001600782015481526020016008820154815260200160098201548152602001600a8201805480602002602001604051908101604052809291908181526020018280548015611d1b57602002820191906000526020600020905b8160009054906101000a900473ffffffffffffffffffffffffffffffffffffffff1673ffffffffffffffffffffffffffffffffffffffff1681526020019060010190808311611cd1575b50505050508152602001600b8201805480602002602001604051908101604052809291908181526020018280548015611d7357602002820191906000526020600020905b815481526020019060010190808311611d5f575b5050505050815250509050806000015181602001518260400151836060015184608001518560a001518660c001518760e001518861010001518961012001518a61014001518b61016001519c509c509c509c509c509c509c509c509c509c509c509c505091939597999b5091939597999b565b6060600060075467ffffffffffffffff811115611e0657611e0561451f565b5b604051908082528060200260200182016040528015611e3f57816020015b611e2c613f00565b815260200190600190039081611e245790505b5090506000805b6007548110156122785760006005600083815260200190815260200160002060405180610180016040529081600082015481526020016001820160009054906101000a900473ffffffffffffffffffffffffffffffffffffffff1673ffffffffffffffffffffffffffffffffffffffff1673ffffffffffffffffffffffffffffffffffffffff168152602001600282018054611ee190614dfd565b80601f0160208091040260200160405190810160405280929190818152602001828054611f0d90614dfd565b8015611f5a5780601f10611f2f57610100808354040283529160200191611f5a565b820191906000526020600020905b815481529060010190602001808311611f3d57829003601f168201915b50505050508152602001600382018054611f7390614dfd565b80601f0160208091040260200160405190810160405280929190818152602001828054611f9f90614dfd565b8015611fec5780601f10611fc157610100808354040283529160200191611fec565b820191906000526020600020905b815481529060010190602001808311611fcf57829003601f168201915b5050505050815260200160048201805461200590614dfd565b80601f016020809104026020016040519081016040528092919081815260200182805461203190614dfd565b801561207e5780601f106120535761010080835404028352916020019161207e565b820191906000526020600020905b81548152906001019060200180831161206157829003601f168201915b5050505050815260200160058201805461209790614dfd565b80601f01602080910402602001604051908101604052809291908181526020018280546120c390614dfd565b80156121105780601f106120e557610100808354040283529160200191612110565b820191906000526020600020905b8154815290600101906020018083116120f357829003601f168201915b5050505050815260200160068201548152602001600782015481526020016008820154815260200160098201548152602001600a82018054806020026020016040519081016040528092919081815260200182805480156121c657602002820191906000526020600020905b8160009054906101000a900473ffffffffffffffffffffffffffffffffffffffff1673ffffffffffffffffffffffffffffffffffffffff168152602001906001019080831161217c575b50505050508152602001600b820180548060200260200160405190810160405280929190818152602001828054801561221e57602002820191906000526020600020905b81548152602001906001019080831161220a575b5050505050815250509050428161012001511115612264578084848151811061224a57612249614e2e565b5b6020026020010181905250828061226090614e8c565b9350505b50808061227090614e8c565b915050611e46565b5060008167ffffffffffffffff8111156122955761229461451f565b5b6040519080825280602002602001820160405280156122ce57816020015b6122bb613f00565b8152602001906001900390816122b35790505b50905060005b82811015612328578381815181106122ef576122ee614e2e565b5b602002602001015182828151811061230a57612309614e2e565b5b6020026020010181905250808061232090614e8c565b9150506122d4565b5080935050505090565b600073ffffffffffffffffffffffffffffffffffffffff166006600083815260200190815260200160002060010160019054906101000a900473ffffffffffffffffffffffffffffffffffffffff1673ffffffffffffffffffffffffffffffffffffffff16036123d7576040517f08c379a00000000000000000000000000000000000000000000000000000000081526004016123ce906152d0565b60405180910390fd5b600073ffffffffffffffffffffffffffffffffffffffff166006600083815260200190815260200160002060030160009054906101000a900473ffffffffffffffffffffffffffffffffffffffff1673ffffffffffffffffffffffffffffffffffffffff161461247c576040517f08c379a00000000000000000000000000000000000000000000000000000000081526004016124739061533c565b60405180910390fd5b6006600082815260200190815260200160002060020160009054906101000a900473ffffffffffffffffffffffffffffffffffffffff1673ffffffffffffffffffffffffffffffffffffffff166108fc349081150290604051600060405180830381858888f193505050501580156124f8573d6000803e3d6000fd5b506125586006600083815260200190815260200160002060020160009054906101000a900473ffffffffffffffffffffffffffffffffffffffff1661253b610bf6565b600a612547919061548f565b606461255391906154da565b613c17565b336006600083815260200190815260200160002060030160006101000a81548173ffffffffffffffffffffffffffffffffffffffff021916908373ffffffffffffffffffffffffffffffffffffffff16021790555060026006600083815260200190815260200160002060070160006101000a81548160ff021916908360028111156125e7576125e6614249565b5b021790555050565b60008060008373ffffffffffffffffffffffffffffffffffffffff1673ffffffffffffffffffffffffffffffffffffffff168152602001908152602001600020549050919050565b6060600a60003373ffffffffffffffffffffffffffffffffffffffff1673ffffffffffffffffffffffffffffffffffffffff16815260200190815260200160002060009054906101000a900460ff166126c5576040517f08c379a00000000000000000000000000000000000000000000000000000000081526004016126bc90614f54565b60405180910390fd5b600060075467ffffffffffffffff8111156126e3576126e261451f565b5b60405190808252806020026020018201604052801561271c57816020015b612709613f00565b8152602001906001900390816127015790505b5090506000805b600754811015612b7f5760006005600083815260200190815260200160002060405180610180016040529081600082015481526020016001820160009054906101000a900473ffffffffffffffffffffffffffffffffffffffff1673ffffffffffffffffffffffffffffffffffffffff1673ffffffffffffffffffffffffffffffffffffffff1681526020016002820180546127be90614dfd565b80601f01602080910402602001604051908101604052809291908181526020018280546127ea90614dfd565b80156128375780601f1061280c57610100808354040283529160200191612837565b820191906000526020600020905b81548152906001019060200180831161281a57829003601f168201915b5050505050815260200160038201805461285090614dfd565b80601f016020809104026020016040519081016040528092919081815260200182805461287c90614dfd565b80156128c95780601f1061289e576101008083540402835291602001916128c9565b820191906000526020600020905b8154815290600101906020018083116128ac57829003601f168201915b505050505081526020016004820180546128e290614dfd565b80601f016020809104026020016040519081016040528092919081815260200182805461290e90614dfd565b801561295b5780601f106129305761010080835404028352916020019161295b565b820191906000526020600020905b81548152906001019060200180831161293e57829003601f168201915b5050505050815260200160058201805461297490614dfd565b80601f01602080910402602001604051908101604052809291908181526020018280546129a090614dfd565b80156129ed5780601f106129c2576101008083540402835291602001916129ed565b820191906000526020600020905b8154815290600101906020018083116129d057829003601f168201915b5050505050815260200160068201548152602001600782015481526020016008820154815260200160098201548152602001600a8201805480602002602001604051908101604052809291908181526020018280548015612aa357602002820191906000526020600020905b8160009054906101000a900473ffffffffffffffffffffffffffffffffffffffff1673ffffffffffffffffffffffffffffffffffffffff1681526020019060010190808311612a59575b50505050508152602001600b8201805480602002602001604051908101604052809291908181526020018280548015612afb57602002820191906000526020600020905b815481526020019060010190808311612ae7575b50505050508152505090503373ffffffffffffffffffffffffffffffffffffffff16816020015173ffffffffffffffffffffffffffffffffffffffff1603612b6b5780848481518110612b5157612b50614e2e565b5b60200260200101819052508280612b6790614e8c565b9350505b508080612b7790614e8c565b915050612723565b5060008167ffffffffffffffff811115612b9c57612b9b61451f565b5b604051908082528060200260200182016040528015612bd557816020015b612bc2613f00565b815260200190600190039081612bba5790505b50905060005b82811015612c2f57838181518110612bf657612bf5614e2e565b5b6020026020010151828281518110612c1157612c10614e2e565b5b60200260200101819052508080612c2790614e8c565b915050612bdb565b5080935050505090565b606060048054612c4890614dfd565b80601f0160208091040260200160405190810160405280929190818152602001828054612c7490614dfd565b8015612cc15780601f10612c9657610100808354040283529160200191612cc1565b820191906000526020600020905b815481529060010190602001808311612ca457829003601f168201915b5050505050905090565b600080612cd6613744565b90506000612ce48286612ea6565b905083811015612d29576040517f08c379a0000000000000000000000000000000000000000000000000000000008152600401612d209061558e565b60405180910390fd5b612d36828686840361374c565b60019250505092915050565b600080612d4d613744565b9050612d5a8185856139a1565b600191505092915050565b6000600a60008373ffffffffffffffffffffffffffffffffffffffff1673ffffffffffffffffffffffffffffffffffffffff16815260200190815260200160002060009054906101000a900460ff169050919050565b600960009054906101000a900473ffffffffffffffffffffffffffffffffffffffff1673ffffffffffffffffffffffffffffffffffffffff163373ffffffffffffffffffffffffffffffffffffffff1614612e4b576040517f08c379a0000000000000000000000000000000000000000000000000000000008152600401612e42906155fa565b60405180910390fd5b6001600a60008373ffffffffffffffffffffffffffffffffffffffff1673ffffffffffffffffffffffffffffffffffffffff16815260200190815260200160002060006101000a81548160ff02191690831515021790555050565b6000600160008473ffffffffffffffffffffffffffffffffffffffff1673ffffffffffffffffffffffffffffffffffffffff16815260200190815260200160002060008373ffffffffffffffffffffffffffffffffffffffff1673ffffffffffffffffffffffffffffffffffffffff16815260200190815260200160002054905092915050565b606080600073ffffffffffffffffffffffffffffffffffffffff166005600085815260200190815260200160002060010160009054906101000a900473ffffffffffffffffffffffffffffffffffffffff1673ffffffffffffffffffffffffffffffffffffffff1603612fd5576040517f08c379a0000000000000000000000000000000000000000000000000000000008152600401612fcc90615264565b60405180910390fd5b60006005600085815260200190815260200160002060405180610180016040529081600082015481526020016001820160009054906101000a900473ffffffffffffffffffffffffffffffffffffffff1673ffffffffffffffffffffffffffffffffffffffff1673ffffffffffffffffffffffffffffffffffffffff16815260200160028201805461306690614dfd565b80601f016020809104026020016040519081016040528092919081815260200182805461309290614dfd565b80156130df5780601f106130b4576101008083540402835291602001916130df565b820191906000526020600020905b8154815290600101906020018083116130c257829003601f168201915b505050505081526020016003820180546130f890614dfd565b80601f016020809104026020016040519081016040528092919081815260200182805461312490614dfd565b80156131715780601f1061314657610100808354040283529160200191613171565b820191906000526020600020905b81548152906001019060200180831161315457829003601f168201915b5050505050815260200160048201805461318a90614dfd565b80601f01602080910402602001604051908101604052809291908181526020018280546131b690614dfd565b80156132035780601f106131d857610100808354040283529160200191613203565b820191906000526020600020905b8154815290600101906020018083116131e657829003601f168201915b5050505050815260200160058201805461321c90614dfd565b80601f016020809104026020016040519081016040528092919081815260200182805461324890614dfd565b80156132955780601f1061326a57610100808354040283529160200191613295565b820191906000526020600020905b81548152906001019060200180831161327857829003601f168201915b5050505050815260200160068201548152602001600782015481526020016008820154815260200160098201548152602001600a820180548060200260200160405190810160405280929190818152602001828054801561334b57602002820191906000526020600020905b8160009054906101000a900473ffffffffffffffffffffffffffffffffffffffff1673ffffffffffffffffffffffffffffffffffffffff1681526020019060010190808311613301575b50505050508152602001600b82018054806020026020016040519081016040528092919081815260200182805480156133a357602002820191906000526020600020905b81548152602001906001019080831161338f575b50505050508152505090508061014001518161016001519250925050915091565b6000600a60003373ffffffffffffffffffffffffffffffffffffffff1673ffffffffffffffffffffffffffffffffffffffff16815260200190815260200160002060009054906101000a900460ff16613452576040517f08c379a000000000000000000000000000000000000000000000000000000000815260040161344990614f54565b60405180910390fd5b6000600854905060006040518061012001604052808381526020018660078111156134805761347f614249565b5b81526020018773ffffffffffffffffffffffffffffffffffffffff1681526020013373ffffffffffffffffffffffffffffffffffffffff168152602001600073ffffffffffffffffffffffffffffffffffffffff168152602001858152602001428152602001600081526020016000600281111561350157613500614249565b5b815250905080600660008481526020019081526020016000206000820151816000015560208201518160010160006101000a81548160ff0219169083600781111561354f5761354e614249565b5b021790555060408201518160010160016101000a81548173ffffffffffffffffffffffffffffffffffffffff021916908373ffffffffffffffffffffffffffffffffffffffff16021790555060608201518160020160006101000a81548173ffffffffffffffffffffffffffffffffffffffff021916908373ffffffffffffffffffffffffffffffffffffffff16021790555060808201518160030160006101000a81548173ffffffffffffffffffffffffffffffffffffffff021916908373ffffffffffffffffffffffffffffffffffffffff16021790555060a082015181600401908161363e9190615120565b5060c0820151816005015560e082015181600601556101008201518160070160006101000a81548160ff0219169083600281111561367f5761367e614249565b5b02179055509050506008600081548092919061369a90614e8c565b91905055506136c8866136ab610bf6565b600a6136b7919061548f565b60646136c391906154da565b613c17565b7f314f3632121481fc4a1edb57a45d5017751e158667b6bf4b06e4affd50b48849816000015182604001518360200151846080015185606001518660a001518760c001518860e0015189610100015160405161372c99989796959493929190615638565b60405180910390a18060000151925050509392505050565b600033905090565b600073ffffffffffffffffffffffffffffffffffffffff168373ffffffffffffffffffffffffffffffffffffffff16036137bb576040517f08c379a00000000000000000000000000000000000000000000000000000000081526004016137b29061573e565b60405180910390fd5b600073ffffffffffffffffffffffffffffffffffffffff168273ffffffffffffffffffffffffffffffffffffffff160361382a576040517f08c379a0000000000000000000000000000000000000000000000000000000008152600401613821906157d0565b60405180910390fd5b80600160008573ffffffffffffffffffffffffffffffffffffffff1673ffffffffffffffffffffffffffffffffffffffff16815260200190815260200160002060008473ffffffffffffffffffffffffffffffffffffffff1673ffffffffffffffffffffffffffffffffffffffff168152602001908152602001600020819055508173ffffffffffffffffffffffffffffffffffffffff168373ffffffffffffffffffffffffffffffffffffffff167f8c5be1e5ebec7d5bd14f71427d1e84f3dd0314c0f7b2291e5b200ac8c7c3b925836040516139089190614173565b60405180910390a3505050565b60006139218484612ea6565b90507fffffffffffffffffffffffffffffffffffffffffffffffffffffffffffffffff811461399b578181101561398d576040517f08c379a00000000000000000000000000000000000000000000000000000000081526004016139849061583c565b60405180910390fd5b61399a848484840361374c565b5b50505050565b600073ffffffffffffffffffffffffffffffffffffffff168373ffffffffffffffffffffffffffffffffffffffff1603613a10576040517f08c379a0000000000000000000000000000000000000000000000000000000008152600401613a07906158ce565b60405180910390fd5b600073ffffffffffffffffffffffffffffffffffffffff168273ffffffffffffffffffffffffffffffffffffffff1603613a7f576040517f08c379a0000000000000000000000000000000000000000000000000000000008152600401613a7690615960565b60405180910390fd5b613a8a838383613d6d565b60008060008573ffffffffffffffffffffffffffffffffffffffff1673ffffffffffffffffffffffffffffffffffffffff16815260200190815260200160002054905081811015613b10576040517f08c379a0000000000000000000000000000000000000000000000000000000008152600401613b07906159f2565b60405180910390fd5b8181036000808673ffffffffffffffffffffffffffffffffffffffff1673ffffffffffffffffffffffffffffffffffffffff16815260200190815260200160002081905550816000808573ffffffffffffffffffffffffffffffffffffffff1673ffffffffffffffffffffffffffffffffffffffff168152602001908152602001600020600082825401925050819055508273ffffffffffffffffffffffffffffffffffffffff168473ffffffffffffffffffffffffffffffffffffffff167fddf252ad1be2c89b69c2b068fc378daa952ba7f163c4a11628f55a4df523b3ef84604051613bfe9190614173565b60405180910390a3613c11848484613d72565b50505050565b600073ffffffffffffffffffffffffffffffffffffffff168273ffffffffffffffffffffffffffffffffffffffff1603613c86576040517f08c379a0000000000000000000000000000000000000000000000000000000008152600401613c7d90615a5e565b60405180910390fd5b613c9260008383613d6d565b8060026000828254613ca49190614ed4565b92505081905550806000808473ffffffffffffffffffffffffffffffffffffffff1673ffffffffffffffffffffffffffffffffffffffff168152602001908152602001600020600082825401925050819055508173ffffffffffffffffffffffffffffffffffffffff16600073ffffffffffffffffffffffffffffffffffffffff167fddf252ad1be2c89b69c2b068fc378daa952ba7f163c4a11628f55a4df523b3ef83604051613d559190614173565b60405180910390a3613d6960008383613d72565b5050565b505050565b505050565b6040518061012001604052806000815260200160006007811115613d9e57613d9d614249565b5b8152602001600073ffffffffffffffffffffffffffffffffffffffff168152602001600073ffffffffffffffffffffffffffffffffffffffff168152602001600073ffffffffffffffffffffffffffffffffffffffff16815260200160608152602001600081526020016000815260200160006002811115613e2357613e22614249565b5b81525090565b828054828255906000526020600020908101928215613ea2579160200282015b82811115613ea15782518260006101000a81548173ffffffffffffffffffffffffffffffffffffffff021916908373ffffffffffffffffffffffffffffffffffffffff16021790555091602001919060010190613e49565b5b509050613eaf9190613f77565b5090565b828054828255906000526020600020908101928215613eef579160200282015b82811115613eee578251825591602001919060010190613ed3565b5b509050613efc9190613f77565b5090565b60405180610180016040528060008152602001600073ffffffffffffffffffffffffffffffffffffffff168152602001606081526020016060815260200160608152602001606081526020016000815260200160008152602001600081526020016000815260200160608152602001606081525090565b5b80821115613f90576000816000905550600101613f78565b5090565b600081519050919050565b600082825260208201905092915050565b60005b83811015613fce578082015181840152602081019050613fb3565b60008484015250505050565b6000601f19601f8301169050919050565b6000613ff682613f94565b6140008185613f9f565b9350614010818560208601613fb0565b61401981613fda565b840191505092915050565b6000602082019050818103600083015261403e8184613feb565b905092915050565b6000604051905090565b600080fd5b600080fd5b600073ffffffffffffffffffffffffffffffffffffffff82169050919050565b60006140858261405a565b9050919050565b6140958161407a565b81146140a057600080fd5b50565b6000813590506140b28161408c565b92915050565b6000819050919050565b6140cb816140b8565b81146140d657600080fd5b50565b6000813590506140e8816140c2565b92915050565b6000806040838503121561410557614104614050565b5b6000614113858286016140a3565b9250506020614124858286016140d9565b9150509250929050565b60008115159050919050565b6141438161412e565b82525050565b600060208201905061415e600083018461413a565b92915050565b61416d816140b8565b82525050565b60006020820190506141886000830184614164565b92915050565b6000806000606084860312156141a7576141a6614050565b5b60006141b5868287016140a3565b93505060206141c6868287016140a3565b92505060406141d7868287016140d9565b9150509250925092565b6000602082840312156141f7576141f6614050565b5b6000614205848285016140a3565b91505092915050565b600081519050919050565b600082825260208201905092915050565b6000819050602082019050919050565b614243816140b8565b82525050565b7f4e487b7100000000000000000000000000000000000000000000000000000000600052602160045260246000fd5b6008811061428957614288614249565b5b50565b600081905061429a82614278565b919050565b60006142aa8261428c565b9050919050565b6142ba8161429f565b82525050565b6142c98161407a565b82525050565b600082825260208201905092915050565b60006142eb82613f94565b6142f581856142cf565b9350614305818560208601613fb0565b61430e81613fda565b840191505092915050565b6003811061432a57614329614249565b5b50565b600081905061433b82614319565b919050565b600061434b8261432d565b9050919050565b61435b81614340565b82525050565b60006101208301600083015161437a600086018261423a565b50602083015161438d60208601826142b1565b5060408301516143a060408601826142c0565b5060608301516143b360608601826142c0565b5060808301516143c660808601826142c0565b5060a083015184820360a08601526143de82826142e0565b91505060c08301516143f360c086018261423a565b5060e083015161440660e086018261423a565b5061010083015161441b610100860182614352565b508091505092915050565b60006144328383614361565b905092915050565b6000602082019050919050565b60006144528261420e565b61445c8185614219565b93508360208202850161446e8561422a565b8060005b858110156144aa578484038952815161448b8582614426565b94506144968361443a565b925060208a01995050600181019050614472565b50829750879550505050505092915050565b600060208201905081810360008301526144d68184614447565b905092915050565b600060ff82169050919050565b6144f4816144de565b82525050565b600060208201905061450f60008301846144eb565b92915050565b600080fd5b600080fd5b7f4e487b7100000000000000000000000000000000000000000000000000000000600052604160045260246000fd5b61455782613fda565b810181811067ffffffffffffffff821117156145765761457561451f565b5b80604052505050565b6000614589614046565b9050614595828261454e565b919050565b600067ffffffffffffffff8211156145b5576145b461451f565b5b6145be82613fda565b9050602081019050919050565b82818337600083830152505050565b60006145ed6145e88461459a565b61457f565b9050828152602081018484840111156146095761460861451a565b5b6146148482856145cb565b509392505050565b600082601f83011261463157614630614515565b5b81356146418482602086016145da565b91505092915050565b600080600080600080600060e0888a03121561466957614668614050565b5b60006146778a828b016140a3565b975050602088013567ffffffffffffffff81111561469857614697614055565b5b6146a48a828b0161461c565b965050604088013567ffffffffffffffff8111156146c5576146c4614055565b5b6146d18a828b0161461c565b955050606088013567ffffffffffffffff8111156146f2576146f1614055565b5b6146fe8a828b0161461c565b945050608088013567ffffffffffffffff81111561471f5761471e614055565b5b61472b8a828b0161461c565b93505060a061473c8a828b016140d9565b92505060c061474d8a828b016140d9565b91505092959891949750929550565b60006020828403121561477257614771614050565b5b6000614780848285016140d9565b91505092915050565b6147928161407a565b82525050565b600081519050919050565b600082825260208201905092915050565b6000819050602082019050919050565b60006147d083836142c0565b60208301905092915050565b6000602082019050919050565b60006147f482614798565b6147fe81856147a3565b9350614809836147b4565b8060005b8381101561483a57815161482188826147c4565b975061482c836147dc565b92505060018101905061480d565b5085935050505092915050565b600081519050919050565b600082825260208201905092915050565b6000819050602082019050919050565b600061487f838361423a565b60208301905092915050565b6000602082019050919050565b60006148a382614847565b6148ad8185614852565b93506148b883614863565b8060005b838110156148e95781516148d08882614873565b97506148db8361488b565b9250506001810190506148bc565b5085935050505092915050565b60006101808201905061490c600083018f614164565b614919602083018e614789565b818103604083015261492b818d613feb565b9050818103606083015261493f818c613feb565b90508181036080830152614953818b613feb565b905081810360a0830152614967818a613feb565b905061497660c0830189614164565b61498360e0830188614164565b614991610100830187614164565b61499f610120830186614164565b8181036101408301526149b281856147e9565b90508181036101608301526149c78184614898565b90509d9c50505050505050505050505050565b600081519050919050565b600082825260208201905092915050565b6000819050602082019050919050565b600082825260208201905092915050565b6000614a2282614798565b614a2c8185614a06565b9350614a37836147b4565b8060005b83811015614a68578151614a4f88826147c4565b9750614a5a836147dc565b925050600181019050614a3b565b5085935050505092915050565b600082825260208201905092915050565b6000614a9182614847565b614a9b8185614a75565b9350614aa683614863565b8060005b83811015614ad7578151614abe8882614873565b9750614ac98361488b565b925050600181019050614aaa565b5085935050505092915050565b600061018083016000830151614afd600086018261423a565b506020830151614b1060208601826142c0565b5060408301518482036040860152614b2882826142e0565b91505060608301518482036060860152614b4282826142e0565b91505060808301518482036080860152614b5c82826142e0565b91505060a083015184820360a0860152614b7682826142e0565b91505060c0830151614b8b60c086018261423a565b5060e0830151614b9e60e086018261423a565b50610100830151614bb361010086018261423a565b50610120830151614bc861012086018261423a565b50610140830151848203610140860152614be28282614a17565b915050610160830151848203610160860152614bfe8282614a86565b9150508091505092915050565b6000614c178383614ae4565b905092915050565b6000602082019050919050565b6000614c37826149da565b614c4181856149e5565b935083602082028501614c53856149f6565b8060005b85811015614c8f5784840389528151614c708582614c0b565b9450614c7b83614c1f565b925060208a01995050600181019050614c57565b50829750879550505050505092915050565b60006020820190508181036000830152614cbb8184614c2c565b905092915050565b60008060408385031215614cda57614cd9614050565b5b6000614ce8858286016140a3565b9250506020614cf9858286016140a3565b9150509250929050565b60006040820190508181036000830152614d1d81856147e9565b90508181036020830152614d318184614898565b90509392505050565b60088110614d4757600080fd5b50565b600081359050614d5981614d3a565b92915050565b600080600060608486031215614d7857614d77614050565b5b6000614d86868287016140a3565b9350506020614d9786828701614d4a565b925050604084013567ffffffffffffffff811115614db857614db7614055565b5b614dc48682870161461c565b9150509250925092565b7f4e487b7100000000000000000000000000000000000000000000000000000000600052602260045260246000fd5b60006002820490506001821680614e1557607f821691505b602082108103614e2857614e27614dce565b5b50919050565b7f4e487b7100000000000000000000000000000000000000000000000000000000600052603260045260246000fd5b7f4e487b7100000000000000000000000000000000000000000000000000000000600052601160045260246000fd5b6000614e97826140b8565b91507fffffffffffffffffffffffffffffffffffffffffffffffffffffffffffffffff8203614ec957614ec8614e5d565b5b600182019050919050565b6000614edf826140b8565b9150614eea836140b8565b9250828201905080821115614f0257614f01614e5d565b5b92915050565b7f43616c6c6572206973206e6f7420616e206f7267616e697a6174696f6e000000600082015250565b6000614f3e601d83613f9f565b9150614f4982614f08565b602082019050919050565b60006020820190508181036000830152614f6d81614f31565b9050919050565b60008190508160005260206000209050919050565b60006020601f8301049050919050565b600082821b905092915050565b600060088302614fd67fffffffffffffffffffffffffffffffffffffffffffffffffffffffffffffffff82614f99565b614fe08683614f99565b95508019841693508086168417925050509392505050565b6000819050919050565b600061501d615018615013846140b8565b614ff8565b6140b8565b9050919050565b6000819050919050565b61503783615002565b61504b61504382615024565b848454614fa6565b825550505050565b600090565b615060615053565b61506b81848461502e565b505050565b5b8181101561508f57615084600082615058565b600181019050615071565b5050565b601f8211156150d4576150a581614f74565b6150ae84614f89565b810160208510156150bd578190505b6150d16150c985614f89565b830182615070565b50505b505050565b600082821c905092915050565b60006150f7600019846008026150d9565b1980831691505092915050565b600061511083836150e6565b9150826002028217905092915050565b61512982613f94565b67ffffffffffffffff8111156151425761514161451f565b5b61514c8254614dfd565b615157828285615093565b600060209050601f83116001811461518a5760008415615178578287015190505b6151828582615104565b8655506151ea565b601f19841661519886614f74565b60005b828110156151c05784890151825560018201915060208501945060208101905061519b565b868310156151dd57848901516151d9601f8916826150e6565b8355505b6001600288020188555050505b505050505050565b7f546865207370656369666965642063616d706169676e20494420646f6573206e60008201527f6f74206578697374000000000000000000000000000000000000000000000000602082015250565b600061524e602883613f9f565b9150615259826151f2565b604082019050919050565b6000602082019050818103600083015261527d81615241565b9050919050565b7f506f75636820494420646f6573206e6f74206578697374000000000000000000600082015250565b60006152ba601783613f9f565b91506152c582615284565b602082019050919050565b600060208201905081810360008301526152e9816152ad565b9050919050565b7f506f75636820616c726561647920686173206120726563656976657200000000600082015250565b6000615326601c83613f9f565b9150615331826152f0565b602082019050919050565b6000602082019050818103600083015261535581615319565b9050919050565b60008160011c9050919050565b6000808291508390505b60018511156153b35780860481111561538f5761538e614e5d565b5b600185161561539e5780820291505b80810290506153ac8561535c565b9450615373565b94509492505050565b6000826153cc5760019050615488565b816153da5760009050615488565b81600181146153f057600281146153fa57615429565b6001915050615488565b60ff84111561540c5761540b614e5d565b5b8360020a91508482111561542357615422614e5d565b5b50615488565b5060208310610133831016604e8410600b841016171561545e5782820a90508381111561545957615458614e5d565b5b615488565b61546b8484846001615369565b9250905081840481111561548257615481614e5d565b5b81810290505b9392505050565b600061549a826140b8565b91506154a5836144de565b92506154d27fffffffffffffffffffffffffffffffffffffffffffffffffffffffffffffffff84846153bc565b905092915050565b60006154e5826140b8565b91506154f0836140b8565b92508282026154fe816140b8565b9150828204841483151761551557615514614e5d565b5b5092915050565b7f45524332303a2064656372656173656420616c6c6f77616e63652062656c6f7760008201527f207a65726f000000000000000000000000000000000000000000000000000000602082015250565b6000615578602583613f9f565b91506155838261551c565b604082019050919050565b600060208201905081810360008301526155a78161556b565b9050919050565b7f4f6e6c792061646d696e2063616e20616464206f7267616e697a6174696f6e00600082015250565b60006155e4601f83613f9f565b91506155ef826155ae565b602082019050919050565b60006020820190508181036000830152615613816155d7565b9050919050565b6156238161429f565b82525050565b61563281614340565b82525050565b60006101208201905061564e600083018c614164565b61565b602083018b614789565b615668604083018a61561a565b6156756060830189614789565b6156826080830188614789565b81810360a08301526156948187613feb565b90506156a360c0830186614164565b6156b060e0830185614164565b6156be610100830184615629565b9a9950505050505050505050565b7f45524332303a20617070726f76652066726f6d20746865207a65726f2061646460008201527f7265737300000000000000000000000000000000000000000000000000000000602082015250565b6000615728602483613f9f565b9150615733826156cc565b604082019050919050565b600060208201905081810360008301526157578161571b565b9050919050565b7f45524332303a20617070726f766520746f20746865207a65726f20616464726560008201527f7373000000000000000000000000000000000000000000000000000000000000602082015250565b60006157ba602283613f9f565b91506157c58261575e565b604082019050919050565b600060208201905081810360008301526157e9816157ad565b9050919050565b7f45524332303a20696e73756666696369656e7420616c6c6f77616e6365000000600082015250565b6000615826601d83613f9f565b9150615831826157f0565b602082019050919050565b6000602082019050818103600083015261585581615819565b9050919050565b7f45524332303a207472616e736665722066726f6d20746865207a65726f20616460008201527f6472657373000000000000000000000000000000000000000000000000000000602082015250565b60006158b8602583613f9f565b91506158c38261585c565b604082019050919050565b600060208201905081810360008301526158e7816158ab565b9050919050565b7f45524332303a207472616e7366657220746f20746865207a65726f206164647260008201527f6573730000000000000000000000000000000000000000000000000000000000602082015250565b600061594a602383613f9f565b9150615955826158ee565b604082019050919050565b600060208201905081810360008301526159798161593d565b9050919050565b7f45524332303a207472616e7366657220616d6f756e742065786365656473206260008201527f616c616e63650000000000000000000000000000000000000000000000000000602082015250565b60006159dc602683613f9f565b91506159e782615980565b604082019050919050565b60006020820190508181036000830152615a0b816159cf565b9050919050565b7f45524332303a206d696e7420746f20746865207a65726f206164647265737300600082015250565b6000615a48601f83613f9f565b9150615a5382615a12565b602082019050919050565b60006020820190508181036000830152615a7781615a3b565b905091905056fea26469706673582212209e735015b46fbc787745d86b820f74e4800a6383405de3016d45ccf324ea5fef64736f6c63430008120033",
  "linkReferences": {},
  "deployedLinkReferences": {}
}