{
  "_format": "hh-sol-artifact-1",
  "contractName": "BloodDonation",
  "sourceName": "contracts/BloodDonation.sol",
  "abi": [
    {
      "inputs": [],
      "stateMutability": "nonpayable",
      "type": "constructor"
    },
    {
      "anonymous": false,
      "inputs": [
        {
          "indexed": true,
          "internalType": "address",
          "name": "owner",
          "type": "address"
        },
        {
          "indexed": true,
          "internalType": "address",
          "name": "spender",
          "type": "address"
        },
        {
          "indexed": false,
          "internalType": "uint256",
          "name": "value",
          "type": "uint256"
        }
      ],
      "name": "Approval",
      "type": "event"
    },
    {
      "anonymous": false,
      "inputs": [
        {
          "indexed": false,
          "internalType": "uint256",
          "name": "pouchID",
          "type": "uint256"
        },
        {
          "indexed": false,
          "internalType": "address",
          "name": "donorID",
          "type": "address"
        },
        {
          "indexed": false,
          "internalType": "enum BloodDonation.BloodGroup",
          "name": "bloodGroup",
          "type": "uint8"
        },
        {
          "indexed": false,
          "internalType": "address",
          "name": "receiverID",
          "type": "address"
        },
        {
          "indexed": false,
          "internalType": "address",
          "name": "guardianID",
          "type": "address"
        },
        {
          "indexed": false,
          "internalType": "string",
          "name": "details",
          "type": "string"
        },
        {
          "indexed": false,
          "internalType": "uint256",
          "name": "publishDate",
          "type": "uint256"
        },
        {
          "indexed": false,
          "internalType": "uint256",
          "name": "receivedDate",
          "type": "uint256"
        },
        {
          "indexed": false,
          "internalType": "enum BloodDonation.BloodStatus",
          "name": "status",
          "type": "uint8"
        }
      ],
      "name": "BloodPouchCreated",
      "type": "event"
    },
    {
      "anonymous": false,
      "inputs": [
        {
          "indexed": true,
          "internalType": "address",
          "name": "from",
          "type": "address"
        },
        {
          "indexed": true,
          "internalType": "address",
          "name": "to",
          "type": "address"
        },
        {
          "indexed": false,
          "internalType": "uint256",
          "name": "value",
          "type": "uint256"
        }
      ],
      "name": "Transfer",
      "type": "event"
    },
    {
      "inputs": [
        {
          "internalType": "address",
          "name": "_adminAddress",
          "type": "address"
        }
      ],
      "name": "addGuardian",
      "outputs": [],
      "stateMutability": "nonpayable",
      "type": "function"
    },
    {
      "inputs": [
        {
          "internalType": "address",
          "name": "owner",
          "type": "address"
        },
        {
          "internalType": "address",
          "name": "spender",
          "type": "address"
        }
      ],
      "name": "allowance",
      "outputs": [
        {
          "internalType": "uint256",
          "name": "",
          "type": "uint256"
        }
      ],
      "stateMutability": "view",
      "type": "function"
    },
    {
      "inputs": [
        {
          "internalType": "address",
          "name": "spender",
          "type": "address"
        },
        {
          "internalType": "uint256",
          "name": "amount",
          "type": "uint256"
        }
      ],
      "name": "approve",
      "outputs": [
        {
          "internalType": "bool",
          "name": "",
          "type": "bool"
        }
      ],
      "stateMutability": "nonpayable",
      "type": "function"
    },
    {
      "inputs": [
        {
          "internalType": "uint256",
          "name": "_pouchID",
          "type": "uint256"
        }
      ],
      "name": "assignReceiver",
      "outputs": [],
      "stateMutability": "payable",
      "type": "function"
    },
    {
      "inputs": [
        {
          "internalType": "address",
          "name": "account",
          "type": "address"
        }
      ],
      "name": "balanceOf",
      "outputs": [
        {
          "internalType": "uint256",
          "name": "",
          "type": "uint256"
        }
      ],
      "stateMutability": "view",
      "type": "function"
    },
    {
      "inputs": [
        {
          "internalType": "address",
          "name": "_owner",
          "type": "address"
        },
        {
          "internalType": "string",
          "name": "_title",
          "type": "string"
        },
        {
          "internalType": "string",
          "name": "_description",
          "type": "string"
        },
        {
          "internalType": "string",
          "name": "_imageId",
          "type": "string"
        },
        {
          "internalType": "string",
          "name": "_videoId",
          "type": "string"
        },
        {
          "internalType": "uint256",
          "name": "_targetAmount",
          "type": "uint256"
        },
        {
          "internalType": "uint256",
          "name": "_deadlineDate",
          "type": "uint256"
        }
      ],
      "name": "createCampaign",
      "outputs": [
        {
          "internalType": "uint256",
          "name": "",
          "type": "uint256"
        }
      ],
      "stateMutability": "nonpayable",
      "type": "function"
    },
    {
      "inputs": [],
      "name": "decimals",
      "outputs": [
        {
          "internalType": "uint8",
          "name": "",
          "type": "uint8"
        }
      ],
      "stateMutability": "view",
      "type": "function"
    },
    {
      "inputs": [
        {
          "internalType": "address",
          "name": "spender",
          "type": "address"
        },
        {
          "internalType": "uint256",
          "name": "subtractedValue",
          "type": "uint256"
        }
      ],
      "name": "decreaseAllowance",
      "outputs": [
        {
          "internalType": "bool",
          "name": "",
          "type": "bool"
        }
      ],
      "stateMutability": "nonpayable",
      "type": "function"
    },
    {
      "inputs": [
        {
          "internalType": "uint256",
          "name": "_id",
          "type": "uint256"
        }
      ],
      "name": "donateToCampaign",
      "outputs": [],
      "stateMutability": "payable",
      "type": "function"
    },
    {
      "inputs": [
        {
          "internalType": "address",
          "name": "_donorID",
          "type": "address"
        },
        {
          "internalType": "enum BloodDonation.BloodGroup",
          "name": "_bloodGroup",
          "type": "uint8"
        },
        {
          "internalType": "string",
          "name": "_details",
          "type": "string"
        }
      ],
      "name": "enterBloodDetails",
      "outputs": [
        {
          "internalType": "uint256",
          "name": "",
          "type": "uint256"
        }
      ],
      "stateMutability": "nonpayable",
      "type": "function"
    },
    {
      "inputs": [],
      "name": "getAllActiveCampaigns",
      "outputs": [
        {
          "components": [
            {
              "internalType": "uint256",
              "name": "id",
              "type": "uint256"
            },
            {
              "internalType": "address",
              "name": "owner",
              "type": "address"
            },
            {
              "internalType": "string",
              "name": "title",
              "type": "string"
            },
            {
              "internalType": "string",
              "name": "description",
              "type": "string"
            },
            {
              "internalType": "string",
              "name": "imageId",
              "type": "string"
            },
            {
              "internalType": "string",
              "name": "videoId",
              "type": "string"
            },
            {
              "internalType": "uint256",
              "name": "targetAmount",
              "type": "uint256"
            },
            {
              "internalType": "uint256",
              "name": "collectedAmount",
              "type": "uint256"
            },
            {
              "internalType": "uint256",
              "name": "creationDate",
              "type": "uint256"
            },
            {
              "internalType": "uint256",
              "name": "deadlineDate",
              "type": "uint256"
            },
            {
              "internalType": "address[]",
              "name": "donators",
              "type": "address[]"
            },
            {
              "internalType": "uint256[]",
              "name": "donations",
              "type": "uint256[]"
            }
          ],
          "internalType": "struct BloodDonation.Campaign[]",
          "name": "",
          "type": "tuple[]"
        }
      ],
      "stateMutability": "view",
      "type": "function"
    },
    {
      "inputs": [],
      "name": "getAllAvailablePouches",
      "outputs": [
        {
          "components": [
            {
              "internalType": "uint256",
              "name": "pouchID",
              "type": "uint256"
            },
            {
              "internalType": "enum BloodDonation.BloodGroup",
              "name": "bloodGroup",
              "type": "uint8"
            },
            {
              "internalType": "address",
              "name": "donorID",
              "type": "address"
            },
            {
              "internalType": "address",
              "name": "guardianID",
              "type": "address"
            },
            {
              "internalType": "address",
              "name": "receiverID",
              "type": "address"
            },
            {
              "internalType": "string",
              "name": "details",
              "type": "string"
            },
            {
              "internalType": "uint256",
              "name": "publishDate",
              "type": "uint256"
            },
            {
              "internalType": "uint256",
              "name": "receivedDate",
              "type": "uint256"
            },
            {
              "internalType": "enum BloodDonation.BloodStatus",
              "name": "status",
              "type": "uint8"
            }
          ],
          "internalType": "struct BloodDonation.BloodPouch[]",
          "name": "",
          "type": "tuple[]"
        }
      ],
      "stateMutability": "view",
      "type": "function"
    },
    {
      "inputs": [
        {
          "internalType": "uint256",
          "name": "_id",
          "type": "uint256"
        }
      ],
      "name": "getCampaign",
      "outputs": [
        {
          "internalType": "uint256",
          "name": "id",
          "type": "uint256"
        },
        {
          "internalType": "address",
          "name": "owner",
          "type": "address"
        },
        {
          "internalType": "string",
          "name": "title",
          "type": "string"
        },
        {
          "internalType": "string",
          "name": "description",
          "type": "string"
        },
        {
          "internalType": "string",
          "name": "imageId",
          "type": "string"
        },
        {
          "internalType": "string",
          "name": "videoId",
          "type": "string"
        },
        {
          "internalType": "uint256",
          "name": "targetAmount",
          "type": "uint256"
        },
        {
          "internalType": "uint256",
          "name": "collectedAmount",
          "type": "uint256"
        },
        {
          "internalType": "uint256",
          "name": "creationDate",
          "type": "uint256"
        },
        {
          "internalType": "uint256",
          "name": "deadlineDate",
          "type": "uint256"
        },
        {
          "internalType": "address[]",
          "name": "donators",
          "type": "address[]"
        },
        {
          "internalType": "uint256[]",
          "name": "donations",
          "type": "uint256[]"
        }
      ],
      "stateMutability": "view",
      "type": "function"
    },
    {
      "inputs": [
        {
          "internalType": "uint256",
          "name": "_id",
          "type": "uint256"
        }
      ],
      "name": "getCampaignDonators",
      "outputs": [
        {
          "internalType": "address[]",
          "name": "",
          "type": "address[]"
        },
        {
          "internalType": "uint256[]",
          "name": "",
          "type": "uint256[]"
        }
      ],
      "stateMutability": "view",
      "type": "function"
    },
    {
      "inputs": [],
      "name": "getMyCampaigns",
      "outputs": [
        {
          "components": [
            {
              "internalType": "uint256",
              "name": "id",
              "type": "uint256"
            },
            {
              "internalType": "address",
              "name": "owner",
              "type": "address"
            },
            {
              "internalType": "string",
              "name": "title",
              "type": "string"
            },
            {
              "internalType": "string",
              "name": "description",
              "type": "string"
            },
            {
              "internalType": "string",
              "name": "imageId",
              "type": "string"
            },
            {
              "internalType": "string",
              "name": "videoId",
              "type": "string"
            },
            {
              "internalType": "uint256",
              "name": "targetAmount",
              "type": "uint256"
            },
            {
              "internalType": "uint256",
              "name": "collectedAmount",
              "type": "uint256"
            },
            {
              "internalType": "uint256",
              "name": "creationDate",
              "type": "uint256"
            },
            {
              "internalType": "uint256",
              "name": "deadlineDate",
              "type": "uint256"
            },
            {
              "internalType": "address[]",
              "name": "donators",
              "type": "address[]"
            },
            {
              "internalType": "uint256[]",
              "name": "donations",
              "type": "uint256[]"
            }
          ],
          "internalType": "struct BloodDonation.Campaign[]",
          "name": "",
          "type": "tuple[]"
        }
      ],
      "stateMutability": "view",
      "type": "function"
    },
    {
      "inputs": [
        {
          "internalType": "address",
          "name": "_owner",
          "type": "address"
        }
      ],
      "name": "getMyPouches",
      "outputs": [
        {
          "components": [
            {
              "internalType": "uint256",
              "name": "pouchID",
              "type": "uint256"
            },
            {
              "internalType": "enum BloodDonation.BloodGroup",
              "name": "bloodGroup",
              "type": "uint8"
            },
            {
              "internalType": "address",
              "name": "donorID",
              "type": "address"
            },
            {
              "internalType": "address",
              "name": "guardianID",
              "type": "address"
            },
            {
              "internalType": "address",
              "name": "receiverID",
              "type": "address"
            },
            {
              "internalType": "string",
              "name": "details",
              "type": "string"
            },
            {
              "internalType": "uint256",
              "name": "publishDate",
              "type": "uint256"
            },
            {
              "internalType": "uint256",
              "name": "receivedDate",
              "type": "uint256"
            },
            {
              "internalType": "enum BloodDonation.BloodStatus",
              "name": "status",
              "type": "uint8"
            }
          ],
          "internalType": "struct BloodDonation.BloodPouch[]",
          "name": "",
          "type": "tuple[]"
        }
      ],
      "stateMutability": "view",
      "type": "function"
    },
    {
      "inputs": [
        {
          "internalType": "address",
          "name": "_receiver",
          "type": "address"
        }
      ],
      "name": "getReceivedPouches",
      "outputs": [
        {
          "components": [
            {
              "internalType": "uint256",
              "name": "pouchID",
              "type": "uint256"
            },
            {
              "internalType": "enum BloodDonation.BloodGroup",
              "name": "bloodGroup",
              "type": "uint8"
            },
            {
              "internalType": "address",
              "name": "donorID",
              "type": "address"
            },
            {
              "internalType": "address",
              "name": "guardianID",
              "type": "address"
            },
            {
              "internalType": "address",
              "name": "receiverID",
              "type": "address"
            },
            {
              "internalType": "string",
              "name": "details",
              "type": "string"
            },
            {
              "internalType": "uint256",
              "name": "publishDate",
              "type": "uint256"
            },
            {
              "internalType": "uint256",
              "name": "receivedDate",
              "type": "uint256"
            },
            {
              "internalType": "enum BloodDonation.BloodStatus",
              "name": "status",
              "type": "uint8"
            }
          ],
          "internalType": "struct BloodDonation.BloodPouch[]",
          "name": "",
          "type": "tuple[]"
        }
      ],
      "stateMutability": "view",
      "type": "function"
    },
    {
      "inputs": [
        {
          "internalType": "address",
          "name": "spender",
          "type": "address"
        },
        {
          "internalType": "uint256",
          "name": "addedValue",
          "type": "uint256"
        }
      ],
      "name": "increaseAllowance",
      "outputs": [
        {
          "internalType": "bool",
          "name": "",
          "type": "bool"
        }
      ],
      "stateMutability": "nonpayable",
      "type": "function"
    },
    {
      "inputs": [
        {
          "internalType": "address",
          "name": "_account",
          "type": "address"
        }
      ],
      "name": "isAdmin",
      "outputs": [
        {
          "internalType": "bool",
          "name": "",
          "type": "bool"
        }
      ],
      "stateMutability": "view",
      "type": "function"
    },
    {
      "inputs": [
        {
          "internalType": "address",
          "name": "_account",
          "type": "address"
        }
      ],
      "name": "isGuardian",
      "outputs": [
        {
          "internalType": "bool",
          "name": "",
          "type": "bool"
        }
      ],
      "stateMutability": "view",
      "type": "function"
    },
    {
      "inputs": [],
      "name": "name",
      "outputs": [
        {
          "internalType": "string",
          "name": "",
          "type": "string"
        }
      ],
      "stateMutability": "view",
      "type": "function"
    },
    {
      "inputs": [],
      "name": "symbol",
      "outputs": [
        {
          "internalType": "string",
          "name": "",
          "type": "string"
        }
      ],
      "stateMutability": "view",
      "type": "function"
    },
    {
      "inputs": [],
      "name": "totalSupply",
      "outputs": [
        {
          "internalType": "uint256",
          "name": "",
          "type": "uint256"
        }
      ],
      "stateMutability": "view",
      "type": "function"
    },
    {
      "inputs": [
        {
          "internalType": "address",
          "name": "to",
          "type": "address"
        },
        {
          "internalType": "uint256",
          "name": "amount",
          "type": "uint256"
        }
      ],
      "name": "transfer",
      "outputs": [
        {
          "internalType": "bool",
          "name": "",
          "type": "bool"
        }
      ],
      "stateMutability": "nonpayable",
      "type": "function"
    },
    {
      "inputs": [
        {
          "internalType": "address",
          "name": "from",
          "type": "address"
        },
        {
          "internalType": "address",
          "name": "to",
          "type": "address"
        },
        {
          "internalType": "uint256",
          "name": "amount",
          "type": "uint256"
        }
      ],
      "name": "transferFrom",
      "outputs": [
        {
          "internalType": "bool",
          "name": "",
          "type": "bool"
        }
      ],
      "stateMutability": "nonpayable",
      "type": "function"
    }
  ],
  "bytecode": "0x60806040523480156200001157600080fd5b506040518060400160405280600c81526020017f534f4349414c20544f4b454e00000000000000000000000000000000000000008152506040518060400160405280600681526020017f534f4349414c000000000000000000000000000000000000000000000000000081525081600390816200008f9190620003bd565b508060049081620000a19190620003bd565b50505033600960006101000a81548173ffffffffffffffffffffffffffffffffffffffff021916908373ffffffffffffffffffffffffffffffffffffffff1602179055506001600a60003373ffffffffffffffffffffffffffffffffffffffff1673ffffffffffffffffffffffffffffffffffffffff16815260200190815260200160002060006101000a81548160ff021916908315150217905550620004a4565b600081519050919050565b7f4e487b7100000000000000000000000000000000000000000000000000000000600052604160045260246000fd5b7f4e487b7100000000000000000000000000000000000000000000000000000000600052602260045260246000fd5b60006002820490506001821680620001c557607f821691505b602082108103620001db57620001da6200017d565b5b50919050565b60008190508160005260206000209050919050565b60006020601f8301049050919050565b600082821b905092915050565b600060088302620002457fffffffffffffffffffffffffffffffffffffffffffffffffffffffffffffffff8262000206565b62000251868362000206565b95508019841693508086168417925050509392505050565b6000819050919050565b6000819050919050565b60006200029e62000298620002928462000269565b62000273565b62000269565b9050919050565b6000819050919050565b620002ba836200027d565b620002d2620002c982620002a5565b84845462000213565b825550505050565b600090565b620002e9620002da565b620002f6818484620002af565b505050565b5b818110156200031e5762000312600082620002df565b600181019050620002fc565b5050565b601f8211156200036d576200033781620001e1565b6200034284620001f6565b8101602085101562000352578190505b6200036a6200036185620001f6565b830182620002fb565b50505b505050565b600082821c905092915050565b6000620003926000198460080262000372565b1980831691505092915050565b6000620003ad83836200037f565b9150826002028217905092915050565b620003c88262000143565b67ffffffffffffffff811115620003e457620003e36200014e565b5b620003f08254620001ac565b620003fd82828562000322565b600060209050601f83116001811462000435576000841562000420578287015190505b6200042c85826200039f565b8655506200049c565b601f1984166200044586620001e1565b60005b828110156200046f5784890151825560018201915060208501945060208101905062000448565b868310156200048f57848901516200048b601f8916826200037f565b8355505b6001600288020188555050505b505050505050565b615a5580620004b46000396000f3fe6080604052600436106101665760003560e01c80634b89869f116100d157806395d89b411161008a578063a9059cbb11610064578063a9059cbb146105a3578063dd62ed3e146105e0578063e6ea7dcc1461061d578063e75d3a951461065b57610166565b806395d89b4114610512578063a457c2d71461053d578063a526d83b1461057a57610166565b80634b89869f146103f05780635598f8cc1461041b5780635cc3224e146104635780636e42afbe1461048e57806370a08231146104aa57806382bea0ca146104e757610166565b806325f3548a1161012357806325f3548a146102b5578063313ce567146102f257806336dd86961461031d578063395093511461035a57806339c3fb751461039757806342a4fda8146103d457610166565b806306fdde031461016b578063095ea7b3146101965780630c68ba21146101d357806318160ddd1461021057806323b872dd1461023b57806324d7806c14610278575b600080fd5b34801561017757600080fd5b50610180610698565b60405161018d9190613fc5565b60405180910390f35b3480156101a257600080fd5b506101bd60048036038101906101b8919061408f565b61072a565b6040516101ca91906140ea565b60405180910390f35b3480156101df57600080fd5b506101fa60048036038101906101f59190614105565b61074d565b60405161020791906140ea565b60405180910390f35b34801561021c57600080fd5b506102256107a3565b6040516102329190614141565b60405180910390f35b34801561024757600080fd5b50610262600480360381019061025d919061415c565b6107ad565b60405161026f91906140ea565b60405180910390f35b34801561028457600080fd5b5061029f600480360381019061029a9190614105565b6107dc565b6040516102ac91906140ea565b60405180910390f35b3480156102c157600080fd5b506102dc60048036038101906102d79190614105565b610836565b6040516102e9919061445d565b60405180910390f35b3480156102fe57600080fd5b50610307610c4c565b604051610314919061449b565b60405180910390f35b34801561032957600080fd5b50610344600480360381019061033f9190614105565b610c55565b604051610351919061445d565b60405180910390f35b34801561036657600080fd5b50610381600480360381019061037c919061408f565b611053565b60405161038e91906140ea565b60405180910390f35b3480156103a357600080fd5b506103be60048036038101906103b991906145eb565b61108a565b6040516103cb9190614141565b60405180910390f35b6103ee60048036038101906103e991906146fd565b61136c565b005b3480156103fc57600080fd5b5061040561157c565b604051610412919061445d565b60405180910390f35b34801561042757600080fd5b50610442600480360381019061043d91906146fd565b611944565b60405161045a9c9b9a99989796959493929190614897565b60405180910390f35b34801561046f57600080fd5b50610478611e3c565b6040516104859190614c42565b60405180910390f35b6104a860048036038101906104a391906146fd565b612388565b005b3480156104b657600080fd5b506104d160048036038101906104cc9190614105565b6125e6565b6040516104de9190614141565b60405180910390f35b3480156104f357600080fd5b506104fc61262e565b6040516105099190614c42565b60405180910390f35b34801561051e57600080fd5b50610527612c30565b6040516105349190613fc5565b60405180910390f35b34801561054957600080fd5b50610564600480360381019061055f919061408f565b612cc2565b60405161057191906140ea565b60405180910390f35b34801561058657600080fd5b506105a1600480360381019061059c9190614105565b612d39565b005b3480156105af57600080fd5b506105ca60048036038101906105c5919061408f565b612e24565b6040516105d791906140ea565b60405180910390f35b3480156105ec57600080fd5b5061060760048036038101906106029190614c64565b612e47565b6040516106149190614141565b60405180910390f35b34801561062957600080fd5b50610644600480360381019061063f91906146fd565b612ece565b604051610652929190614ca4565b60405180910390f35b34801561066757600080fd5b50610682600480360381019061067d9190614d00565b613365565b60405161068f9190614141565b60405180910390f35b6060600380546106a790614d9e565b80601f01602080910402602001604051908101604052809291908181526020018280546106d390614d9e565b80156107205780601f106106f557610100808354040283529160200191610720565b820191906000526020600020905b81548152906001019060200180831161070357829003601f168201915b5050505050905090565b6000806107356136e5565b90506107428185856136ed565b600191505092915050565b6000600a60008373ffffffffffffffffffffffffffffffffffffffff1673ffffffffffffffffffffffffffffffffffffffff16815260200190815260200160002060009054906101000a900460ff169050919050565b6000600254905090565b6000806107b86136e5565b90506107c58582856138b6565b6107d0858585613942565b60019150509392505050565b6000600960009054906101000a900473ffffffffffffffffffffffffffffffffffffffff1673ffffffffffffffffffffffffffffffffffffffff168273ffffffffffffffffffffffffffffffffffffffff16149050919050565b6060600060085467ffffffffffffffff811115610856576108556144c0565b5b60405190808252806020026020018201604052801561088f57816020015b61087c613d18565b8152602001906001900390816108745790505b5090506000805b600854811015610b90578473ffffffffffffffffffffffffffffffffffffffff166006600083815260200190815260200160002060030160009054906101000a900473ffffffffffffffffffffffffffffffffffffffff1673ffffffffffffffffffffffffffffffffffffffff1603610b7d576006600082815260200190815260200160002060405180610120016040529081600082015481526020016001820160009054906101000a900460ff166007811115610957576109566141ea565b5b6007811115610969576109686141ea565b5b81526020016001820160019054906101000a900473ffffffffffffffffffffffffffffffffffffffff1673ffffffffffffffffffffffffffffffffffffffff1673ffffffffffffffffffffffffffffffffffffffff1681526020016002820160009054906101000a900473ffffffffffffffffffffffffffffffffffffffff1673ffffffffffffffffffffffffffffffffffffffff1673ffffffffffffffffffffffffffffffffffffffff1681526020016003820160009054906101000a900473ffffffffffffffffffffffffffffffffffffffff1673ffffffffffffffffffffffffffffffffffffffff1673ffffffffffffffffffffffffffffffffffffffff168152602001600482018054610a7f90614d9e565b80601f0160208091040260200160405190810160405280929190818152602001828054610aab90614d9e565b8015610af85780601f10610acd57610100808354040283529160200191610af8565b820191906000526020600020905b815481529060010190602001808311610adb57829003601f168201915b5050505050815260200160058201548152602001600682015481526020016007820160009054906101000a900460ff166002811115610b3a57610b396141ea565b5b6002811115610b4c57610b4b6141ea565b5b81525050838381518110610b6357610b62614dcf565b5b60200260200101819052508180610b7990614e2d565b9250505b8080610b8890614e2d565b915050610896565b5060008167ffffffffffffffff811115610bad57610bac6144c0565b5b604051908082528060200260200182016040528015610be657816020015b610bd3613d18565b815260200190600190039081610bcb5790505b50905060005b82811015610c4057838181518110610c0757610c06614dcf565b5b6020026020010151828281518110610c2257610c21614dcf565b5b60200260200101819052508080610c3890614e2d565b915050610bec565b50809350505050919050565b60006012905090565b60606000805b600854811015610cf0578373ffffffffffffffffffffffffffffffffffffffff166006600083815260200190815260200160002060010160019054906101000a900473ffffffffffffffffffffffffffffffffffffffff1673ffffffffffffffffffffffffffffffffffffffff1603610cdd578180610cd990614e2d565b9250505b8080610ce890614e2d565b915050610c5b565b5060008167ffffffffffffffff811115610d0d57610d0c6144c0565b5b604051908082528060200260200182016040528015610d4657816020015b610d33613d18565b815260200190600190039081610d2b5790505b5090506000805b600854811015611047578573ffffffffffffffffffffffffffffffffffffffff166006600083815260200190815260200160002060010160019054906101000a900473ffffffffffffffffffffffffffffffffffffffff1673ffffffffffffffffffffffffffffffffffffffff1603611034576006600082815260200190815260200160002060405180610120016040529081600082015481526020016001820160009054906101000a900460ff166007811115610e0e57610e0d6141ea565b5b6007811115610e2057610e1f6141ea565b5b81526020016001820160019054906101000a900473ffffffffffffffffffffffffffffffffffffffff1673ffffffffffffffffffffffffffffffffffffffff1673ffffffffffffffffffffffffffffffffffffffff1681526020016002820160009054906101000a900473ffffffffffffffffffffffffffffffffffffffff1673ffffffffffffffffffffffffffffffffffffffff1673ffffffffffffffffffffffffffffffffffffffff1681526020016003820160009054906101000a900473ffffffffffffffffffffffffffffffffffffffff1673ffffffffffffffffffffffffffffffffffffffff1673ffffffffffffffffffffffffffffffffffffffff168152602001600482018054610f3690614d9e565b80601f0160208091040260200160405190810160405280929190818152602001828054610f6290614d9e565b8015610faf5780601f10610f8457610100808354040283529160200191610faf565b820191906000526020600020905b815481529060010190602001808311610f9257829003601f168201915b5050505050815260200160058201548152602001600682015481526020016007820160009054906101000a900460ff166002811115610ff157610ff06141ea565b5b6002811115611003576110026141ea565b5b8152505083838151811061101a57611019614dcf565b5b6020026020010181905250818061103090614e2d565b9250505b808061103f90614e2d565b915050610d4d565b50819350505050919050565b60008061105e6136e5565b905061107f8185856110708589612e47565b61107a9190614e75565b6136ed565b600191505092915050565b6000600a60003373ffffffffffffffffffffffffffffffffffffffff1673ffffffffffffffffffffffffffffffffffffffff16815260200190815260200160002060009054906101000a900460ff16611118576040517f08c379a000000000000000000000000000000000000000000000000000000000815260040161110f90614ef5565b60405180910390fd5b6000600754905060006040518061018001604052808381526020018b73ffffffffffffffffffffffffffffffffffffffff1681526020018a815260200189815260200188815260200187815260200186815260200160008152602001428152602001858152602001600067ffffffffffffffff81111561119b5761119a6144c0565b5b6040519080825280602002602001820160405280156111c95781602001602082028036833780820191505090505b508152602001600067ffffffffffffffff8111156111ea576111e96144c0565b5b6040519080825280602002602001820160405280156112185781602001602082028036833780820191505090505b50815250905080600560008481526020019081526020016000206000820151816000015560208201518160010160006101000a81548173ffffffffffffffffffffffffffffffffffffffff021916908373ffffffffffffffffffffffffffffffffffffffff160217905550604082015181600201908161129891906150c1565b5060608201518160030190816112ae91906150c1565b5060808201518160040190816112c491906150c1565b5060a08201518160050190816112da91906150c1565b5060c0820151816006015560e082015181600701556101008201518160080155610120820151816009015561014082015181600a019080519060200190611322929190613dca565b5061016082015181600b019080519060200190611340929190613e54565b509050506007600081548092919061135790614e2d565b91905055508192505050979650505050505050565b600073ffffffffffffffffffffffffffffffffffffffff166005600083815260200190815260200160002060010160009054906101000a900473ffffffffffffffffffffffffffffffffffffffff1673ffffffffffffffffffffffffffffffffffffffff1603611411576040517f08c379a000000000000000000000000000000000000000000000000000000000815260040161140890615205565b60405180910390fd5b6005600082815260200190815260200160002060010160009054906101000a900473ffffffffffffffffffffffffffffffffffffffff1673ffffffffffffffffffffffffffffffffffffffff166108fc349081150290604051600060405180830381858888f1935050505015801561148d573d6000803e3d6000fd5b506114983334613bb8565b60056000828152602001908152602001600020600a01339080600181540180825580915050600190039060005260206000200160009091909190916101000a81548173ffffffffffffffffffffffffffffffffffffffff021916908373ffffffffffffffffffffffffffffffffffffffff16021790555060056000828152602001908152602001600020600b01349080600181540180825580915050600190039060005260206000200160009091909190915055346005600083815260200190815260200160002060070160008282546115729190614e75565b9250508190555050565b60606000805b6008548110156115fd57600060028111156115a05761159f6141ea565b5b6006600083815260200190815260200160002060070160009054906101000a900460ff1660028111156115d6576115d56141ea565b5b036115ea5781806115e690614e2d565b9250505b80806115f590614e2d565b915050611582565b5060008167ffffffffffffffff81111561161a576116196144c0565b5b60405190808252806020026020018201604052801561165357816020015b611640613d18565b8152602001906001900390816116385790505b5090506000805b60085481101561193a5760006002811115611678576116776141ea565b5b6006600083815260200190815260200160002060070160009054906101000a900460ff1660028111156116ae576116ad6141ea565b5b03611927576006600082815260200190815260200160002060405180610120016040529081600082015481526020016001820160009054906101000a900460ff166007811115611701576117006141ea565b5b6007811115611713576117126141ea565b5b81526020016001820160019054906101000a900473ffffffffffffffffffffffffffffffffffffffff1673ffffffffffffffffffffffffffffffffffffffff1673ffffffffffffffffffffffffffffffffffffffff1681526020016002820160009054906101000a900473ffffffffffffffffffffffffffffffffffffffff1673ffffffffffffffffffffffffffffffffffffffff1673ffffffffffffffffffffffffffffffffffffffff1681526020016003820160009054906101000a900473ffffffffffffffffffffffffffffffffffffffff1673ffffffffffffffffffffffffffffffffffffffff1673ffffffffffffffffffffffffffffffffffffffff16815260200160048201805461182990614d9e565b80601f016020809104026020016040519081016040528092919081815260200182805461185590614d9e565b80156118a25780601f10611877576101008083540402835291602001916118a2565b820191906000526020600020905b81548152906001019060200180831161188557829003601f168201915b5050505050815260200160058201548152602001600682015481526020016007820160009054906101000a900460ff1660028111156118e4576118e36141ea565b5b60028111156118f6576118f56141ea565b5b8152505083838151811061190d5761190c614dcf565b5b6020026020010181905250818061192390614e2d565b9250505b808061193290614e2d565b91505061165a565b5081935050505090565b600080606080606080600080600080606080600073ffffffffffffffffffffffffffffffffffffffff16600560008f815260200190815260200160002060010160009054906101000a900473ffffffffffffffffffffffffffffffffffffffff1673ffffffffffffffffffffffffffffffffffffffff16036119fb576040517f08c379a00000000000000000000000000000000000000000000000000000000081526004016119f290615205565b60405180910390fd5b6000600560008f815260200190815260200160002060405180610180016040529081600082015481526020016001820160009054906101000a900473ffffffffffffffffffffffffffffffffffffffff1673ffffffffffffffffffffffffffffffffffffffff1673ffffffffffffffffffffffffffffffffffffffff168152602001600282018054611a8c90614d9e565b80601f0160208091040260200160405190810160405280929190818152602001828054611ab890614d9e565b8015611b055780601f10611ada57610100808354040283529160200191611b05565b820191906000526020600020905b815481529060010190602001808311611ae857829003601f168201915b50505050508152602001600382018054611b1e90614d9e565b80601f0160208091040260200160405190810160405280929190818152602001828054611b4a90614d9e565b8015611b975780601f10611b6c57610100808354040283529160200191611b97565b820191906000526020600020905b815481529060010190602001808311611b7a57829003601f168201915b50505050508152602001600482018054611bb090614d9e565b80601f0160208091040260200160405190810160405280929190818152602001828054611bdc90614d9e565b8015611c295780601f10611bfe57610100808354040283529160200191611c29565b820191906000526020600020905b815481529060010190602001808311611c0c57829003601f168201915b50505050508152602001600582018054611c4290614d9e565b80601f0160208091040260200160405190810160405280929190818152602001828054611c6e90614d9e565b8015611cbb5780601f10611c9057610100808354040283529160200191611cbb565b820191906000526020600020905b815481529060010190602001808311611c9e57829003601f168201915b5050505050815260200160068201548152602001600782015481526020016008820154815260200160098201548152602001600a8201805480602002602001604051908101604052809291908181526020018280548015611d7157602002820191906000526020600020905b8160009054906101000a900473ffffffffffffffffffffffffffffffffffffffff1673ffffffffffffffffffffffffffffffffffffffff1681526020019060010190808311611d27575b50505050508152602001600b8201805480602002602001604051908101604052809291908181526020018280548015611dc957602002820191906000526020600020905b815481526020019060010190808311611db5575b5050505050815250509050806000015181602001518260400151836060015184608001518560a001518660c001518760e001518861010001518961012001518a61014001518b61016001519c509c509c509c509c509c509c509c509c509c509c509c505091939597999b5091939597999b565b6060600060075467ffffffffffffffff811115611e5c57611e5b6144c0565b5b604051908082528060200260200182016040528015611e9557816020015b611e82613ea1565b815260200190600190039081611e7a5790505b5090506000805b6007548110156122ce5760006005600083815260200190815260200160002060405180610180016040529081600082015481526020016001820160009054906101000a900473ffffffffffffffffffffffffffffffffffffffff1673ffffffffffffffffffffffffffffffffffffffff1673ffffffffffffffffffffffffffffffffffffffff168152602001600282018054611f3790614d9e565b80601f0160208091040260200160405190810160405280929190818152602001828054611f6390614d9e565b8015611fb05780601f10611f8557610100808354040283529160200191611fb0565b820191906000526020600020905b815481529060010190602001808311611f9357829003601f168201915b50505050508152602001600382018054611fc990614d9e565b80601f0160208091040260200160405190810160405280929190818152602001828054611ff590614d9e565b80156120425780601f1061201757610100808354040283529160200191612042565b820191906000526020600020905b81548152906001019060200180831161202557829003601f168201915b5050505050815260200160048201805461205b90614d9e565b80601f016020809104026020016040519081016040528092919081815260200182805461208790614d9e565b80156120d45780601f106120a9576101008083540402835291602001916120d4565b820191906000526020600020905b8154815290600101906020018083116120b757829003601f168201915b505050505081526020016005820180546120ed90614d9e565b80601f016020809104026020016040519081016040528092919081815260200182805461211990614d9e565b80156121665780601f1061213b57610100808354040283529160200191612166565b820191906000526020600020905b81548152906001019060200180831161214957829003601f168201915b5050505050815260200160068201548152602001600782015481526020016008820154815260200160098201548152602001600a820180548060200260200160405190810160405280929190818152602001828054801561221c57602002820191906000526020600020905b8160009054906101000a900473ffffffffffffffffffffffffffffffffffffffff1673ffffffffffffffffffffffffffffffffffffffff16815260200190600101908083116121d2575b50505050508152602001600b820180548060200260200160405190810160405280929190818152602001828054801561227457602002820191906000526020600020905b815481526020019060010190808311612260575b50505050508152505090504281610120015111156122ba57808484815181106122a05761229f614dcf565b5b602002602001018190525082806122b690614e2d565b9350505b5080806122c690614e2d565b915050611e9c565b5060008167ffffffffffffffff8111156122eb576122ea6144c0565b5b60405190808252806020026020018201604052801561232457816020015b612311613ea1565b8152602001906001900390816123095790505b50905060005b8281101561237e5783818151811061234557612344614dcf565b5b60200260200101518282815181106123605761235f614dcf565b5b6020026020010181905250808061237690614e2d565b91505061232a565b5080935050505090565b600073ffffffffffffffffffffffffffffffffffffffff166006600083815260200190815260200160002060010160019054906101000a900473ffffffffffffffffffffffffffffffffffffffff1673ffffffffffffffffffffffffffffffffffffffff160361242d576040517f08c379a000000000000000000000000000000000000000000000000000000000815260040161242490615271565b60405180910390fd5b600073ffffffffffffffffffffffffffffffffffffffff166006600083815260200190815260200160002060030160009054906101000a900473ffffffffffffffffffffffffffffffffffffffff1673ffffffffffffffffffffffffffffffffffffffff16146124d2576040517f08c379a00000000000000000000000000000000000000000000000000000000081526004016124c9906152dd565b60405180910390fd5b6006600082815260200190815260200160002060020160009054906101000a900473ffffffffffffffffffffffffffffffffffffffff1673ffffffffffffffffffffffffffffffffffffffff166108fc349081150290604051600060405180830381858888f1935050505015801561254e573d6000803e3d6000fd5b50336006600083815260200190815260200160002060030160006101000a81548173ffffffffffffffffffffffffffffffffffffffff021916908373ffffffffffffffffffffffffffffffffffffffff16021790555060026006600083815260200190815260200160002060070160006101000a81548160ff021916908360028111156125de576125dd6141ea565b5b021790555050565b60008060008373ffffffffffffffffffffffffffffffffffffffff1673ffffffffffffffffffffffffffffffffffffffff168152602001908152602001600020549050919050565b6060600a60003373ffffffffffffffffffffffffffffffffffffffff1673ffffffffffffffffffffffffffffffffffffffff16815260200190815260200160002060009054906101000a900460ff166126bc576040517f08c379a00000000000000000000000000000000000000000000000000000000081526004016126b390614ef5565b60405180910390fd5b600060075467ffffffffffffffff8111156126da576126d96144c0565b5b60405190808252806020026020018201604052801561271357816020015b612700613ea1565b8152602001906001900390816126f85790505b5090506000805b600754811015612b765760006005600083815260200190815260200160002060405180610180016040529081600082015481526020016001820160009054906101000a900473ffffffffffffffffffffffffffffffffffffffff1673ffffffffffffffffffffffffffffffffffffffff1673ffffffffffffffffffffffffffffffffffffffff1681526020016002820180546127b590614d9e565b80601f01602080910402602001604051908101604052809291908181526020018280546127e190614d9e565b801561282e5780601f106128035761010080835404028352916020019161282e565b820191906000526020600020905b81548152906001019060200180831161281157829003601f168201915b5050505050815260200160038201805461284790614d9e565b80601f016020809104026020016040519081016040528092919081815260200182805461287390614d9e565b80156128c05780601f10612895576101008083540402835291602001916128c0565b820191906000526020600020905b8154815290600101906020018083116128a357829003601f168201915b505050505081526020016004820180546128d990614d9e565b80601f016020809104026020016040519081016040528092919081815260200182805461290590614d9e565b80156129525780601f1061292757610100808354040283529160200191612952565b820191906000526020600020905b81548152906001019060200180831161293557829003601f168201915b5050505050815260200160058201805461296b90614d9e565b80601f016020809104026020016040519081016040528092919081815260200182805461299790614d9e565b80156129e45780601f106129b9576101008083540402835291602001916129e4565b820191906000526020600020905b8154815290600101906020018083116129c757829003601f168201915b5050505050815260200160068201548152602001600782015481526020016008820154815260200160098201548152602001600a8201805480602002602001604051908101604052809291908181526020018280548015612a9a57602002820191906000526020600020905b8160009054906101000a900473ffffffffffffffffffffffffffffffffffffffff1673ffffffffffffffffffffffffffffffffffffffff1681526020019060010190808311612a50575b50505050508152602001600b8201805480602002602001604051908101604052809291908181526020018280548015612af257602002820191906000526020600020905b815481526020019060010190808311612ade575b50505050508152505090503373ffffffffffffffffffffffffffffffffffffffff16816020015173ffffffffffffffffffffffffffffffffffffffff1603612b625780848481518110612b4857612b47614dcf565b5b60200260200101819052508280612b5e90614e2d565b9350505b508080612b6e90614e2d565b91505061271a565b5060008167ffffffffffffffff811115612b9357612b926144c0565b5b604051908082528060200260200182016040528015612bcc57816020015b612bb9613ea1565b815260200190600190039081612bb15790505b50905060005b82811015612c2657838181518110612bed57612bec614dcf565b5b6020026020010151828281518110612c0857612c07614dcf565b5b60200260200101819052508080612c1e90614e2d565b915050612bd2565b5080935050505090565b606060048054612c3f90614d9e565b80601f0160208091040260200160405190810160405280929190818152602001828054612c6b90614d9e565b8015612cb85780601f10612c8d57610100808354040283529160200191612cb8565b820191906000526020600020905b815481529060010190602001808311612c9b57829003601f168201915b5050505050905090565b600080612ccd6136e5565b90506000612cdb8286612e47565b905083811015612d20576040517f08c379a0000000000000000000000000000000000000000000000000000000008152600401612d179061536f565b60405180910390fd5b612d2d82868684036136ed565b60019250505092915050565b600960009054906101000a900473ffffffffffffffffffffffffffffffffffffffff1673ffffffffffffffffffffffffffffffffffffffff163373ffffffffffffffffffffffffffffffffffffffff1614612dc9576040517f08c379a0000000000000000000000000000000000000000000000000000000008152600401612dc0906153db565b60405180910390fd5b6001600a60008373ffffffffffffffffffffffffffffffffffffffff1673ffffffffffffffffffffffffffffffffffffffff16815260200190815260200160002060006101000a81548160ff02191690831515021790555050565b600080612e2f6136e5565b9050612e3c818585613942565b600191505092915050565b6000600160008473ffffffffffffffffffffffffffffffffffffffff1673ffffffffffffffffffffffffffffffffffffffff16815260200190815260200160002060008373ffffffffffffffffffffffffffffffffffffffff1673ffffffffffffffffffffffffffffffffffffffff16815260200190815260200160002054905092915050565b606080600073ffffffffffffffffffffffffffffffffffffffff166005600085815260200190815260200160002060010160009054906101000a900473ffffffffffffffffffffffffffffffffffffffff1673ffffffffffffffffffffffffffffffffffffffff1603612f76576040517f08c379a0000000000000000000000000000000000000000000000000000000008152600401612f6d90615205565b60405180910390fd5b60006005600085815260200190815260200160002060405180610180016040529081600082015481526020016001820160009054906101000a900473ffffffffffffffffffffffffffffffffffffffff1673ffffffffffffffffffffffffffffffffffffffff1673ffffffffffffffffffffffffffffffffffffffff16815260200160028201805461300790614d9e565b80601f016020809104026020016040519081016040528092919081815260200182805461303390614d9e565b80156130805780601f1061305557610100808354040283529160200191613080565b820191906000526020600020905b81548152906001019060200180831161306357829003601f168201915b5050505050815260200160038201805461309990614d9e565b80601f01602080910402602001604051908101604052809291908181526020018280546130c590614d9e565b80156131125780601f106130e757610100808354040283529160200191613112565b820191906000526020600020905b8154815290600101906020018083116130f557829003601f168201915b5050505050815260200160048201805461312b90614d9e565b80601f016020809104026020016040519081016040528092919081815260200182805461315790614d9e565b80156131a45780601f10613179576101008083540402835291602001916131a4565b820191906000526020600020905b81548152906001019060200180831161318757829003601f168201915b505050505081526020016005820180546131bd90614d9e565b80601f01602080910402602001604051908101604052809291908181526020018280546131e990614d9e565b80156132365780601f1061320b57610100808354040283529160200191613236565b820191906000526020600020905b81548152906001019060200180831161321957829003601f168201915b5050505050815260200160068201548152602001600782015481526020016008820154815260200160098201548152602001600a82018054806020026020016040519081016040528092919081815260200182805480156132ec57602002820191906000526020600020905b8160009054906101000a900473ffffffffffffffffffffffffffffffffffffffff1673ffffffffffffffffffffffffffffffffffffffff16815260200190600101908083116132a2575b50505050508152602001600b820180548060200260200160405190810160405280929190818152602001828054801561334457602002820191906000526020600020905b815481526020019060010190808311613330575b50505050508152505090508061014001518161016001519250925050915091565b6000600a60003373ffffffffffffffffffffffffffffffffffffffff1673ffffffffffffffffffffffffffffffffffffffff16815260200190815260200160002060009054906101000a900460ff166133f3576040517f08c379a00000000000000000000000000000000000000000000000000000000081526004016133ea90614ef5565b60405180910390fd5b600060085490506000604051806101200160405280838152602001866007811115613421576134206141ea565b5b81526020018773ffffffffffffffffffffffffffffffffffffffff1681526020013373ffffffffffffffffffffffffffffffffffffffff168152602001600073ffffffffffffffffffffffffffffffffffffffff16815260200185815260200142815260200160008152602001600060028111156134a2576134a16141ea565b5b815250905080600660008481526020019081526020016000206000820151816000015560208201518160010160006101000a81548160ff021916908360078111156134f0576134ef6141ea565b5b021790555060408201518160010160016101000a81548173ffffffffffffffffffffffffffffffffffffffff021916908373ffffffffffffffffffffffffffffffffffffffff16021790555060608201518160020160006101000a81548173ffffffffffffffffffffffffffffffffffffffff021916908373ffffffffffffffffffffffffffffffffffffffff16021790555060808201518160030160006101000a81548173ffffffffffffffffffffffffffffffffffffffff021916908373ffffffffffffffffffffffffffffffffffffffff16021790555060a08201518160040190816135df91906150c1565b5060c0820151816005015560e082015181600601556101008201518160070160006101000a81548160ff021916908360028111156136205761361f6141ea565b5b02179055509050506008600081548092919061363b90614e2d565b91905055506136698661364c610c4c565b600a613658919061552e565b60646136649190615579565b613bb8565b7f314f3632121481fc4a1edb57a45d5017751e158667b6bf4b06e4affd50b48849816000015182604001518360200151846080015185606001518660a001518760c001518860e001518961010001516040516136cd999897969594939291906155d9565b60405180910390a18060000151925050509392505050565b600033905090565b600073ffffffffffffffffffffffffffffffffffffffff168373ffffffffffffffffffffffffffffffffffffffff160361375c576040517f08c379a0000000000000000000000000000000000000000000000000000000008152600401613753906156df565b60405180910390fd5b600073ffffffffffffffffffffffffffffffffffffffff168273ffffffffffffffffffffffffffffffffffffffff16036137cb576040517f08c379a00000000000000000000000000000000000000000000000000000000081526004016137c290615771565b60405180910390fd5b80600160008573ffffffffffffffffffffffffffffffffffffffff1673ffffffffffffffffffffffffffffffffffffffff16815260200190815260200160002060008473ffffffffffffffffffffffffffffffffffffffff1673ffffffffffffffffffffffffffffffffffffffff168152602001908152602001600020819055508173ffffffffffffffffffffffffffffffffffffffff168373ffffffffffffffffffffffffffffffffffffffff167f8c5be1e5ebec7d5bd14f71427d1e84f3dd0314c0f7b2291e5b200ac8c7c3b925836040516138a99190614141565b60405180910390a3505050565b60006138c28484612e47565b90507fffffffffffffffffffffffffffffffffffffffffffffffffffffffffffffffff811461393c578181101561392e576040517f08c379a0000000000000000000000000000000000000000000000000000000008152600401613925906157dd565b60405180910390fd5b61393b84848484036136ed565b5b50505050565b600073ffffffffffffffffffffffffffffffffffffffff168373ffffffffffffffffffffffffffffffffffffffff16036139b1576040517f08c379a00000000000000000000000000000000000000000000000000000000081526004016139a89061586f565b60405180910390fd5b600073ffffffffffffffffffffffffffffffffffffffff168273ffffffffffffffffffffffffffffffffffffffff1603613a20576040517f08c379a0000000000000000000000000000000000000000000000000000000008152600401613a1790615901565b60405180910390fd5b613a2b838383613d0e565b60008060008573ffffffffffffffffffffffffffffffffffffffff1673ffffffffffffffffffffffffffffffffffffffff16815260200190815260200160002054905081811015613ab1576040517f08c379a0000000000000000000000000000000000000000000000000000000008152600401613aa890615993565b60405180910390fd5b8181036000808673ffffffffffffffffffffffffffffffffffffffff1673ffffffffffffffffffffffffffffffffffffffff16815260200190815260200160002081905550816000808573ffffffffffffffffffffffffffffffffffffffff1673ffffffffffffffffffffffffffffffffffffffff168152602001908152602001600020600082825401925050819055508273ffffffffffffffffffffffffffffffffffffffff168473ffffffffffffffffffffffffffffffffffffffff167fddf252ad1be2c89b69c2b068fc378daa952ba7f163c4a11628f55a4df523b3ef84604051613b9f9190614141565b60405180910390a3613bb2848484613d13565b50505050565b600073ffffffffffffffffffffffffffffffffffffffff168273ffffffffffffffffffffffffffffffffffffffff1603613c27576040517f08c379a0000000000000000000000000000000000000000000000000000000008152600401613c1e906159ff565b60405180910390fd5b613c3360008383613d0e565b8060026000828254613c459190614e75565b92505081905550806000808473ffffffffffffffffffffffffffffffffffffffff1673ffffffffffffffffffffffffffffffffffffffff168152602001908152602001600020600082825401925050819055508173ffffffffffffffffffffffffffffffffffffffff16600073ffffffffffffffffffffffffffffffffffffffff167fddf252ad1be2c89b69c2b068fc378daa952ba7f163c4a11628f55a4df523b3ef83604051613cf69190614141565b60405180910390a3613d0a60008383613d13565b5050565b505050565b505050565b6040518061012001604052806000815260200160006007811115613d3f57613d3e6141ea565b5b8152602001600073ffffffffffffffffffffffffffffffffffffffff168152602001600073ffffffffffffffffffffffffffffffffffffffff168152602001600073ffffffffffffffffffffffffffffffffffffffff16815260200160608152602001600081526020016000815260200160006002811115613dc457613dc36141ea565b5b81525090565b828054828255906000526020600020908101928215613e43579160200282015b82811115613e425782518260006101000a81548173ffffffffffffffffffffffffffffffffffffffff021916908373ffffffffffffffffffffffffffffffffffffffff16021790555091602001919060010190613dea565b5b509050613e509190613f18565b5090565b828054828255906000526020600020908101928215613e90579160200282015b82811115613e8f578251825591602001919060010190613e74565b5b509050613e9d9190613f18565b5090565b60405180610180016040528060008152602001600073ffffffffffffffffffffffffffffffffffffffff168152602001606081526020016060815260200160608152602001606081526020016000815260200160008152602001600081526020016000815260200160608152602001606081525090565b5b80821115613f31576000816000905550600101613f19565b5090565b600081519050919050565b600082825260208201905092915050565b60005b83811015613f6f578082015181840152602081019050613f54565b60008484015250505050565b6000601f19601f8301169050919050565b6000613f9782613f35565b613fa18185613f40565b9350613fb1818560208601613f51565b613fba81613f7b565b840191505092915050565b60006020820190508181036000830152613fdf8184613f8c565b905092915050565b6000604051905090565b600080fd5b600080fd5b600073ffffffffffffffffffffffffffffffffffffffff82169050919050565b600061402682613ffb565b9050919050565b6140368161401b565b811461404157600080fd5b50565b6000813590506140538161402d565b92915050565b6000819050919050565b61406c81614059565b811461407757600080fd5b50565b60008135905061408981614063565b92915050565b600080604083850312156140a6576140a5613ff1565b5b60006140b485828601614044565b92505060206140c58582860161407a565b9150509250929050565b60008115159050919050565b6140e4816140cf565b82525050565b60006020820190506140ff60008301846140db565b92915050565b60006020828403121561411b5761411a613ff1565b5b600061412984828501614044565b91505092915050565b61413b81614059565b82525050565b60006020820190506141566000830184614132565b92915050565b60008060006060848603121561417557614174613ff1565b5b600061418386828701614044565b935050602061419486828701614044565b92505060406141a58682870161407a565b9150509250925092565b600081519050919050565b600082825260208201905092915050565b6000819050602082019050919050565b6141e481614059565b82525050565b7f4e487b7100000000000000000000000000000000000000000000000000000000600052602160045260246000fd5b6008811061422a576142296141ea565b5b50565b600081905061423b82614219565b919050565b600061424b8261422d565b9050919050565b61425b81614240565b82525050565b61426a8161401b565b82525050565b600082825260208201905092915050565b600061428c82613f35565b6142968185614270565b93506142a6818560208601613f51565b6142af81613f7b565b840191505092915050565b600381106142cb576142ca6141ea565b5b50565b60008190506142dc826142ba565b919050565b60006142ec826142ce565b9050919050565b6142fc816142e1565b82525050565b60006101208301600083015161431b60008601826141db565b50602083015161432e6020860182614252565b5060408301516143416040860182614261565b5060608301516143546060860182614261565b5060808301516143676080860182614261565b5060a083015184820360a086015261437f8282614281565b91505060c083015161439460c08601826141db565b5060e08301516143a760e08601826141db565b506101008301516143bc6101008601826142f3565b508091505092915050565b60006143d38383614302565b905092915050565b6000602082019050919050565b60006143f3826141af565b6143fd81856141ba565b93508360208202850161440f856141cb565b8060005b8581101561444b578484038952815161442c85826143c7565b9450614437836143db565b925060208a01995050600181019050614413565b50829750879550505050505092915050565b6000602082019050818103600083015261447781846143e8565b905092915050565b600060ff82169050919050565b6144958161447f565b82525050565b60006020820190506144b0600083018461448c565b92915050565b600080fd5b600080fd5b7f4e487b7100000000000000000000000000000000000000000000000000000000600052604160045260246000fd5b6144f882613f7b565b810181811067ffffffffffffffff82111715614517576145166144c0565b5b80604052505050565b600061452a613fe7565b905061453682826144ef565b919050565b600067ffffffffffffffff821115614556576145556144c0565b5b61455f82613f7b565b9050602081019050919050565b82818337600083830152505050565b600061458e6145898461453b565b614520565b9050828152602081018484840111156145aa576145a96144bb565b5b6145b584828561456c565b509392505050565b600082601f8301126145d2576145d16144b6565b5b81356145e284826020860161457b565b91505092915050565b600080600080600080600060e0888a03121561460a57614609613ff1565b5b60006146188a828b01614044565b975050602088013567ffffffffffffffff81111561463957614638613ff6565b5b6146458a828b016145bd565b965050604088013567ffffffffffffffff81111561466657614665613ff6565b5b6146728a828b016145bd565b955050606088013567ffffffffffffffff81111561469357614692613ff6565b5b61469f8a828b016145bd565b945050608088013567ffffffffffffffff8111156146c0576146bf613ff6565b5b6146cc8a828b016145bd565b93505060a06146dd8a828b0161407a565b92505060c06146ee8a828b0161407a565b91505092959891949750929550565b60006020828403121561471357614712613ff1565b5b60006147218482850161407a565b91505092915050565b6147338161401b565b82525050565b600081519050919050565b600082825260208201905092915050565b6000819050602082019050919050565b60006147718383614261565b60208301905092915050565b6000602082019050919050565b600061479582614739565b61479f8185614744565b93506147aa83614755565b8060005b838110156147db5781516147c28882614765565b97506147cd8361477d565b9250506001810190506147ae565b5085935050505092915050565b600081519050919050565b600082825260208201905092915050565b6000819050602082019050919050565b600061482083836141db565b60208301905092915050565b6000602082019050919050565b6000614844826147e8565b61484e81856147f3565b935061485983614804565b8060005b8381101561488a5781516148718882614814565b975061487c8361482c565b92505060018101905061485d565b5085935050505092915050565b6000610180820190506148ad600083018f614132565b6148ba602083018e61472a565b81810360408301526148cc818d613f8c565b905081810360608301526148e0818c613f8c565b905081810360808301526148f4818b613f8c565b905081810360a0830152614908818a613f8c565b905061491760c0830189614132565b61492460e0830188614132565b614932610100830187614132565b614940610120830186614132565b818103610140830152614953818561478a565b90508181036101608301526149688184614839565b90509d9c50505050505050505050505050565b600081519050919050565b600082825260208201905092915050565b6000819050602082019050919050565b600082825260208201905092915050565b60006149c382614739565b6149cd81856149a7565b93506149d883614755565b8060005b83811015614a095781516149f08882614765565b97506149fb8361477d565b9250506001810190506149dc565b5085935050505092915050565b600082825260208201905092915050565b6000614a32826147e8565b614a3c8185614a16565b9350614a4783614804565b8060005b83811015614a78578151614a5f8882614814565b9750614a6a8361482c565b925050600181019050614a4b565b5085935050505092915050565b600061018083016000830151614a9e60008601826141db565b506020830151614ab16020860182614261565b5060408301518482036040860152614ac98282614281565b91505060608301518482036060860152614ae38282614281565b91505060808301518482036080860152614afd8282614281565b91505060a083015184820360a0860152614b178282614281565b91505060c0830151614b2c60c08601826141db565b5060e0830151614b3f60e08601826141db565b50610100830151614b546101008601826141db565b50610120830151614b696101208601826141db565b50610140830151848203610140860152614b8382826149b8565b915050610160830151848203610160860152614b9f8282614a27565b9150508091505092915050565b6000614bb88383614a85565b905092915050565b6000602082019050919050565b6000614bd88261497b565b614be28185614986565b935083602082028501614bf485614997565b8060005b85811015614c305784840389528151614c118582614bac565b9450614c1c83614bc0565b925060208a01995050600181019050614bf8565b50829750879550505050505092915050565b60006020820190508181036000830152614c5c8184614bcd565b905092915050565b60008060408385031215614c7b57614c7a613ff1565b5b6000614c8985828601614044565b9250506020614c9a85828601614044565b9150509250929050565b60006040820190508181036000830152614cbe818561478a565b90508181036020830152614cd28184614839565b90509392505050565b60088110614ce857600080fd5b50565b600081359050614cfa81614cdb565b92915050565b600080600060608486031215614d1957614d18613ff1565b5b6000614d2786828701614044565b9350506020614d3886828701614ceb565b925050604084013567ffffffffffffffff811115614d5957614d58613ff6565b5b614d65868287016145bd565b9150509250925092565b7f4e487b7100000000000000000000000000000000000000000000000000000000600052602260045260246000fd5b60006002820490506001821680614db657607f821691505b602082108103614dc957614dc8614d6f565b5b50919050565b7f4e487b7100000000000000000000000000000000000000000000000000000000600052603260045260246000fd5b7f4e487b7100000000000000000000000000000000000000000000000000000000600052601160045260246000fd5b6000614e3882614059565b91507fffffffffffffffffffffffffffffffffffffffffffffffffffffffffffffffff8203614e6a57614e69614dfe565b5b600182019050919050565b6000614e8082614059565b9150614e8b83614059565b9250828201905080821115614ea357614ea2614dfe565b5b92915050565b7f43616c6c6572206973206e6f7420616e20677561726469616e00000000000000600082015250565b6000614edf601983613f40565b9150614eea82614ea9565b602082019050919050565b60006020820190508181036000830152614f0e81614ed2565b9050919050565b60008190508160005260206000209050919050565b60006020601f8301049050919050565b600082821b905092915050565b600060088302614f777fffffffffffffffffffffffffffffffffffffffffffffffffffffffffffffffff82614f3a565b614f818683614f3a565b95508019841693508086168417925050509392505050565b6000819050919050565b6000614fbe614fb9614fb484614059565b614f99565b614059565b9050919050565b6000819050919050565b614fd883614fa3565b614fec614fe482614fc5565b848454614f47565b825550505050565b600090565b615001614ff4565b61500c818484614fcf565b505050565b5b8181101561503057615025600082614ff9565b600181019050615012565b5050565b601f8211156150755761504681614f15565b61504f84614f2a565b8101602085101561505e578190505b61507261506a85614f2a565b830182615011565b50505b505050565b600082821c905092915050565b60006150986000198460080261507a565b1980831691505092915050565b60006150b18383615087565b9150826002028217905092915050565b6150ca82613f35565b67ffffffffffffffff8111156150e3576150e26144c0565b5b6150ed8254614d9e565b6150f8828285615034565b600060209050601f83116001811461512b5760008415615119578287015190505b61512385826150a5565b86555061518b565b601f19841661513986614f15565b60005b828110156151615784890151825560018201915060208501945060208101905061513c565b8683101561517e578489015161517a601f891682615087565b8355505b6001600288020188555050505b505050505050565b7f546865207370656369666965642063616d706169676e20494420646f6573206e60008201527f6f74206578697374000000000000000000000000000000000000000000000000602082015250565b60006151ef602883613f40565b91506151fa82615193565b604082019050919050565b6000602082019050818103600083015261521e816151e2565b9050919050565b7f506f75636820494420646f6573206e6f74206578697374000000000000000000600082015250565b600061525b601783613f40565b915061526682615225565b602082019050919050565b6000602082019050818103600083015261528a8161524e565b9050919050565b7f506f75636820616c726561647920686173206120726563656976657200000000600082015250565b60006152c7601c83613f40565b91506152d282615291565b602082019050919050565b600060208201905081810360008301526152f6816152ba565b9050919050565b7f45524332303a2064656372656173656420616c6c6f77616e63652062656c6f7760008201527f207a65726f000000000000000000000000000000000000000000000000000000602082015250565b6000615359602583613f40565b9150615364826152fd565b604082019050919050565b600060208201905081810360008301526153888161534c565b9050919050565b7f4f6e6c792061646d696e2063616e2061646420677561726469616e0000000000600082015250565b60006153c5601b83613f40565b91506153d08261538f565b602082019050919050565b600060208201905081810360008301526153f4816153b8565b9050919050565b60008160011c9050919050565b6000808291508390505b60018511156154525780860481111561542e5761542d614dfe565b5b600185161561543d5780820291505b808102905061544b856153fb565b9450615412565b94509492505050565b60008261546b5760019050615527565b816154795760009050615527565b816001811461548f5760028114615499576154c8565b6001915050615527565b60ff8411156154ab576154aa614dfe565b5b8360020a9150848211156154c2576154c1614dfe565b5b50615527565b5060208310610133831016604e8410600b84101617156154fd5782820a9050838111156154f8576154f7614dfe565b5b615527565b61550a8484846001615408565b9250905081840481111561552157615520614dfe565b5b81810290505b9392505050565b600061553982614059565b91506155448361447f565b92506155717fffffffffffffffffffffffffffffffffffffffffffffffffffffffffffffffff848461545b565b905092915050565b600061558482614059565b915061558f83614059565b925082820261559d81614059565b915082820484148315176155b4576155b3614dfe565b5b5092915050565b6155c481614240565b82525050565b6155d3816142e1565b82525050565b6000610120820190506155ef600083018c614132565b6155fc602083018b61472a565b615609604083018a6155bb565b615616606083018961472a565b615623608083018861472a565b81810360a08301526156358187613f8c565b905061564460c0830186614132565b61565160e0830185614132565b61565f6101008301846155ca565b9a9950505050505050505050565b7f45524332303a20617070726f76652066726f6d20746865207a65726f2061646460008201527f7265737300000000000000000000000000000000000000000000000000000000602082015250565b60006156c9602483613f40565b91506156d48261566d565b604082019050919050565b600060208201905081810360008301526156f8816156bc565b9050919050565b7f45524332303a20617070726f766520746f20746865207a65726f20616464726560008201527f7373000000000000000000000000000000000000000000000000000000000000602082015250565b600061575b602283613f40565b9150615766826156ff565b604082019050919050565b6000602082019050818103600083015261578a8161574e565b9050919050565b7f45524332303a20696e73756666696369656e7420616c6c6f77616e6365000000600082015250565b60006157c7601d83613f40565b91506157d282615791565b602082019050919050565b600060208201905081810360008301526157f6816157ba565b9050919050565b7f45524332303a207472616e736665722066726f6d20746865207a65726f20616460008201527f6472657373000000000000000000000000000000000000000000000000000000602082015250565b6000615859602583613f40565b9150615864826157fd565b604082019050919050565b600060208201905081810360008301526158888161584c565b9050919050565b7f45524332303a207472616e7366657220746f20746865207a65726f206164647260008201527f6573730000000000000000000000000000000000000000000000000000000000602082015250565b60006158eb602383613f40565b91506158f68261588f565b604082019050919050565b6000602082019050818103600083015261591a816158de565b9050919050565b7f45524332303a207472616e7366657220616d6f756e742065786365656473206260008201527f616c616e63650000000000000000000000000000000000000000000000000000602082015250565b600061597d602683613f40565b915061598882615921565b604082019050919050565b600060208201905081810360008301526159ac81615970565b9050919050565b7f45524332303a206d696e7420746f20746865207a65726f206164647265737300600082015250565b60006159e9601f83613f40565b91506159f4826159b3565b602082019050919050565b60006020820190508181036000830152615a18816159dc565b905091905056fea264697066735822122090159e4a7ea264dce43bda483c3b40c675e6697e02c07de3387d589b8b564dd964736f6c63430008120033",
  "linkReferences": {},
  "deployedLinkReferences": {}
}