{
  "_format": "hh-sol-artifact-1",
  "contractName": "BloodDonation",
  "sourceName": "contracts/BloodDonation.sol",
  "abi": [
    {
      "inputs": [],
      "stateMutability": "nonpayable",
      "type": "constructor"
    },
    {
      "anonymous": false,
      "inputs": [
        {
          "indexed": true,
          "internalType": "address",
          "name": "owner",
          "type": "address"
        },
        {
          "indexed": true,
          "internalType": "address",
          "name": "spender",
          "type": "address"
        },
        {
          "indexed": false,
          "internalType": "uint256",
          "name": "value",
          "type": "uint256"
        }
      ],
      "name": "Approval",
      "type": "event"
    },
    {
      "anonymous": false,
      "inputs": [
        {
          "indexed": true,
          "internalType": "address",
          "name": "from",
          "type": "address"
        },
        {
          "indexed": true,
          "internalType": "address",
          "name": "to",
          "type": "address"
        },
        {
          "indexed": false,
          "internalType": "uint256",
          "name": "value",
          "type": "uint256"
        }
      ],
      "name": "Transfer",
      "type": "event"
    },
    {
      "inputs": [
        {
          "internalType": "address",
          "name": "_adminAddress",
          "type": "address"
        }
      ],
      "name": "addOrganization",
      "outputs": [],
      "stateMutability": "nonpayable",
      "type": "function"
    },
    {
      "inputs": [
        {
          "internalType": "address",
          "name": "owner",
          "type": "address"
        },
        {
          "internalType": "address",
          "name": "spender",
          "type": "address"
        }
      ],
      "name": "allowance",
      "outputs": [
        {
          "internalType": "uint256",
          "name": "",
          "type": "uint256"
        }
      ],
      "stateMutability": "view",
      "type": "function"
    },
    {
      "inputs": [
        {
          "internalType": "address",
          "name": "spender",
          "type": "address"
        },
        {
          "internalType": "uint256",
          "name": "amount",
          "type": "uint256"
        }
      ],
      "name": "approve",
      "outputs": [
        {
          "internalType": "bool",
          "name": "",
          "type": "bool"
        }
      ],
      "stateMutability": "nonpayable",
      "type": "function"
    },
    {
      "inputs": [
        {
          "internalType": "uint256",
          "name": "_pouchID",
          "type": "uint256"
        }
      ],
      "name": "assignReceiver",
      "outputs": [],
      "stateMutability": "payable",
      "type": "function"
    },
    {
      "inputs": [
        {
          "internalType": "address",
          "name": "account",
          "type": "address"
        }
      ],
      "name": "balanceOf",
      "outputs": [
        {
          "internalType": "uint256",
          "name": "",
          "type": "uint256"
        }
      ],
      "stateMutability": "view",
      "type": "function"
    },
    {
      "inputs": [
        {
          "internalType": "address",
          "name": "_owner",
          "type": "address"
        },
        {
          "internalType": "string",
          "name": "_title",
          "type": "string"
        },
        {
          "internalType": "string",
          "name": "_description",
          "type": "string"
        },
        {
          "internalType": "string",
          "name": "_imageId",
          "type": "string"
        },
        {
          "internalType": "string",
          "name": "_videoId",
          "type": "string"
        },
        {
          "internalType": "uint256",
          "name": "_targetAmount",
          "type": "uint256"
        },
        {
          "internalType": "uint256",
          "name": "_deadlineDate",
          "type": "uint256"
        }
      ],
      "name": "createCampaign",
      "outputs": [
        {
          "internalType": "uint256",
          "name": "",
          "type": "uint256"
        }
      ],
      "stateMutability": "nonpayable",
      "type": "function"
    },
    {
      "inputs": [],
      "name": "decimals",
      "outputs": [
        {
          "internalType": "uint8",
          "name": "",
          "type": "uint8"
        }
      ],
      "stateMutability": "view",
      "type": "function"
    },
    {
      "inputs": [
        {
          "internalType": "address",
          "name": "spender",
          "type": "address"
        },
        {
          "internalType": "uint256",
          "name": "subtractedValue",
          "type": "uint256"
        }
      ],
      "name": "decreaseAllowance",
      "outputs": [
        {
          "internalType": "bool",
          "name": "",
          "type": "bool"
        }
      ],
      "stateMutability": "nonpayable",
      "type": "function"
    },
    {
      "inputs": [
        {
          "internalType": "uint256",
          "name": "_id",
          "type": "uint256"
        }
      ],
      "name": "donateToCampaign",
      "outputs": [],
      "stateMutability": "payable",
      "type": "function"
    },
    {
      "inputs": [
        {
          "internalType": "uint256",
          "name": "_pouchID",
          "type": "uint256"
        },
        {
          "internalType": "address",
          "name": "_donorID",
          "type": "address"
        },
        {
          "internalType": "enum BloodDonation.BloodGroup",
          "name": "_bloodGroup",
          "type": "uint8"
        },
        {
          "internalType": "string",
          "name": "_details",
          "type": "string"
        }
      ],
      "name": "enterBloodDetails",
      "outputs": [],
      "stateMutability": "nonpayable",
      "type": "function"
    },
    {
      "inputs": [],
      "name": "getAllActiveCampaigns",
      "outputs": [
        {
          "components": [
            {
              "internalType": "uint256",
              "name": "id",
              "type": "uint256"
            },
            {
              "internalType": "address",
              "name": "owner",
              "type": "address"
            },
            {
              "internalType": "string",
              "name": "title",
              "type": "string"
            },
            {
              "internalType": "string",
              "name": "description",
              "type": "string"
            },
            {
              "internalType": "string",
              "name": "imageId",
              "type": "string"
            },
            {
              "internalType": "string",
              "name": "videoId",
              "type": "string"
            },
            {
              "internalType": "uint256",
              "name": "targetAmount",
              "type": "uint256"
            },
            {
              "internalType": "uint256",
              "name": "collectedAmount",
              "type": "uint256"
            },
            {
              "internalType": "uint256",
              "name": "creationDate",
              "type": "uint256"
            },
            {
              "internalType": "uint256",
              "name": "deadlineDate",
              "type": "uint256"
            },
            {
              "internalType": "address[]",
              "name": "donators",
              "type": "address[]"
            },
            {
              "internalType": "uint256[]",
              "name": "donations",
              "type": "uint256[]"
            }
          ],
          "internalType": "struct BloodDonation.Campaign[]",
          "name": "",
          "type": "tuple[]"
        }
      ],
      "stateMutability": "view",
      "type": "function"
    },
    {
      "inputs": [],
      "name": "getAvailablePouches",
      "outputs": [
        {
          "components": [
            {
              "internalType": "uint256",
              "name": "pouchID",
              "type": "uint256"
            },
            {
              "internalType": "enum BloodDonation.BloodGroup",
              "name": "bloodGroup",
              "type": "uint8"
            },
            {
              "internalType": "address",
              "name": "donorID",
              "type": "address"
            },
            {
              "internalType": "address",
              "name": "organizationID",
              "type": "address"
            },
            {
              "internalType": "address",
              "name": "receiverID",
              "type": "address"
            },
            {
              "internalType": "string",
              "name": "details",
              "type": "string"
            },
            {
              "internalType": "uint256",
              "name": "publishDate",
              "type": "uint256"
            },
            {
              "internalType": "uint256",
              "name": "receivedDate",
              "type": "uint256"
            },
            {
              "internalType": "enum BloodDonation.BloodStatus",
              "name": "status",
              "type": "uint8"
            }
          ],
          "internalType": "struct BloodDonation.BloodPouch[]",
          "name": "",
          "type": "tuple[]"
        }
      ],
      "stateMutability": "view",
      "type": "function"
    },
    {
      "inputs": [
        {
          "internalType": "uint256",
          "name": "_id",
          "type": "uint256"
        }
      ],
      "name": "getCampaign",
      "outputs": [
        {
          "internalType": "uint256",
          "name": "id",
          "type": "uint256"
        },
        {
          "internalType": "address",
          "name": "owner",
          "type": "address"
        },
        {
          "internalType": "string",
          "name": "title",
          "type": "string"
        },
        {
          "internalType": "string",
          "name": "description",
          "type": "string"
        },
        {
          "internalType": "string",
          "name": "imageId",
          "type": "string"
        },
        {
          "internalType": "string",
          "name": "videoId",
          "type": "string"
        },
        {
          "internalType": "uint256",
          "name": "targetAmount",
          "type": "uint256"
        },
        {
          "internalType": "uint256",
          "name": "collectedAmount",
          "type": "uint256"
        },
        {
          "internalType": "uint256",
          "name": "creationDate",
          "type": "uint256"
        },
        {
          "internalType": "uint256",
          "name": "deadlineDate",
          "type": "uint256"
        },
        {
          "internalType": "address[]",
          "name": "donators",
          "type": "address[]"
        },
        {
          "internalType": "uint256[]",
          "name": "donations",
          "type": "uint256[]"
        }
      ],
      "stateMutability": "view",
      "type": "function"
    },
    {
      "inputs": [
        {
          "internalType": "uint256",
          "name": "_id",
          "type": "uint256"
        }
      ],
      "name": "getCampaignDonators",
      "outputs": [
        {
          "internalType": "address[]",
          "name": "",
          "type": "address[]"
        },
        {
          "internalType": "uint256[]",
          "name": "",
          "type": "uint256[]"
        }
      ],
      "stateMutability": "view",
      "type": "function"
    },
    {
      "inputs": [],
      "name": "getMyCampaigns",
      "outputs": [
        {
          "internalType": "uint256[]",
          "name": "",
          "type": "uint256[]"
        }
      ],
      "stateMutability": "view",
      "type": "function"
    },
    {
      "inputs": [
        {
          "internalType": "address",
          "name": "_owner",
          "type": "address"
        }
      ],
      "name": "getMyPouches",
      "outputs": [
        {
          "components": [
            {
              "internalType": "uint256",
              "name": "pouchID",
              "type": "uint256"
            },
            {
              "internalType": "enum BloodDonation.BloodGroup",
              "name": "bloodGroup",
              "type": "uint8"
            },
            {
              "internalType": "address",
              "name": "donorID",
              "type": "address"
            },
            {
              "internalType": "address",
              "name": "organizationID",
              "type": "address"
            },
            {
              "internalType": "address",
              "name": "receiverID",
              "type": "address"
            },
            {
              "internalType": "string",
              "name": "details",
              "type": "string"
            },
            {
              "internalType": "uint256",
              "name": "publishDate",
              "type": "uint256"
            },
            {
              "internalType": "uint256",
              "name": "receivedDate",
              "type": "uint256"
            },
            {
              "internalType": "enum BloodDonation.BloodStatus",
              "name": "status",
              "type": "uint8"
            }
          ],
          "internalType": "struct BloodDonation.BloodPouch[]",
          "name": "",
          "type": "tuple[]"
        }
      ],
      "stateMutability": "view",
      "type": "function"
    },
    {
      "inputs": [
        {
          "internalType": "address",
          "name": "_receiver",
          "type": "address"
        }
      ],
      "name": "getReceivedPouches",
      "outputs": [
        {
          "components": [
            {
              "internalType": "uint256",
              "name": "pouchID",
              "type": "uint256"
            },
            {
              "internalType": "enum BloodDonation.BloodGroup",
              "name": "bloodGroup",
              "type": "uint8"
            },
            {
              "internalType": "address",
              "name": "donorID",
              "type": "address"
            },
            {
              "internalType": "address",
              "name": "organizationID",
              "type": "address"
            },
            {
              "internalType": "address",
              "name": "receiverID",
              "type": "address"
            },
            {
              "internalType": "string",
              "name": "details",
              "type": "string"
            },
            {
              "internalType": "uint256",
              "name": "publishDate",
              "type": "uint256"
            },
            {
              "internalType": "uint256",
              "name": "receivedDate",
              "type": "uint256"
            },
            {
              "internalType": "enum BloodDonation.BloodStatus",
              "name": "status",
              "type": "uint8"
            }
          ],
          "internalType": "struct BloodDonation.BloodPouch[]",
          "name": "",
          "type": "tuple[]"
        }
      ],
      "stateMutability": "view",
      "type": "function"
    },
    {
      "inputs": [
        {
          "internalType": "address",
          "name": "spender",
          "type": "address"
        },
        {
          "internalType": "uint256",
          "name": "addedValue",
          "type": "uint256"
        }
      ],
      "name": "increaseAllowance",
      "outputs": [
        {
          "internalType": "bool",
          "name": "",
          "type": "bool"
        }
      ],
      "stateMutability": "nonpayable",
      "type": "function"
    },
    {
      "inputs": [
        {
          "internalType": "address",
          "name": "_account",
          "type": "address"
        }
      ],
      "name": "isAdmin",
      "outputs": [
        {
          "internalType": "bool",
          "name": "",
          "type": "bool"
        }
      ],
      "stateMutability": "view",
      "type": "function"
    },
    {
      "inputs": [
        {
          "internalType": "address",
          "name": "_account",
          "type": "address"
        }
      ],
      "name": "isOrganization",
      "outputs": [
        {
          "internalType": "bool",
          "name": "",
          "type": "bool"
        }
      ],
      "stateMutability": "view",
      "type": "function"
    },
    {
      "inputs": [],
      "name": "name",
      "outputs": [
        {
          "internalType": "string",
          "name": "",
          "type": "string"
        }
      ],
      "stateMutability": "view",
      "type": "function"
    },
    {
      "inputs": [],
      "name": "symbol",
      "outputs": [
        {
          "internalType": "string",
          "name": "",
          "type": "string"
        }
      ],
      "stateMutability": "view",
      "type": "function"
    },
    {
      "inputs": [],
      "name": "totalSupply",
      "outputs": [
        {
          "internalType": "uint256",
          "name": "",
          "type": "uint256"
        }
      ],
      "stateMutability": "view",
      "type": "function"
    },
    {
      "inputs": [
        {
          "internalType": "address",
          "name": "to",
          "type": "address"
        },
        {
          "internalType": "uint256",
          "name": "amount",
          "type": "uint256"
        }
      ],
      "name": "transfer",
      "outputs": [
        {
          "internalType": "bool",
          "name": "",
          "type": "bool"
        }
      ],
      "stateMutability": "nonpayable",
      "type": "function"
    },
    {
      "inputs": [
        {
          "internalType": "address",
          "name": "from",
          "type": "address"
        },
        {
          "internalType": "address",
          "name": "to",
          "type": "address"
        },
        {
          "internalType": "uint256",
          "name": "amount",
          "type": "uint256"
        }
      ],
      "name": "transferFrom",
      "outputs": [
        {
          "internalType": "bool",
          "name": "",
          "type": "bool"
        }
      ],
      "stateMutability": "nonpayable",
      "type": "function"
    }
  ],
  "bytecode": "0x60806040523480156200001157600080fd5b506040518060400160405280600c81526020017f534f4349414c20544f4b454e00000000000000000000000000000000000000008152506040518060400160405280600681526020017f534f4349414c000000000000000000000000000000000000000000000000000081525081600390816200008f9190620003bd565b508060049081620000a19190620003bd565b50505033600960006101000a81548173ffffffffffffffffffffffffffffffffffffffff021916908373ffffffffffffffffffffffffffffffffffffffff1602179055506001600a60003373ffffffffffffffffffffffffffffffffffffffff1673ffffffffffffffffffffffffffffffffffffffff16815260200190815260200160002060006101000a81548160ff021916908315150217905550620004a4565b600081519050919050565b7f4e487b7100000000000000000000000000000000000000000000000000000000600052604160045260246000fd5b7f4e487b7100000000000000000000000000000000000000000000000000000000600052602260045260246000fd5b60006002820490506001821680620001c557607f821691505b602082108103620001db57620001da6200017d565b5b50919050565b60008190508160005260206000209050919050565b60006020601f8301049050919050565b600082821b905092915050565b600060088302620002457fffffffffffffffffffffffffffffffffffffffffffffffffffffffffffffffff8262000206565b62000251868362000206565b95508019841693508086168417925050509392505050565b6000819050919050565b6000819050919050565b60006200029e62000298620002928462000269565b62000273565b62000269565b9050919050565b6000819050919050565b620002ba836200027d565b620002d2620002c982620002a5565b84845462000213565b825550505050565b600090565b620002e9620002da565b620002f6818484620002af565b505050565b5b818110156200031e5762000312600082620002df565b600181019050620002fc565b5050565b601f8211156200036d576200033781620001e1565b6200034284620001f6565b8101602085101562000352578190505b6200036a6200036185620001f6565b830182620002fb565b50505b505050565b600082821c905092915050565b6000620003926000198460080262000372565b1980831691505092915050565b6000620003ad83836200037f565b9150826002028217905092915050565b620003c88262000143565b67ffffffffffffffff811115620003e457620003e36200014e565b5b620003f08254620001ac565b620003fd82828562000322565b600060209050601f83116001811462000435576000841562000420578287015190505b6200042c85826200039f565b8655506200049c565b601f1984166200044586620001e1565b60005b828110156200046f5784890151825560018201915060208501945060208101905062000448565b868310156200048f57848901516200048b601f8916826200037f565b8355505b6001600288020188555050505b505050505050565b6156d180620004b46000396000f3fe6080604052600436106101665760003560e01c80635cc3224e116100d1578063a9059cbb1161008a578063d68287df11610064578063d68287df146105b7578063dd62ed3e146105e0578063e6ea7dcc1461061d578063e8bedad91461065b57610166565b8063a9059cbb14610512578063b1ce8eab1461054f578063c7134a5c1461058c57610166565b80635cc3224e146103fb5780636e42afbe1461042657806370a082311461044257806382bea0ca1461047f57806395d89b41146104aa578063a457c2d7146104d557610166565b8063313ce56711610123578063313ce567146102b557806336dd8696146102e0578063395093511461031d57806339c3fb751461035a57806342a4fda8146103975780635598f8cc146103b357610166565b806306fdde031461016b578063095ea7b31461019657806318160ddd146101d357806323b872dd146101fe57806324d7806c1461023b57806325f3548a14610278575b600080fd5b34801561017757600080fd5b50610180610684565b60405161018d9190613bc8565b60405180910390f35b3480156101a257600080fd5b506101bd60048036038101906101b89190613c92565b610716565b6040516101ca9190613ced565b60405180910390f35b3480156101df57600080fd5b506101e8610739565b6040516101f59190613d17565b60405180910390f35b34801561020a57600080fd5b5061022560048036038101906102209190613d32565b610743565b6040516102329190613ced565b60405180910390f35b34801561024757600080fd5b50610262600480360381019061025d9190613d85565b610772565b60405161026f9190613ced565b60405180910390f35b34801561028457600080fd5b5061029f600480360381019061029a9190613d85565b6107cc565b6040516102ac9190614060565b60405180910390f35b3480156102c157600080fd5b506102ca610be2565b6040516102d7919061409e565b60405180910390f35b3480156102ec57600080fd5b5061030760048036038101906103029190613d85565b610beb565b6040516103149190614060565b60405180910390f35b34801561032957600080fd5b50610344600480360381019061033f9190613c92565b611001565b6040516103519190613ced565b60405180910390f35b34801561036657600080fd5b50610381600480360381019061037c91906141ee565b611038565b60405161038e9190613d17565b60405180910390f35b6103b160048036038101906103ac9190614300565b611348565b005b3480156103bf57600080fd5b506103da60048036038101906103d59190614300565b611558565b6040516103f29c9b9a9998979695949392919061449a565b60405180910390f35b34801561040757600080fd5b50610410611a50565b60405161041d9190614845565b60405180910390f35b610440600480360381019061043b9190614300565b611fa7565b005b34801561044e57600080fd5b5061046960048036038101906104649190613d85565b612205565b6040516104769190613d17565b60405180910390f35b34801561048b57600080fd5b5061049461224d565b6040516104a19190614867565b60405180910390f35b3480156104b657600080fd5b506104bf6124a9565b6040516104cc9190613bc8565b60405180910390f35b3480156104e157600080fd5b506104fc60048036038101906104f79190613c92565b61253b565b6040516105099190613ced565b60405180910390f35b34801561051e57600080fd5b5061053960048036038101906105349190613c92565b6125b2565b6040516105469190613ced565b60405180910390f35b34801561055b57600080fd5b5061057660048036038101906105719190613d85565b6125d5565b6040516105839190613ced565b60405180910390f35b34801561059857600080fd5b506105a161262b565b6040516105ae9190614060565b60405180910390f35b3480156105c357600080fd5b506105de60048036038101906105d99190613d85565b612914565b005b3480156105ec57600080fd5b5061060760048036038101906106029190614889565b6129ff565b6040516106149190613d17565b60405180910390f35b34801561062957600080fd5b50610644600480360381019061063f9190614300565b612a86565b6040516106529291906148c9565b60405180910390f35b34801561066757600080fd5b50610682600480360381019061067d9190614925565b612f1d565b005b606060038054610693906149d7565b80601f01602080910402602001604051908101604052809291908181526020018280546106bf906149d7565b801561070c5780601f106106e15761010080835404028352916020019161070c565b820191906000526020600020905b8154815290600101906020018083116106ef57829003601f168201915b5050505050905090565b6000806107216132e8565b905061072e8185856132f0565b600191505092915050565b6000600254905090565b60008061074e6132e8565b905061075b8582856134b9565b610766858585613545565b60019150509392505050565b6000600960009054906101000a900473ffffffffffffffffffffffffffffffffffffffff1673ffffffffffffffffffffffffffffffffffffffff168273ffffffffffffffffffffffffffffffffffffffff16149050919050565b6060600060085467ffffffffffffffff8111156107ec576107eb6140c3565b5b60405190808252806020026020018201604052801561082557816020015b61081261391b565b81526020019060019003908161080a5790505b5090506000805b600854811015610b26578473ffffffffffffffffffffffffffffffffffffffff166006600083815260200190815260200160002060030160009054906101000a900473ffffffffffffffffffffffffffffffffffffffff1673ffffffffffffffffffffffffffffffffffffffff1603610b13576006600082815260200190815260200160002060405180610120016040529081600082015481526020016001820160009054906101000a900460ff1660078111156108ed576108ec613ded565b5b60078111156108ff576108fe613ded565b5b81526020016001820160019054906101000a900473ffffffffffffffffffffffffffffffffffffffff1673ffffffffffffffffffffffffffffffffffffffff1673ffffffffffffffffffffffffffffffffffffffff1681526020016002820160009054906101000a900473ffffffffffffffffffffffffffffffffffffffff1673ffffffffffffffffffffffffffffffffffffffff1673ffffffffffffffffffffffffffffffffffffffff1681526020016003820160009054906101000a900473ffffffffffffffffffffffffffffffffffffffff1673ffffffffffffffffffffffffffffffffffffffff1673ffffffffffffffffffffffffffffffffffffffff168152602001600482018054610a15906149d7565b80601f0160208091040260200160405190810160405280929190818152602001828054610a41906149d7565b8015610a8e5780601f10610a6357610100808354040283529160200191610a8e565b820191906000526020600020905b815481529060010190602001808311610a7157829003601f168201915b5050505050815260200160058201548152602001600682015481526020016007820160009054906101000a900460ff166002811115610ad057610acf613ded565b5b6002811115610ae257610ae1613ded565b5b81525050838381518110610af957610af8614a08565b5b60200260200101819052508180610b0f90614a66565b9250505b8080610b1e90614a66565b91505061082c565b5060008167ffffffffffffffff811115610b4357610b426140c3565b5b604051908082528060200260200182016040528015610b7c57816020015b610b6961391b565b815260200190600190039081610b615790505b50905060005b82811015610bd657838181518110610b9d57610b9c614a08565b5b6020026020010151828281518110610bb857610bb7614a08565b5b60200260200101819052508080610bce90614a66565b915050610b82565b50809350505050919050565b60006012905090565b6060600060085467ffffffffffffffff811115610c0b57610c0a6140c3565b5b604051908082528060200260200182016040528015610c4457816020015b610c3161391b565b815260200190600190039081610c295790505b5090506000805b600854811015610f45578473ffffffffffffffffffffffffffffffffffffffff166006600083815260200190815260200160002060010160019054906101000a900473ffffffffffffffffffffffffffffffffffffffff1673ffffffffffffffffffffffffffffffffffffffff1603610f32576006600082815260200190815260200160002060405180610120016040529081600082015481526020016001820160009054906101000a900460ff166007811115610d0c57610d0b613ded565b5b6007811115610d1e57610d1d613ded565b5b81526020016001820160019054906101000a900473ffffffffffffffffffffffffffffffffffffffff1673ffffffffffffffffffffffffffffffffffffffff1673ffffffffffffffffffffffffffffffffffffffff1681526020016002820160009054906101000a900473ffffffffffffffffffffffffffffffffffffffff1673ffffffffffffffffffffffffffffffffffffffff1673ffffffffffffffffffffffffffffffffffffffff1681526020016003820160009054906101000a900473ffffffffffffffffffffffffffffffffffffffff1673ffffffffffffffffffffffffffffffffffffffff1673ffffffffffffffffffffffffffffffffffffffff168152602001600482018054610e34906149d7565b80601f0160208091040260200160405190810160405280929190818152602001828054610e60906149d7565b8015610ead5780601f10610e8257610100808354040283529160200191610ead565b820191906000526020600020905b815481529060010190602001808311610e9057829003601f168201915b5050505050815260200160058201548152602001600682015481526020016007820160009054906101000a900460ff166002811115610eef57610eee613ded565b5b6002811115610f0157610f00613ded565b5b81525050838381518110610f1857610f17614a08565b5b60200260200101819052508180610f2e90614a66565b9250505b8080610f3d90614a66565b915050610c4b565b5060008167ffffffffffffffff811115610f6257610f616140c3565b5b604051908082528060200260200182016040528015610f9b57816020015b610f8861391b565b815260200190600190039081610f805790505b50905060005b82811015610ff557838181518110610fbc57610fbb614a08565b5b6020026020010151828281518110610fd757610fd6614a08565b5b60200260200101819052508080610fed90614a66565b915050610fa1565b50809350505050919050565b60008061100c6132e8565b905061102d81858561101e85896129ff565b6110289190614aae565b6132f0565b600191505092915050565b6000600a60003373ffffffffffffffffffffffffffffffffffffffff1673ffffffffffffffffffffffffffffffffffffffff16815260200190815260200160002060009054906101000a900460ff166110c6576040517f08c379a00000000000000000000000000000000000000000000000000000000081526004016110bd90614b2e565b60405180910390fd5b60004340426007546040516020016110e093929190614b9a565b6040516020818303038152906040528051906020012060001c905060006040518061018001604052808381526020018b73ffffffffffffffffffffffffffffffffffffffff1681526020018a815260200189815260200188815260200187815260200186815260200160008152602001428152602001858152602001600067ffffffffffffffff811115611177576111766140c3565b5b6040519080825280602002602001820160405280156111a55781602001602082028036833780820191505090505b508152602001600067ffffffffffffffff8111156111c6576111c56140c3565b5b6040519080825280602002602001820160405280156111f45781602001602082028036833780820191505090505b50815250905080600560008481526020019081526020016000206000820151816000015560208201518160010160006101000a81548173ffffffffffffffffffffffffffffffffffffffff021916908373ffffffffffffffffffffffffffffffffffffffff16021790555060408201518160020190816112749190614d83565b50606082015181600301908161128a9190614d83565b5060808201518160040190816112a09190614d83565b5060a08201518160050190816112b69190614d83565b5060c0820151816006015560e082015181600701556101008201518160080155610120820151816009015561014082015181600a0190805190602001906112fe9291906139cd565b5061016082015181600b01908051906020019061131c929190613a57565b509050506007600081548092919061133390614a66565b91905055508192505050979650505050505050565b600073ffffffffffffffffffffffffffffffffffffffff166005600083815260200190815260200160002060010160009054906101000a900473ffffffffffffffffffffffffffffffffffffffff1673ffffffffffffffffffffffffffffffffffffffff16036113ed576040517f08c379a00000000000000000000000000000000000000000000000000000000081526004016113e490614ec7565b60405180910390fd5b6005600082815260200190815260200160002060010160009054906101000a900473ffffffffffffffffffffffffffffffffffffffff1673ffffffffffffffffffffffffffffffffffffffff166108fc349081150290604051600060405180830381858888f19350505050158015611469573d6000803e3d6000fd5b5061147433346137bb565b60056000828152602001908152602001600020600a01339080600181540180825580915050600190039060005260206000200160009091909190916101000a81548173ffffffffffffffffffffffffffffffffffffffff021916908373ffffffffffffffffffffffffffffffffffffffff16021790555060056000828152602001908152602001600020600b013490806001815401808255809150506001900390600052602060002001600090919091909150553460056000838152602001908152602001600020600701600082825461154e9190614aae565b9250508190555050565b600080606080606080600080600080606080600073ffffffffffffffffffffffffffffffffffffffff16600560008f815260200190815260200160002060010160009054906101000a900473ffffffffffffffffffffffffffffffffffffffff1673ffffffffffffffffffffffffffffffffffffffff160361160f576040517f08c379a000000000000000000000000000000000000000000000000000000000815260040161160690614ec7565b60405180910390fd5b6000600560008f815260200190815260200160002060405180610180016040529081600082015481526020016001820160009054906101000a900473ffffffffffffffffffffffffffffffffffffffff1673ffffffffffffffffffffffffffffffffffffffff1673ffffffffffffffffffffffffffffffffffffffff1681526020016002820180546116a0906149d7565b80601f01602080910402602001604051908101604052809291908181526020018280546116cc906149d7565b80156117195780601f106116ee57610100808354040283529160200191611719565b820191906000526020600020905b8154815290600101906020018083116116fc57829003601f168201915b50505050508152602001600382018054611732906149d7565b80601f016020809104026020016040519081016040528092919081815260200182805461175e906149d7565b80156117ab5780601f10611780576101008083540402835291602001916117ab565b820191906000526020600020905b81548152906001019060200180831161178e57829003601f168201915b505050505081526020016004820180546117c4906149d7565b80601f01602080910402602001604051908101604052809291908181526020018280546117f0906149d7565b801561183d5780601f106118125761010080835404028352916020019161183d565b820191906000526020600020905b81548152906001019060200180831161182057829003601f168201915b50505050508152602001600582018054611856906149d7565b80601f0160208091040260200160405190810160405280929190818152602001828054611882906149d7565b80156118cf5780601f106118a4576101008083540402835291602001916118cf565b820191906000526020600020905b8154815290600101906020018083116118b257829003601f168201915b5050505050815260200160068201548152602001600782015481526020016008820154815260200160098201548152602001600a820180548060200260200160405190810160405280929190818152602001828054801561198557602002820191906000526020600020905b8160009054906101000a900473ffffffffffffffffffffffffffffffffffffffff1673ffffffffffffffffffffffffffffffffffffffff168152602001906001019080831161193b575b50505050508152602001600b82018054806020026020016040519081016040528092919081815260200182805480156119dd57602002820191906000526020600020905b8154815260200190600101908083116119c9575b5050505050815250509050806000015181602001518260400151836060015184608001518560a001518660c001518760e001518861010001518961012001518a61014001518b61016001519c509c509c509c509c509c509c509c509c509c509c509c505091939597999b5091939597999b565b6060600060075467ffffffffffffffff811115611a7057611a6f6140c3565b5b604051908082528060200260200182016040528015611aa957816020015b611a96613aa4565b815260200190600190039081611a8e5790505b5090506000805b600754811015611eed574260056000838152602001908152602001600020600901541115611eda576005600082815260200190815260200160002060405180610180016040529081600082015481526020016001820160009054906101000a900473ffffffffffffffffffffffffffffffffffffffff1673ffffffffffffffffffffffffffffffffffffffff1673ffffffffffffffffffffffffffffffffffffffff168152602001600282018054611b67906149d7565b80601f0160208091040260200160405190810160405280929190818152602001828054611b93906149d7565b8015611be05780601f10611bb557610100808354040283529160200191611be0565b820191906000526020600020905b815481529060010190602001808311611bc357829003601f168201915b50505050508152602001600382018054611bf9906149d7565b80601f0160208091040260200160405190810160405280929190818152602001828054611c25906149d7565b8015611c725780601f10611c4757610100808354040283529160200191611c72565b820191906000526020600020905b815481529060010190602001808311611c5557829003601f168201915b50505050508152602001600482018054611c8b906149d7565b80601f0160208091040260200160405190810160405280929190818152602001828054611cb7906149d7565b8015611d045780601f10611cd957610100808354040283529160200191611d04565b820191906000526020600020905b815481529060010190602001808311611ce757829003601f168201915b50505050508152602001600582018054611d1d906149d7565b80601f0160208091040260200160405190810160405280929190818152602001828054611d49906149d7565b8015611d965780601f10611d6b57610100808354040283529160200191611d96565b820191906000526020600020905b815481529060010190602001808311611d7957829003601f168201915b5050505050815260200160068201548152602001600782015481526020016008820154815260200160098201548152602001600a8201805480602002602001604051908101604052809291908181526020018280548015611e4c57602002820191906000526020600020905b8160009054906101000a900473ffffffffffffffffffffffffffffffffffffffff1673ffffffffffffffffffffffffffffffffffffffff1681526020019060010190808311611e02575b50505050508152602001600b8201805480602002602001604051908101604052809291908181526020018280548015611ea457602002820191906000526020600020905b815481526020019060010190808311611e90575b505050505081525050838381518110611ec057611ebf614a08565b5b60200260200101819052508180611ed690614a66565b9250505b8080611ee590614a66565b915050611ab0565b5060008167ffffffffffffffff811115611f0a57611f096140c3565b5b604051908082528060200260200182016040528015611f4357816020015b611f30613aa4565b815260200190600190039081611f285790505b50905060005b82811015611f9d57838181518110611f6457611f63614a08565b5b6020026020010151828281518110611f7f57611f7e614a08565b5b60200260200101819052508080611f9590614a66565b915050611f49565b5080935050505090565b600073ffffffffffffffffffffffffffffffffffffffff166006600083815260200190815260200160002060010160019054906101000a900473ffffffffffffffffffffffffffffffffffffffff1673ffffffffffffffffffffffffffffffffffffffff160361204c576040517f08c379a000000000000000000000000000000000000000000000000000000000815260040161204390614f33565b60405180910390fd5b600073ffffffffffffffffffffffffffffffffffffffff166006600083815260200190815260200160002060030160009054906101000a900473ffffffffffffffffffffffffffffffffffffffff1673ffffffffffffffffffffffffffffffffffffffff16146120f1576040517f08c379a00000000000000000000000000000000000000000000000000000000081526004016120e890614f9f565b60405180910390fd5b6006600082815260200190815260200160002060030160009054906101000a900473ffffffffffffffffffffffffffffffffffffffff1673ffffffffffffffffffffffffffffffffffffffff166108fc349081150290604051600060405180830381858888f1935050505015801561216d573d6000803e3d6000fd5b50336006600083815260200190815260200160002060030160006101000a81548173ffffffffffffffffffffffffffffffffffffffff021916908373ffffffffffffffffffffffffffffffffffffffff16021790555060026006600083815260200190815260200160002060070160006101000a81548160ff021916908360028111156121fd576121fc613ded565b5b021790555050565b60008060008373ffffffffffffffffffffffffffffffffffffffff1673ffffffffffffffffffffffffffffffffffffffff168152602001908152602001600020549050919050565b6060600a60003373ffffffffffffffffffffffffffffffffffffffff1673ffffffffffffffffffffffffffffffffffffffff16815260200190815260200160002060009054906101000a900460ff166122db576040517f08c379a00000000000000000000000000000000000000000000000000000000081526004016122d290614b2e565b60405180910390fd5b600060075467ffffffffffffffff8111156122f9576122f86140c3565b5b6040519080825280602002602001820160405280156123275781602001602082028036833780820191505090505b5090506000805b6007548110156123f9573373ffffffffffffffffffffffffffffffffffffffff166005600083815260200190815260200160002060010160009054906101000a900473ffffffffffffffffffffffffffffffffffffffff1673ffffffffffffffffffffffffffffffffffffffff16036123e65760056000828152602001908152602001600020600001548383815181106123cb576123ca614a08565b5b60200260200101818152505081806123e290614a66565b9250505b80806123f190614a66565b91505061232e565b5060008167ffffffffffffffff811115612416576124156140c3565b5b6040519080825280602002602001820160405280156124445781602001602082028036833780820191505090505b50905060005b8281101561249f5783818151811061246557612464614a08565b5b60200260200101518282815181106124805761247f614a08565b5b602002602001018181525050808061249790614a66565b91505061244a565b5080935050505090565b6060600480546124b8906149d7565b80601f01602080910402602001604051908101604052809291908181526020018280546124e4906149d7565b80156125315780601f1061250657610100808354040283529160200191612531565b820191906000526020600020905b81548152906001019060200180831161251457829003601f168201915b5050505050905090565b6000806125466132e8565b9050600061255482866129ff565b905083811015612599576040517f08c379a000000000000000000000000000000000000000000000000000000000815260040161259090615031565b60405180910390fd5b6125a682868684036132f0565b60019250505092915050565b6000806125bd6132e8565b90506125ca818585613545565b600191505092915050565b6000600a60008373ffffffffffffffffffffffffffffffffffffffff1673ffffffffffffffffffffffffffffffffffffffff16815260200190815260200160002060009054906101000a900460ff169050919050565b6060600060085467ffffffffffffffff81111561264b5761264a6140c3565b5b60405190808252806020026020018201604052801561268457816020015b61267161391b565b8152602001906001900390816126695790505b50905060005b60085481101561290c576006600082815260200190815260200160002060405180610120016040529081600082015481526020016001820160009054906101000a900460ff1660078111156126e2576126e1613ded565b5b60078111156126f4576126f3613ded565b5b81526020016001820160019054906101000a900473ffffffffffffffffffffffffffffffffffffffff1673ffffffffffffffffffffffffffffffffffffffff1673ffffffffffffffffffffffffffffffffffffffff1681526020016002820160009054906101000a900473ffffffffffffffffffffffffffffffffffffffff1673ffffffffffffffffffffffffffffffffffffffff1673ffffffffffffffffffffffffffffffffffffffff1681526020016003820160009054906101000a900473ffffffffffffffffffffffffffffffffffffffff1673ffffffffffffffffffffffffffffffffffffffff1673ffffffffffffffffffffffffffffffffffffffff16815260200160048201805461280a906149d7565b80601f0160208091040260200160405190810160405280929190818152602001828054612836906149d7565b80156128835780601f1061285857610100808354040283529160200191612883565b820191906000526020600020905b81548152906001019060200180831161286657829003601f168201915b5050505050815260200160058201548152602001600682015481526020016007820160009054906101000a900460ff1660028111156128c5576128c4613ded565b5b60028111156128d7576128d6613ded565b5b815250508282815181106128ee576128ed614a08565b5b6020026020010181905250808061290490614a66565b91505061268a565b508091505090565b600960009054906101000a900473ffffffffffffffffffffffffffffffffffffffff1673ffffffffffffffffffffffffffffffffffffffff163373ffffffffffffffffffffffffffffffffffffffff16146129a4576040517f08c379a000000000000000000000000000000000000000000000000000000000815260040161299b9061509d565b60405180910390fd5b6001600a60008373ffffffffffffffffffffffffffffffffffffffff1673ffffffffffffffffffffffffffffffffffffffff16815260200190815260200160002060006101000a81548160ff02191690831515021790555050565b6000600160008473ffffffffffffffffffffffffffffffffffffffff1673ffffffffffffffffffffffffffffffffffffffff16815260200190815260200160002060008373ffffffffffffffffffffffffffffffffffffffff1673ffffffffffffffffffffffffffffffffffffffff16815260200190815260200160002054905092915050565b606080600073ffffffffffffffffffffffffffffffffffffffff166005600085815260200190815260200160002060010160009054906101000a900473ffffffffffffffffffffffffffffffffffffffff1673ffffffffffffffffffffffffffffffffffffffff1603612b2e576040517f08c379a0000000000000000000000000000000000000000000000000000000008152600401612b2590614ec7565b60405180910390fd5b60006005600085815260200190815260200160002060405180610180016040529081600082015481526020016001820160009054906101000a900473ffffffffffffffffffffffffffffffffffffffff1673ffffffffffffffffffffffffffffffffffffffff1673ffffffffffffffffffffffffffffffffffffffff168152602001600282018054612bbf906149d7565b80601f0160208091040260200160405190810160405280929190818152602001828054612beb906149d7565b8015612c385780601f10612c0d57610100808354040283529160200191612c38565b820191906000526020600020905b815481529060010190602001808311612c1b57829003601f168201915b50505050508152602001600382018054612c51906149d7565b80601f0160208091040260200160405190810160405280929190818152602001828054612c7d906149d7565b8015612cca5780601f10612c9f57610100808354040283529160200191612cca565b820191906000526020600020905b815481529060010190602001808311612cad57829003601f168201915b50505050508152602001600482018054612ce3906149d7565b80601f0160208091040260200160405190810160405280929190818152602001828054612d0f906149d7565b8015612d5c5780601f10612d3157610100808354040283529160200191612d5c565b820191906000526020600020905b815481529060010190602001808311612d3f57829003601f168201915b50505050508152602001600582018054612d75906149d7565b80601f0160208091040260200160405190810160405280929190818152602001828054612da1906149d7565b8015612dee5780601f10612dc357610100808354040283529160200191612dee565b820191906000526020600020905b815481529060010190602001808311612dd157829003601f168201915b5050505050815260200160068201548152602001600782015481526020016008820154815260200160098201548152602001600a8201805480602002602001604051908101604052809291908181526020018280548015612ea457602002820191906000526020600020905b8160009054906101000a900473ffffffffffffffffffffffffffffffffffffffff1673ffffffffffffffffffffffffffffffffffffffff1681526020019060010190808311612e5a575b50505050508152602001600b8201805480602002602001604051908101604052809291908181526020018280548015612efc57602002820191906000526020600020905b815481526020019060010190808311612ee8575b50505050508152505090508061014001518161016001519250925050915091565b600a60003373ffffffffffffffffffffffffffffffffffffffff1673ffffffffffffffffffffffffffffffffffffffff16815260200190815260200160002060009054906101000a900460ff16612fa9576040517f08c379a0000000000000000000000000000000000000000000000000000000008152600401612fa090614b2e565b60405180910390fd5b600073ffffffffffffffffffffffffffffffffffffffff166006600086815260200190815260200160002060010160019054906101000a900473ffffffffffffffffffffffffffffffffffffffff1673ffffffffffffffffffffffffffffffffffffffff161461304e576040517f08c379a000000000000000000000000000000000000000000000000000000000815260040161304590615109565b60405180910390fd5b600060405180610120016040528086815260200184600781111561307557613074613ded565b5b600781111561308757613086613ded565b5b600781111561309957613098613ded565b5b81526020018573ffffffffffffffffffffffffffffffffffffffff1681526020013373ffffffffffffffffffffffffffffffffffffffff168152602001600073ffffffffffffffffffffffffffffffffffffffff168152602001838152602001428152602001600081526020016000600281111561311a57613119613ded565b5b815250905080600660008781526020019081526020016000206000820151816000015560208201518160010160006101000a81548160ff0219169083600781111561316857613167613ded565b5b021790555060408201518160010160016101000a81548173ffffffffffffffffffffffffffffffffffffffff021916908373ffffffffffffffffffffffffffffffffffffffff16021790555060608201518160020160006101000a81548173ffffffffffffffffffffffffffffffffffffffff021916908373ffffffffffffffffffffffffffffffffffffffff16021790555060808201518160030160006101000a81548173ffffffffffffffffffffffffffffffffffffffff021916908373ffffffffffffffffffffffffffffffffffffffff16021790555060a08201518160040190816132579190614d83565b5060c0820151816005015560e082015181600601556101008201518160070160006101000a81548160ff0219169083600281111561329857613297613ded565b5b0217905550905050600860008154809291906132b390614a66565b91905055506132e1846132c4610be2565b600a6132d0919061525c565b60646132dc91906152a7565b6137bb565b5050505050565b600033905090565b600073ffffffffffffffffffffffffffffffffffffffff168373ffffffffffffffffffffffffffffffffffffffff160361335f576040517f08c379a00000000000000000000000000000000000000000000000000000000081526004016133569061535b565b60405180910390fd5b600073ffffffffffffffffffffffffffffffffffffffff168273ffffffffffffffffffffffffffffffffffffffff16036133ce576040517f08c379a00000000000000000000000000000000000000000000000000000000081526004016133c5906153ed565b60405180910390fd5b80600160008573ffffffffffffffffffffffffffffffffffffffff1673ffffffffffffffffffffffffffffffffffffffff16815260200190815260200160002060008473ffffffffffffffffffffffffffffffffffffffff1673ffffffffffffffffffffffffffffffffffffffff168152602001908152602001600020819055508173ffffffffffffffffffffffffffffffffffffffff168373ffffffffffffffffffffffffffffffffffffffff167f8c5be1e5ebec7d5bd14f71427d1e84f3dd0314c0f7b2291e5b200ac8c7c3b925836040516134ac9190613d17565b60405180910390a3505050565b60006134c584846129ff565b90507fffffffffffffffffffffffffffffffffffffffffffffffffffffffffffffffff811461353f5781811015613531576040517f08c379a000000000000000000000000000000000000000000000000000000000815260040161352890615459565b60405180910390fd5b61353e84848484036132f0565b5b50505050565b600073ffffffffffffffffffffffffffffffffffffffff168373ffffffffffffffffffffffffffffffffffffffff16036135b4576040517f08c379a00000000000000000000000000000000000000000000000000000000081526004016135ab906154eb565b60405180910390fd5b600073ffffffffffffffffffffffffffffffffffffffff168273ffffffffffffffffffffffffffffffffffffffff1603613623576040517f08c379a000000000000000000000000000000000000000000000000000000000815260040161361a9061557d565b60405180910390fd5b61362e838383613911565b60008060008573ffffffffffffffffffffffffffffffffffffffff1673ffffffffffffffffffffffffffffffffffffffff168152602001908152602001600020549050818110156136b4576040517f08c379a00000000000000000000000000000000000000000000000000000000081526004016136ab9061560f565b60405180910390fd5b8181036000808673ffffffffffffffffffffffffffffffffffffffff1673ffffffffffffffffffffffffffffffffffffffff16815260200190815260200160002081905550816000808573ffffffffffffffffffffffffffffffffffffffff1673ffffffffffffffffffffffffffffffffffffffff168152602001908152602001600020600082825401925050819055508273ffffffffffffffffffffffffffffffffffffffff168473ffffffffffffffffffffffffffffffffffffffff167fddf252ad1be2c89b69c2b068fc378daa952ba7f163c4a11628f55a4df523b3ef846040516137a29190613d17565b60405180910390a36137b5848484613916565b50505050565b600073ffffffffffffffffffffffffffffffffffffffff168273ffffffffffffffffffffffffffffffffffffffff160361382a576040517f08c379a00000000000000000000000000000000000000000000000000000000081526004016138219061567b565b60405180910390fd5b61383660008383613911565b80600260008282546138489190614aae565b92505081905550806000808473ffffffffffffffffffffffffffffffffffffffff1673ffffffffffffffffffffffffffffffffffffffff168152602001908152602001600020600082825401925050819055508173ffffffffffffffffffffffffffffffffffffffff16600073ffffffffffffffffffffffffffffffffffffffff167fddf252ad1be2c89b69c2b068fc378daa952ba7f163c4a11628f55a4df523b3ef836040516138f99190613d17565b60405180910390a361390d60008383613916565b5050565b505050565b505050565b604051806101200160405280600081526020016000600781111561394257613941613ded565b5b8152602001600073ffffffffffffffffffffffffffffffffffffffff168152602001600073ffffffffffffffffffffffffffffffffffffffff168152602001600073ffffffffffffffffffffffffffffffffffffffff168152602001606081526020016000815260200160008152602001600060028111156139c7576139c6613ded565b5b81525090565b828054828255906000526020600020908101928215613a46579160200282015b82811115613a455782518260006101000a81548173ffffffffffffffffffffffffffffffffffffffff021916908373ffffffffffffffffffffffffffffffffffffffff160217905550916020019190600101906139ed565b5b509050613a539190613b1b565b5090565b828054828255906000526020600020908101928215613a93579160200282015b82811115613a92578251825591602001919060010190613a77565b5b509050613aa09190613b1b565b5090565b60405180610180016040528060008152602001600073ffffffffffffffffffffffffffffffffffffffff168152602001606081526020016060815260200160608152602001606081526020016000815260200160008152602001600081526020016000815260200160608152602001606081525090565b5b80821115613b34576000816000905550600101613b1c565b5090565b600081519050919050565b600082825260208201905092915050565b60005b83811015613b72578082015181840152602081019050613b57565b60008484015250505050565b6000601f19601f8301169050919050565b6000613b9a82613b38565b613ba48185613b43565b9350613bb4818560208601613b54565b613bbd81613b7e565b840191505092915050565b60006020820190508181036000830152613be28184613b8f565b905092915050565b6000604051905090565b600080fd5b600080fd5b600073ffffffffffffffffffffffffffffffffffffffff82169050919050565b6000613c2982613bfe565b9050919050565b613c3981613c1e565b8114613c4457600080fd5b50565b600081359050613c5681613c30565b92915050565b6000819050919050565b613c6f81613c5c565b8114613c7a57600080fd5b50565b600081359050613c8c81613c66565b92915050565b60008060408385031215613ca957613ca8613bf4565b5b6000613cb785828601613c47565b9250506020613cc885828601613c7d565b9150509250929050565b60008115159050919050565b613ce781613cd2565b82525050565b6000602082019050613d026000830184613cde565b92915050565b613d1181613c5c565b82525050565b6000602082019050613d2c6000830184613d08565b92915050565b600080600060608486031215613d4b57613d4a613bf4565b5b6000613d5986828701613c47565b9350506020613d6a86828701613c47565b9250506040613d7b86828701613c7d565b9150509250925092565b600060208284031215613d9b57613d9a613bf4565b5b6000613da984828501613c47565b91505092915050565b600081519050919050565b600082825260208201905092915050565b6000819050602082019050919050565b613de781613c5c565b82525050565b7f4e487b7100000000000000000000000000000000000000000000000000000000600052602160045260246000fd5b60088110613e2d57613e2c613ded565b5b50565b6000819050613e3e82613e1c565b919050565b6000613e4e82613e30565b9050919050565b613e5e81613e43565b82525050565b613e6d81613c1e565b82525050565b600082825260208201905092915050565b6000613e8f82613b38565b613e998185613e73565b9350613ea9818560208601613b54565b613eb281613b7e565b840191505092915050565b60038110613ece57613ecd613ded565b5b50565b6000819050613edf82613ebd565b919050565b6000613eef82613ed1565b9050919050565b613eff81613ee4565b82525050565b600061012083016000830151613f1e6000860182613dde565b506020830151613f316020860182613e55565b506040830151613f446040860182613e64565b506060830151613f576060860182613e64565b506080830151613f6a6080860182613e64565b5060a083015184820360a0860152613f828282613e84565b91505060c0830151613f9760c0860182613dde565b5060e0830151613faa60e0860182613dde565b50610100830151613fbf610100860182613ef6565b508091505092915050565b6000613fd68383613f05565b905092915050565b6000602082019050919050565b6000613ff682613db2565b6140008185613dbd565b93508360208202850161401285613dce565b8060005b8581101561404e578484038952815161402f8582613fca565b945061403a83613fde565b925060208a01995050600181019050614016565b50829750879550505050505092915050565b6000602082019050818103600083015261407a8184613feb565b905092915050565b600060ff82169050919050565b61409881614082565b82525050565b60006020820190506140b3600083018461408f565b92915050565b600080fd5b600080fd5b7f4e487b7100000000000000000000000000000000000000000000000000000000600052604160045260246000fd5b6140fb82613b7e565b810181811067ffffffffffffffff8211171561411a576141196140c3565b5b80604052505050565b600061412d613bea565b905061413982826140f2565b919050565b600067ffffffffffffffff821115614159576141586140c3565b5b61416282613b7e565b9050602081019050919050565b82818337600083830152505050565b600061419161418c8461413e565b614123565b9050828152602081018484840111156141ad576141ac6140be565b5b6141b884828561416f565b509392505050565b600082601f8301126141d5576141d46140b9565b5b81356141e584826020860161417e565b91505092915050565b600080600080600080600060e0888a03121561420d5761420c613bf4565b5b600061421b8a828b01613c47565b975050602088013567ffffffffffffffff81111561423c5761423b613bf9565b5b6142488a828b016141c0565b965050604088013567ffffffffffffffff81111561426957614268613bf9565b5b6142758a828b016141c0565b955050606088013567ffffffffffffffff81111561429657614295613bf9565b5b6142a28a828b016141c0565b945050608088013567ffffffffffffffff8111156142c3576142c2613bf9565b5b6142cf8a828b016141c0565b93505060a06142e08a828b01613c7d565b92505060c06142f18a828b01613c7d565b91505092959891949750929550565b60006020828403121561431657614315613bf4565b5b600061432484828501613c7d565b91505092915050565b61433681613c1e565b82525050565b600081519050919050565b600082825260208201905092915050565b6000819050602082019050919050565b60006143748383613e64565b60208301905092915050565b6000602082019050919050565b60006143988261433c565b6143a28185614347565b93506143ad83614358565b8060005b838110156143de5781516143c58882614368565b97506143d083614380565b9250506001810190506143b1565b5085935050505092915050565b600081519050919050565b600082825260208201905092915050565b6000819050602082019050919050565b60006144238383613dde565b60208301905092915050565b6000602082019050919050565b6000614447826143eb565b61445181856143f6565b935061445c83614407565b8060005b8381101561448d5781516144748882614417565b975061447f8361442f565b925050600181019050614460565b5085935050505092915050565b6000610180820190506144b0600083018f613d08565b6144bd602083018e61432d565b81810360408301526144cf818d613b8f565b905081810360608301526144e3818c613b8f565b905081810360808301526144f7818b613b8f565b905081810360a083015261450b818a613b8f565b905061451a60c0830189613d08565b61452760e0830188613d08565b614535610100830187613d08565b614543610120830186613d08565b818103610140830152614556818561438d565b905081810361016083015261456b818461443c565b90509d9c50505050505050505050505050565b600081519050919050565b600082825260208201905092915050565b6000819050602082019050919050565b600082825260208201905092915050565b60006145c68261433c565b6145d081856145aa565b93506145db83614358565b8060005b8381101561460c5781516145f38882614368565b97506145fe83614380565b9250506001810190506145df565b5085935050505092915050565b600082825260208201905092915050565b6000614635826143eb565b61463f8185614619565b935061464a83614407565b8060005b8381101561467b5781516146628882614417565b975061466d8361442f565b92505060018101905061464e565b5085935050505092915050565b6000610180830160008301516146a16000860182613dde565b5060208301516146b46020860182613e64565b50604083015184820360408601526146cc8282613e84565b915050606083015184820360608601526146e68282613e84565b915050608083015184820360808601526147008282613e84565b91505060a083015184820360a086015261471a8282613e84565b91505060c083015161472f60c0860182613dde565b5060e083015161474260e0860182613dde565b50610100830151614757610100860182613dde565b5061012083015161476c610120860182613dde565b5061014083015184820361014086015261478682826145bb565b9150506101608301518482036101608601526147a2828261462a565b9150508091505092915050565b60006147bb8383614688565b905092915050565b6000602082019050919050565b60006147db8261457e565b6147e58185614589565b9350836020820285016147f78561459a565b8060005b85811015614833578484038952815161481485826147af565b945061481f836147c3565b925060208a019950506001810190506147fb565b50829750879550505050505092915050565b6000602082019050818103600083015261485f81846147d0565b905092915050565b60006020820190508181036000830152614881818461443c565b905092915050565b600080604083850312156148a05761489f613bf4565b5b60006148ae85828601613c47565b92505060206148bf85828601613c47565b9150509250929050565b600060408201905081810360008301526148e3818561438d565b905081810360208301526148f7818461443c565b90509392505050565b6008811061490d57600080fd5b50565b60008135905061491f81614900565b92915050565b6000806000806080858703121561493f5761493e613bf4565b5b600061494d87828801613c7d565b945050602061495e87828801613c47565b935050604061496f87828801614910565b925050606085013567ffffffffffffffff8111156149905761498f613bf9565b5b61499c878288016141c0565b91505092959194509250565b7f4e487b7100000000000000000000000000000000000000000000000000000000600052602260045260246000fd5b600060028204905060018216806149ef57607f821691505b602082108103614a0257614a016149a8565b5b50919050565b7f4e487b7100000000000000000000000000000000000000000000000000000000600052603260045260246000fd5b7f4e487b7100000000000000000000000000000000000000000000000000000000600052601160045260246000fd5b6000614a7182613c5c565b91507fffffffffffffffffffffffffffffffffffffffffffffffffffffffffffffffff8203614aa357614aa2614a37565b5b600182019050919050565b6000614ab982613c5c565b9150614ac483613c5c565b9250828201905080821115614adc57614adb614a37565b5b92915050565b7f43616c6c6572206973206e6f7420616e206f7267616e697a6174696f6e000000600082015250565b6000614b18601d83613b43565b9150614b2382614ae2565b602082019050919050565b60006020820190508181036000830152614b4781614b0b565b9050919050565b6000819050919050565b6000819050919050565b614b73614b6e82614b4e565b614b58565b82525050565b6000819050919050565b614b94614b8f82613c5c565b614b79565b82525050565b6000614ba68286614b62565b602082019150614bb68285614b83565b602082019150614bc68284614b83565b602082019150819050949350505050565b60008190508160005260206000209050919050565b60006020601f8301049050919050565b600082821b905092915050565b600060088302614c397fffffffffffffffffffffffffffffffffffffffffffffffffffffffffffffffff82614bfc565b614c438683614bfc565b95508019841693508086168417925050509392505050565b6000819050919050565b6000614c80614c7b614c7684613c5c565b614c5b565b613c5c565b9050919050565b6000819050919050565b614c9a83614c65565b614cae614ca682614c87565b848454614c09565b825550505050565b600090565b614cc3614cb6565b614cce818484614c91565b505050565b5b81811015614cf257614ce7600082614cbb565b600181019050614cd4565b5050565b601f821115614d3757614d0881614bd7565b614d1184614bec565b81016020851015614d20578190505b614d34614d2c85614bec565b830182614cd3565b50505b505050565b600082821c905092915050565b6000614d5a60001984600802614d3c565b1980831691505092915050565b6000614d738383614d49565b9150826002028217905092915050565b614d8c82613b38565b67ffffffffffffffff811115614da557614da46140c3565b5b614daf82546149d7565b614dba828285614cf6565b600060209050601f831160018114614ded5760008415614ddb578287015190505b614de58582614d67565b865550614e4d565b601f198416614dfb86614bd7565b60005b82811015614e2357848901518255600182019150602085019450602081019050614dfe565b86831015614e405784890151614e3c601f891682614d49565b8355505b6001600288020188555050505b505050505050565b7f546865207370656369666965642063616d706169676e20494420646f6573206e60008201527f6f74206578697374000000000000000000000000000000000000000000000000602082015250565b6000614eb1602883613b43565b9150614ebc82614e55565b604082019050919050565b60006020820190508181036000830152614ee081614ea4565b9050919050565b7f506f75636820494420646f6573206e6f74206578697374000000000000000000600082015250565b6000614f1d601783613b43565b9150614f2882614ee7565b602082019050919050565b60006020820190508181036000830152614f4c81614f10565b9050919050565b7f506f75636820616c726561647920686173206120726563656976657200000000600082015250565b6000614f89601c83613b43565b9150614f9482614f53565b602082019050919050565b60006020820190508181036000830152614fb881614f7c565b9050919050565b7f45524332303a2064656372656173656420616c6c6f77616e63652062656c6f7760008201527f207a65726f000000000000000000000000000000000000000000000000000000602082015250565b600061501b602583613b43565b915061502682614fbf565b604082019050919050565b6000602082019050818103600083015261504a8161500e565b9050919050565b7f4f6e6c792061646d696e2063616e20616464206f7267616e697a6174696f6e00600082015250565b6000615087601f83613b43565b915061509282615051565b602082019050919050565b600060208201905081810360008301526150b68161507a565b9050919050565b7f506f75636820494420616c726561647920757365640000000000000000000000600082015250565b60006150f3601583613b43565b91506150fe826150bd565b602082019050919050565b60006020820190508181036000830152615122816150e6565b9050919050565b60008160011c9050919050565b6000808291508390505b60018511156151805780860481111561515c5761515b614a37565b5b600185161561516b5780820291505b808102905061517985615129565b9450615140565b94509492505050565b6000826151995760019050615255565b816151a75760009050615255565b81600181146151bd57600281146151c7576151f6565b6001915050615255565b60ff8411156151d9576151d8614a37565b5b8360020a9150848211156151f0576151ef614a37565b5b50615255565b5060208310610133831016604e8410600b841016171561522b5782820a90508381111561522657615225614a37565b5b615255565b6152388484846001615136565b9250905081840481111561524f5761524e614a37565b5b81810290505b9392505050565b600061526782613c5c565b915061527283614082565b925061529f7fffffffffffffffffffffffffffffffffffffffffffffffffffffffffffffffff8484615189565b905092915050565b60006152b282613c5c565b91506152bd83613c5c565b92508282026152cb81613c5c565b915082820484148315176152e2576152e1614a37565b5b5092915050565b7f45524332303a20617070726f76652066726f6d20746865207a65726f2061646460008201527f7265737300000000000000000000000000000000000000000000000000000000602082015250565b6000615345602483613b43565b9150615350826152e9565b604082019050919050565b6000602082019050818103600083015261537481615338565b9050919050565b7f45524332303a20617070726f766520746f20746865207a65726f20616464726560008201527f7373000000000000000000000000000000000000000000000000000000000000602082015250565b60006153d7602283613b43565b91506153e28261537b565b604082019050919050565b60006020820190508181036000830152615406816153ca565b9050919050565b7f45524332303a20696e73756666696369656e7420616c6c6f77616e6365000000600082015250565b6000615443601d83613b43565b915061544e8261540d565b602082019050919050565b6000602082019050818103600083015261547281615436565b9050919050565b7f45524332303a207472616e736665722066726f6d20746865207a65726f20616460008201527f6472657373000000000000000000000000000000000000000000000000000000602082015250565b60006154d5602583613b43565b91506154e082615479565b604082019050919050565b60006020820190508181036000830152615504816154c8565b9050919050565b7f45524332303a207472616e7366657220746f20746865207a65726f206164647260008201527f6573730000000000000000000000000000000000000000000000000000000000602082015250565b6000615567602383613b43565b91506155728261550b565b604082019050919050565b600060208201905081810360008301526155968161555a565b9050919050565b7f45524332303a207472616e7366657220616d6f756e742065786365656473206260008201527f616c616e63650000000000000000000000000000000000000000000000000000602082015250565b60006155f9602683613b43565b91506156048261559d565b604082019050919050565b60006020820190508181036000830152615628816155ec565b9050919050565b7f45524332303a206d696e7420746f20746865207a65726f206164647265737300600082015250565b6000615665601f83613b43565b91506156708261562f565b602082019050919050565b6000602082019050818103600083015261569481615658565b905091905056fea264697066735822122065a6479c9c02ec19527724ce47e56585d0156ac6ddcabee9bf709124b4dd081d64736f6c63430008120033",
  "linkReferences": {},
  "deployedLinkReferences": {}
}