{
  "_format": "hh-sol-artifact-1",
  "contractName": "BloodDonation",
  "sourceName": "contracts/BloodDonation.sol",
  "abi": [
    {
      "inputs": [],
      "stateMutability": "nonpayable",
      "type": "constructor"
    },
    {
      "anonymous": false,
      "inputs": [
        {
          "indexed": true,
          "internalType": "address",
          "name": "owner",
          "type": "address"
        },
        {
          "indexed": true,
          "internalType": "address",
          "name": "spender",
          "type": "address"
        },
        {
          "indexed": false,
          "internalType": "uint256",
          "name": "value",
          "type": "uint256"
        }
      ],
      "name": "Approval",
      "type": "event"
    },
    {
      "anonymous": false,
      "inputs": [
        {
          "indexed": true,
          "internalType": "address",
          "name": "from",
          "type": "address"
        },
        {
          "indexed": true,
          "internalType": "address",
          "name": "to",
          "type": "address"
        },
        {
          "indexed": false,
          "internalType": "uint256",
          "name": "value",
          "type": "uint256"
        }
      ],
      "name": "Transfer",
      "type": "event"
    },
    {
      "inputs": [
        {
          "internalType": "address",
          "name": "_adminAddress",
          "type": "address"
        }
      ],
      "name": "addOrganization",
      "outputs": [],
      "stateMutability": "nonpayable",
      "type": "function"
    },
    {
      "inputs": [
        {
          "internalType": "address",
          "name": "owner",
          "type": "address"
        },
        {
          "internalType": "address",
          "name": "spender",
          "type": "address"
        }
      ],
      "name": "allowance",
      "outputs": [
        {
          "internalType": "uint256",
          "name": "",
          "type": "uint256"
        }
      ],
      "stateMutability": "view",
      "type": "function"
    },
    {
      "inputs": [
        {
          "internalType": "address",
          "name": "spender",
          "type": "address"
        },
        {
          "internalType": "uint256",
          "name": "amount",
          "type": "uint256"
        }
      ],
      "name": "approve",
      "outputs": [
        {
          "internalType": "bool",
          "name": "",
          "type": "bool"
        }
      ],
      "stateMutability": "nonpayable",
      "type": "function"
    },
    {
      "inputs": [
        {
          "internalType": "uint256",
          "name": "_pouchID",
          "type": "uint256"
        }
      ],
      "name": "assignReceiver",
      "outputs": [],
      "stateMutability": "payable",
      "type": "function"
    },
    {
      "inputs": [
        {
          "internalType": "address",
          "name": "account",
          "type": "address"
        }
      ],
      "name": "balanceOf",
      "outputs": [
        {
          "internalType": "uint256",
          "name": "",
          "type": "uint256"
        }
      ],
      "stateMutability": "view",
      "type": "function"
    },
    {
      "inputs": [
        {
          "internalType": "address",
          "name": "_owner",
          "type": "address"
        },
        {
          "internalType": "string",
          "name": "_title",
          "type": "string"
        },
        {
          "internalType": "string",
          "name": "_description",
          "type": "string"
        },
        {
          "internalType": "string",
          "name": "_imageId",
          "type": "string"
        },
        {
          "internalType": "string",
          "name": "_videoId",
          "type": "string"
        },
        {
          "internalType": "uint256",
          "name": "_targetAmount",
          "type": "uint256"
        },
        {
          "internalType": "uint256",
          "name": "_deadlineDate",
          "type": "uint256"
        }
      ],
      "name": "createCampaign",
      "outputs": [
        {
          "internalType": "uint256",
          "name": "",
          "type": "uint256"
        }
      ],
      "stateMutability": "nonpayable",
      "type": "function"
    },
    {
      "inputs": [],
      "name": "decimals",
      "outputs": [
        {
          "internalType": "uint8",
          "name": "",
          "type": "uint8"
        }
      ],
      "stateMutability": "view",
      "type": "function"
    },
    {
      "inputs": [
        {
          "internalType": "address",
          "name": "spender",
          "type": "address"
        },
        {
          "internalType": "uint256",
          "name": "subtractedValue",
          "type": "uint256"
        }
      ],
      "name": "decreaseAllowance",
      "outputs": [
        {
          "internalType": "bool",
          "name": "",
          "type": "bool"
        }
      ],
      "stateMutability": "nonpayable",
      "type": "function"
    },
    {
      "inputs": [
        {
          "internalType": "uint256",
          "name": "_id",
          "type": "uint256"
        }
      ],
      "name": "donateToCampaign",
      "outputs": [],
      "stateMutability": "payable",
      "type": "function"
    },
    {
      "inputs": [
        {
          "internalType": "address",
          "name": "_donorID",
          "type": "address"
        },
        {
          "internalType": "enum BloodDonation.BloodGroup",
          "name": "_bloodGroup",
          "type": "uint8"
        },
        {
          "internalType": "string",
          "name": "_details",
          "type": "string"
        }
      ],
      "name": "enterBloodDetails",
      "outputs": [
        {
          "internalType": "uint256",
          "name": "",
          "type": "uint256"
        }
      ],
      "stateMutability": "nonpayable",
      "type": "function"
    },
    {
      "inputs": [],
      "name": "getAllActiveCampaigns",
      "outputs": [
        {
          "components": [
            {
              "internalType": "uint256",
              "name": "id",
              "type": "uint256"
            },
            {
              "internalType": "address",
              "name": "owner",
              "type": "address"
            },
            {
              "internalType": "string",
              "name": "title",
              "type": "string"
            },
            {
              "internalType": "string",
              "name": "description",
              "type": "string"
            },
            {
              "internalType": "string",
              "name": "imageId",
              "type": "string"
            },
            {
              "internalType": "string",
              "name": "videoId",
              "type": "string"
            },
            {
              "internalType": "uint256",
              "name": "targetAmount",
              "type": "uint256"
            },
            {
              "internalType": "uint256",
              "name": "collectedAmount",
              "type": "uint256"
            },
            {
              "internalType": "uint256",
              "name": "creationDate",
              "type": "uint256"
            },
            {
              "internalType": "uint256",
              "name": "deadlineDate",
              "type": "uint256"
            },
            {
              "internalType": "address[]",
              "name": "donators",
              "type": "address[]"
            },
            {
              "internalType": "uint256[]",
              "name": "donations",
              "type": "uint256[]"
            }
          ],
          "internalType": "struct BloodDonation.Campaign[]",
          "name": "",
          "type": "tuple[]"
        }
      ],
      "stateMutability": "view",
      "type": "function"
    },
    {
      "inputs": [],
      "name": "getAllAvailablePouches",
      "outputs": [
        {
          "components": [
            {
              "internalType": "uint256",
              "name": "pouchID",
              "type": "uint256"
            },
            {
              "internalType": "enum BloodDonation.BloodGroup",
              "name": "bloodGroup",
              "type": "uint8"
            },
            {
              "internalType": "address",
              "name": "donorID",
              "type": "address"
            },
            {
              "internalType": "address",
              "name": "organizationID",
              "type": "address"
            },
            {
              "internalType": "address",
              "name": "receiverID",
              "type": "address"
            },
            {
              "internalType": "string",
              "name": "details",
              "type": "string"
            },
            {
              "internalType": "uint256",
              "name": "publishDate",
              "type": "uint256"
            },
            {
              "internalType": "uint256",
              "name": "receivedDate",
              "type": "uint256"
            },
            {
              "internalType": "enum BloodDonation.BloodStatus",
              "name": "status",
              "type": "uint8"
            }
          ],
          "internalType": "struct BloodDonation.BloodPouch[]",
          "name": "",
          "type": "tuple[]"
        }
      ],
      "stateMutability": "view",
      "type": "function"
    },
    {
      "inputs": [
        {
          "internalType": "uint256",
          "name": "_id",
          "type": "uint256"
        }
      ],
      "name": "getCampaign",
      "outputs": [
        {
          "internalType": "uint256",
          "name": "id",
          "type": "uint256"
        },
        {
          "internalType": "address",
          "name": "owner",
          "type": "address"
        },
        {
          "internalType": "string",
          "name": "title",
          "type": "string"
        },
        {
          "internalType": "string",
          "name": "description",
          "type": "string"
        },
        {
          "internalType": "string",
          "name": "imageId",
          "type": "string"
        },
        {
          "internalType": "string",
          "name": "videoId",
          "type": "string"
        },
        {
          "internalType": "uint256",
          "name": "targetAmount",
          "type": "uint256"
        },
        {
          "internalType": "uint256",
          "name": "collectedAmount",
          "type": "uint256"
        },
        {
          "internalType": "uint256",
          "name": "creationDate",
          "type": "uint256"
        },
        {
          "internalType": "uint256",
          "name": "deadlineDate",
          "type": "uint256"
        },
        {
          "internalType": "address[]",
          "name": "donators",
          "type": "address[]"
        },
        {
          "internalType": "uint256[]",
          "name": "donations",
          "type": "uint256[]"
        }
      ],
      "stateMutability": "view",
      "type": "function"
    },
    {
      "inputs": [
        {
          "internalType": "uint256",
          "name": "_id",
          "type": "uint256"
        }
      ],
      "name": "getCampaignDonators",
      "outputs": [
        {
          "internalType": "address[]",
          "name": "",
          "type": "address[]"
        },
        {
          "internalType": "uint256[]",
          "name": "",
          "type": "uint256[]"
        }
      ],
      "stateMutability": "view",
      "type": "function"
    },
    {
      "inputs": [],
      "name": "getMyCampaigns",
      "outputs": [
        {
          "components": [
            {
              "internalType": "uint256",
              "name": "id",
              "type": "uint256"
            },
            {
              "internalType": "address",
              "name": "owner",
              "type": "address"
            },
            {
              "internalType": "string",
              "name": "title",
              "type": "string"
            },
            {
              "internalType": "string",
              "name": "description",
              "type": "string"
            },
            {
              "internalType": "string",
              "name": "imageId",
              "type": "string"
            },
            {
              "internalType": "string",
              "name": "videoId",
              "type": "string"
            },
            {
              "internalType": "uint256",
              "name": "targetAmount",
              "type": "uint256"
            },
            {
              "internalType": "uint256",
              "name": "collectedAmount",
              "type": "uint256"
            },
            {
              "internalType": "uint256",
              "name": "creationDate",
              "type": "uint256"
            },
            {
              "internalType": "uint256",
              "name": "deadlineDate",
              "type": "uint256"
            },
            {
              "internalType": "address[]",
              "name": "donators",
              "type": "address[]"
            },
            {
              "internalType": "uint256[]",
              "name": "donations",
              "type": "uint256[]"
            }
          ],
          "internalType": "struct BloodDonation.Campaign[]",
          "name": "",
          "type": "tuple[]"
        }
      ],
      "stateMutability": "view",
      "type": "function"
    },
    {
      "inputs": [
        {
          "internalType": "address",
          "name": "_owner",
          "type": "address"
        }
      ],
      "name": "getMyPouches",
      "outputs": [
        {
          "components": [
            {
              "internalType": "uint256",
              "name": "pouchID",
              "type": "uint256"
            },
            {
              "internalType": "enum BloodDonation.BloodGroup",
              "name": "bloodGroup",
              "type": "uint8"
            },
            {
              "internalType": "address",
              "name": "donorID",
              "type": "address"
            },
            {
              "internalType": "address",
              "name": "organizationID",
              "type": "address"
            },
            {
              "internalType": "address",
              "name": "receiverID",
              "type": "address"
            },
            {
              "internalType": "string",
              "name": "details",
              "type": "string"
            },
            {
              "internalType": "uint256",
              "name": "publishDate",
              "type": "uint256"
            },
            {
              "internalType": "uint256",
              "name": "receivedDate",
              "type": "uint256"
            },
            {
              "internalType": "enum BloodDonation.BloodStatus",
              "name": "status",
              "type": "uint8"
            }
          ],
          "internalType": "struct BloodDonation.BloodPouch[]",
          "name": "",
          "type": "tuple[]"
        }
      ],
      "stateMutability": "view",
      "type": "function"
    },
    {
      "inputs": [
        {
          "internalType": "address",
          "name": "_receiver",
          "type": "address"
        }
      ],
      "name": "getReceivedPouches",
      "outputs": [
        {
          "components": [
            {
              "internalType": "uint256",
              "name": "pouchID",
              "type": "uint256"
            },
            {
              "internalType": "enum BloodDonation.BloodGroup",
              "name": "bloodGroup",
              "type": "uint8"
            },
            {
              "internalType": "address",
              "name": "donorID",
              "type": "address"
            },
            {
              "internalType": "address",
              "name": "organizationID",
              "type": "address"
            },
            {
              "internalType": "address",
              "name": "receiverID",
              "type": "address"
            },
            {
              "internalType": "string",
              "name": "details",
              "type": "string"
            },
            {
              "internalType": "uint256",
              "name": "publishDate",
              "type": "uint256"
            },
            {
              "internalType": "uint256",
              "name": "receivedDate",
              "type": "uint256"
            },
            {
              "internalType": "enum BloodDonation.BloodStatus",
              "name": "status",
              "type": "uint8"
            }
          ],
          "internalType": "struct BloodDonation.BloodPouch[]",
          "name": "",
          "type": "tuple[]"
        }
      ],
      "stateMutability": "view",
      "type": "function"
    },
    {
      "inputs": [
        {
          "internalType": "address",
          "name": "spender",
          "type": "address"
        },
        {
          "internalType": "uint256",
          "name": "addedValue",
          "type": "uint256"
        }
      ],
      "name": "increaseAllowance",
      "outputs": [
        {
          "internalType": "bool",
          "name": "",
          "type": "bool"
        }
      ],
      "stateMutability": "nonpayable",
      "type": "function"
    },
    {
      "inputs": [
        {
          "internalType": "address",
          "name": "_account",
          "type": "address"
        }
      ],
      "name": "isAdmin",
      "outputs": [
        {
          "internalType": "bool",
          "name": "",
          "type": "bool"
        }
      ],
      "stateMutability": "view",
      "type": "function"
    },
    {
      "inputs": [
        {
          "internalType": "address",
          "name": "_account",
          "type": "address"
        }
      ],
      "name": "isOrganization",
      "outputs": [
        {
          "internalType": "bool",
          "name": "",
          "type": "bool"
        }
      ],
      "stateMutability": "view",
      "type": "function"
    },
    {
      "inputs": [],
      "name": "name",
      "outputs": [
        {
          "internalType": "string",
          "name": "",
          "type": "string"
        }
      ],
      "stateMutability": "view",
      "type": "function"
    },
    {
      "inputs": [],
      "name": "symbol",
      "outputs": [
        {
          "internalType": "string",
          "name": "",
          "type": "string"
        }
      ],
      "stateMutability": "view",
      "type": "function"
    },
    {
      "inputs": [],
      "name": "totalSupply",
      "outputs": [
        {
          "internalType": "uint256",
          "name": "",
          "type": "uint256"
        }
      ],
      "stateMutability": "view",
      "type": "function"
    },
    {
      "inputs": [
        {
          "internalType": "address",
          "name": "to",
          "type": "address"
        },
        {
          "internalType": "uint256",
          "name": "amount",
          "type": "uint256"
        }
      ],
      "name": "transfer",
      "outputs": [
        {
          "internalType": "bool",
          "name": "",
          "type": "bool"
        }
      ],
      "stateMutability": "nonpayable",
      "type": "function"
    },
    {
      "inputs": [
        {
          "internalType": "address",
          "name": "from",
          "type": "address"
        },
        {
          "internalType": "address",
          "name": "to",
          "type": "address"
        },
        {
          "internalType": "uint256",
          "name": "amount",
          "type": "uint256"
        }
      ],
      "name": "transferFrom",
      "outputs": [
        {
          "internalType": "bool",
          "name": "",
          "type": "bool"
        }
      ],
      "stateMutability": "nonpayable",
      "type": "function"
    }
  ],
  "bytecode": "0x60806040523480156200001157600080fd5b506040518060400160405280600c81526020017f534f4349414c20544f4b454e00000000000000000000000000000000000000008152506040518060400160405280600681526020017f534f4349414c000000000000000000000000000000000000000000000000000081525081600390816200008f9190620003bd565b508060049081620000a19190620003bd565b50505033600960006101000a81548173ffffffffffffffffffffffffffffffffffffffff021916908373ffffffffffffffffffffffffffffffffffffffff1602179055506001600a60003373ffffffffffffffffffffffffffffffffffffffff1673ffffffffffffffffffffffffffffffffffffffff16815260200190815260200160002060006101000a81548160ff021916908315150217905550620004a4565b600081519050919050565b7f4e487b7100000000000000000000000000000000000000000000000000000000600052604160045260246000fd5b7f4e487b7100000000000000000000000000000000000000000000000000000000600052602260045260246000fd5b60006002820490506001821680620001c557607f821691505b602082108103620001db57620001da6200017d565b5b50919050565b60008190508160005260206000209050919050565b60006020601f8301049050919050565b600082821b905092915050565b600060088302620002457fffffffffffffffffffffffffffffffffffffffffffffffffffffffffffffffff8262000206565b62000251868362000206565b95508019841693508086168417925050509392505050565b6000819050919050565b6000819050919050565b60006200029e62000298620002928462000269565b62000273565b62000269565b9050919050565b6000819050919050565b620002ba836200027d565b620002d2620002c982620002a5565b84845462000213565b825550505050565b600090565b620002e9620002da565b620002f6818484620002af565b505050565b5b818110156200031e5762000312600082620002df565b600181019050620002fc565b5050565b601f8211156200036d576200033781620001e1565b6200034284620001f6565b8101602085101562000352578190505b6200036a6200036185620001f6565b830182620002fb565b50505b505050565b600082821c905092915050565b6000620003926000198460080262000372565b1980831691505092915050565b6000620003ad83836200037f565b9150826002028217905092915050565b620003c88262000143565b67ffffffffffffffff811115620003e457620003e36200014e565b5b620003f08254620001ac565b620003fd82828562000322565b600060209050601f83116001811462000435576000841562000420578287015190505b6200042c85826200039f565b8655506200049c565b601f1984166200044586620001e1565b60005b828110156200046f5784890151825560018201915060208501945060208101905062000448565b868310156200048f57848901516200048b601f8916826200037f565b8355505b6001600288020188555050505b505050505050565b61593380620004b46000396000f3fe6080604052600436106101665760003560e01c80635598f8cc116100d1578063a457c2d71161008a578063d68287df11610064578063d68287df146105b7578063dd62ed3e146105e0578063e6ea7dcc1461061d578063e75d3a951461065b57610166565b8063a457c2d714610500578063a9059cbb1461053d578063b1ce8eab1461057a57610166565b80635598f8cc146103de5780635cc3224e146104265780636e42afbe1461045157806370a082311461046d57806382bea0ca146104aa57806395d89b41146104d557610166565b8063313ce56711610123578063313ce567146102b557806336dd8696146102e0578063395093511461031d57806339c3fb751461035a57806342a4fda8146103975780634b89869f146103b357610166565b806306fdde031461016b578063095ea7b31461019657806318160ddd146101d357806323b872dd146101fe57806324d7806c1461023b57806325f3548a14610278575b600080fd5b34801561017757600080fd5b50610180610698565b60405161018d9190613f55565b60405180910390f35b3480156101a257600080fd5b506101bd60048036038101906101b8919061401f565b61072a565b6040516101ca919061407a565b60405180910390f35b3480156101df57600080fd5b506101e861074d565b6040516101f591906140a4565b60405180910390f35b34801561020a57600080fd5b50610225600480360381019061022091906140bf565b610757565b604051610232919061407a565b60405180910390f35b34801561024757600080fd5b50610262600480360381019061025d9190614112565b610786565b60405161026f919061407a565b60405180910390f35b34801561028457600080fd5b5061029f600480360381019061029a9190614112565b6107e0565b6040516102ac91906143ed565b60405180910390f35b3480156102c157600080fd5b506102ca610bf6565b6040516102d7919061442b565b60405180910390f35b3480156102ec57600080fd5b5061030760048036038101906103029190614112565b610bff565b60405161031491906143ed565b60405180910390f35b34801561032957600080fd5b50610344600480360381019061033f919061401f565b610ffd565b604051610351919061407a565b60405180910390f35b34801561036657600080fd5b50610381600480360381019061037c919061457b565b611034565b60405161038e91906140a4565b60405180910390f35b6103b160048036038101906103ac919061468d565b611316565b005b3480156103bf57600080fd5b506103c8611526565b6040516103d591906143ed565b60405180910390f35b3480156103ea57600080fd5b506104056004803603810190610400919061468d565b6118ee565b60405161041d9c9b9a99989796959493929190614827565b60405180910390f35b34801561043257600080fd5b5061043b611de6565b6040516104489190614bd2565b60405180910390f35b61046b6004803603810190610466919061468d565b612332565b005b34801561047957600080fd5b50610494600480360381019061048f9190614112565b612590565b6040516104a191906140a4565b60405180910390f35b3480156104b657600080fd5b506104bf6125d8565b6040516104cc9190614bd2565b60405180910390f35b3480156104e157600080fd5b506104ea612bda565b6040516104f79190613f55565b60405180910390f35b34801561050c57600080fd5b506105276004803603810190610522919061401f565b612c6c565b604051610534919061407a565b60405180910390f35b34801561054957600080fd5b50610564600480360381019061055f919061401f565b612ce3565b604051610571919061407a565b60405180910390f35b34801561058657600080fd5b506105a1600480360381019061059c9190614112565b612d06565b6040516105ae919061407a565b60405180910390f35b3480156105c357600080fd5b506105de60048036038101906105d99190614112565b612d5c565b005b3480156105ec57600080fd5b5061060760048036038101906106029190614bf4565b612e47565b60405161061491906140a4565b60405180910390f35b34801561062957600080fd5b50610644600480360381019061063f919061468d565b612ece565b604051610652929190614c34565b60405180910390f35b34801561066757600080fd5b50610682600480360381019061067d9190614c90565b613365565b60405161068f91906140a4565b60405180910390f35b6060600380546106a790614d2e565b80601f01602080910402602001604051908101604052809291908181526020018280546106d390614d2e565b80156107205780601f106106f557610100808354040283529160200191610720565b820191906000526020600020905b81548152906001019060200180831161070357829003601f168201915b5050505050905090565b600080610735613675565b905061074281858561367d565b600191505092915050565b6000600254905090565b600080610762613675565b905061076f858285613846565b61077a8585856138d2565b60019150509392505050565b6000600960009054906101000a900473ffffffffffffffffffffffffffffffffffffffff1673ffffffffffffffffffffffffffffffffffffffff168273ffffffffffffffffffffffffffffffffffffffff16149050919050565b6060600060085467ffffffffffffffff811115610800576107ff614450565b5b60405190808252806020026020018201604052801561083957816020015b610826613ca8565b81526020019060019003908161081e5790505b5090506000805b600854811015610b3a578473ffffffffffffffffffffffffffffffffffffffff166006600083815260200190815260200160002060030160009054906101000a900473ffffffffffffffffffffffffffffffffffffffff1673ffffffffffffffffffffffffffffffffffffffff1603610b27576006600082815260200190815260200160002060405180610120016040529081600082015481526020016001820160009054906101000a900460ff1660078111156109015761090061417a565b5b60078111156109135761091261417a565b5b81526020016001820160019054906101000a900473ffffffffffffffffffffffffffffffffffffffff1673ffffffffffffffffffffffffffffffffffffffff1673ffffffffffffffffffffffffffffffffffffffff1681526020016002820160009054906101000a900473ffffffffffffffffffffffffffffffffffffffff1673ffffffffffffffffffffffffffffffffffffffff1673ffffffffffffffffffffffffffffffffffffffff1681526020016003820160009054906101000a900473ffffffffffffffffffffffffffffffffffffffff1673ffffffffffffffffffffffffffffffffffffffff1673ffffffffffffffffffffffffffffffffffffffff168152602001600482018054610a2990614d2e565b80601f0160208091040260200160405190810160405280929190818152602001828054610a5590614d2e565b8015610aa25780601f10610a7757610100808354040283529160200191610aa2565b820191906000526020600020905b815481529060010190602001808311610a8557829003601f168201915b5050505050815260200160058201548152602001600682015481526020016007820160009054906101000a900460ff166002811115610ae457610ae361417a565b5b6002811115610af657610af561417a565b5b81525050838381518110610b0d57610b0c614d5f565b5b60200260200101819052508180610b2390614dbd565b9250505b8080610b3290614dbd565b915050610840565b5060008167ffffffffffffffff811115610b5757610b56614450565b5b604051908082528060200260200182016040528015610b9057816020015b610b7d613ca8565b815260200190600190039081610b755790505b50905060005b82811015610bea57838181518110610bb157610bb0614d5f565b5b6020026020010151828281518110610bcc57610bcb614d5f565b5b60200260200101819052508080610be290614dbd565b915050610b96565b50809350505050919050565b60006012905090565b60606000805b600854811015610c9a578373ffffffffffffffffffffffffffffffffffffffff166006600083815260200190815260200160002060010160019054906101000a900473ffffffffffffffffffffffffffffffffffffffff1673ffffffffffffffffffffffffffffffffffffffff1603610c87578180610c8390614dbd565b9250505b8080610c9290614dbd565b915050610c05565b5060008167ffffffffffffffff811115610cb757610cb6614450565b5b604051908082528060200260200182016040528015610cf057816020015b610cdd613ca8565b815260200190600190039081610cd55790505b5090506000805b600854811015610ff1578573ffffffffffffffffffffffffffffffffffffffff166006600083815260200190815260200160002060010160019054906101000a900473ffffffffffffffffffffffffffffffffffffffff1673ffffffffffffffffffffffffffffffffffffffff1603610fde576006600082815260200190815260200160002060405180610120016040529081600082015481526020016001820160009054906101000a900460ff166007811115610db857610db761417a565b5b6007811115610dca57610dc961417a565b5b81526020016001820160019054906101000a900473ffffffffffffffffffffffffffffffffffffffff1673ffffffffffffffffffffffffffffffffffffffff1673ffffffffffffffffffffffffffffffffffffffff1681526020016002820160009054906101000a900473ffffffffffffffffffffffffffffffffffffffff1673ffffffffffffffffffffffffffffffffffffffff1673ffffffffffffffffffffffffffffffffffffffff1681526020016003820160009054906101000a900473ffffffffffffffffffffffffffffffffffffffff1673ffffffffffffffffffffffffffffffffffffffff1673ffffffffffffffffffffffffffffffffffffffff168152602001600482018054610ee090614d2e565b80601f0160208091040260200160405190810160405280929190818152602001828054610f0c90614d2e565b8015610f595780601f10610f2e57610100808354040283529160200191610f59565b820191906000526020600020905b815481529060010190602001808311610f3c57829003601f168201915b5050505050815260200160058201548152602001600682015481526020016007820160009054906101000a900460ff166002811115610f9b57610f9a61417a565b5b6002811115610fad57610fac61417a565b5b81525050838381518110610fc457610fc3614d5f565b5b60200260200101819052508180610fda90614dbd565b9250505b8080610fe990614dbd565b915050610cf7565b50819350505050919050565b600080611008613675565b905061102981858561101a8589612e47565b6110249190614e05565b61367d565b600191505092915050565b6000600a60003373ffffffffffffffffffffffffffffffffffffffff1673ffffffffffffffffffffffffffffffffffffffff16815260200190815260200160002060009054906101000a900460ff166110c2576040517f08c379a00000000000000000000000000000000000000000000000000000000081526004016110b990614e85565b60405180910390fd5b6000600754905060006040518061018001604052808381526020018b73ffffffffffffffffffffffffffffffffffffffff1681526020018a815260200189815260200188815260200187815260200186815260200160008152602001428152602001858152602001600067ffffffffffffffff81111561114557611144614450565b5b6040519080825280602002602001820160405280156111735781602001602082028036833780820191505090505b508152602001600067ffffffffffffffff81111561119457611193614450565b5b6040519080825280602002602001820160405280156111c25781602001602082028036833780820191505090505b50815250905080600560008481526020019081526020016000206000820151816000015560208201518160010160006101000a81548173ffffffffffffffffffffffffffffffffffffffff021916908373ffffffffffffffffffffffffffffffffffffffff16021790555060408201518160020190816112429190615051565b5060608201518160030190816112589190615051565b50608082015181600401908161126e9190615051565b5060a08201518160050190816112849190615051565b5060c0820151816006015560e082015181600701556101008201518160080155610120820151816009015561014082015181600a0190805190602001906112cc929190613d5a565b5061016082015181600b0190805190602001906112ea929190613de4565b509050506007600081548092919061130190614dbd565b91905055508192505050979650505050505050565b600073ffffffffffffffffffffffffffffffffffffffff166005600083815260200190815260200160002060010160009054906101000a900473ffffffffffffffffffffffffffffffffffffffff1673ffffffffffffffffffffffffffffffffffffffff16036113bb576040517f08c379a00000000000000000000000000000000000000000000000000000000081526004016113b290615195565b60405180910390fd5b6005600082815260200190815260200160002060010160009054906101000a900473ffffffffffffffffffffffffffffffffffffffff1673ffffffffffffffffffffffffffffffffffffffff166108fc349081150290604051600060405180830381858888f19350505050158015611437573d6000803e3d6000fd5b506114423334613b48565b60056000828152602001908152602001600020600a01339080600181540180825580915050600190039060005260206000200160009091909190916101000a81548173ffffffffffffffffffffffffffffffffffffffff021916908373ffffffffffffffffffffffffffffffffffffffff16021790555060056000828152602001908152602001600020600b013490806001815401808255809150506001900390600052602060002001600090919091909150553460056000838152602001908152602001600020600701600082825461151c9190614e05565b9250508190555050565b60606000805b6008548110156115a7576000600281111561154a5761154961417a565b5b6006600083815260200190815260200160002060070160009054906101000a900460ff1660028111156115805761157f61417a565b5b0361159457818061159090614dbd565b9250505b808061159f90614dbd565b91505061152c565b5060008167ffffffffffffffff8111156115c4576115c3614450565b5b6040519080825280602002602001820160405280156115fd57816020015b6115ea613ca8565b8152602001906001900390816115e25790505b5090506000805b6008548110156118e457600060028111156116225761162161417a565b5b6006600083815260200190815260200160002060070160009054906101000a900460ff1660028111156116585761165761417a565b5b036118d1576006600082815260200190815260200160002060405180610120016040529081600082015481526020016001820160009054906101000a900460ff1660078111156116ab576116aa61417a565b5b60078111156116bd576116bc61417a565b5b81526020016001820160019054906101000a900473ffffffffffffffffffffffffffffffffffffffff1673ffffffffffffffffffffffffffffffffffffffff1673ffffffffffffffffffffffffffffffffffffffff1681526020016002820160009054906101000a900473ffffffffffffffffffffffffffffffffffffffff1673ffffffffffffffffffffffffffffffffffffffff1673ffffffffffffffffffffffffffffffffffffffff1681526020016003820160009054906101000a900473ffffffffffffffffffffffffffffffffffffffff1673ffffffffffffffffffffffffffffffffffffffff1673ffffffffffffffffffffffffffffffffffffffff1681526020016004820180546117d390614d2e565b80601f01602080910402602001604051908101604052809291908181526020018280546117ff90614d2e565b801561184c5780601f106118215761010080835404028352916020019161184c565b820191906000526020600020905b81548152906001019060200180831161182f57829003601f168201915b5050505050815260200160058201548152602001600682015481526020016007820160009054906101000a900460ff16600281111561188e5761188d61417a565b5b60028111156118a05761189f61417a565b5b815250508383815181106118b7576118b6614d5f565b5b602002602001018190525081806118cd90614dbd565b9250505b80806118dc90614dbd565b915050611604565b5081935050505090565b600080606080606080600080600080606080600073ffffffffffffffffffffffffffffffffffffffff16600560008f815260200190815260200160002060010160009054906101000a900473ffffffffffffffffffffffffffffffffffffffff1673ffffffffffffffffffffffffffffffffffffffff16036119a5576040517f08c379a000000000000000000000000000000000000000000000000000000000815260040161199c90615195565b60405180910390fd5b6000600560008f815260200190815260200160002060405180610180016040529081600082015481526020016001820160009054906101000a900473ffffffffffffffffffffffffffffffffffffffff1673ffffffffffffffffffffffffffffffffffffffff1673ffffffffffffffffffffffffffffffffffffffff168152602001600282018054611a3690614d2e565b80601f0160208091040260200160405190810160405280929190818152602001828054611a6290614d2e565b8015611aaf5780601f10611a8457610100808354040283529160200191611aaf565b820191906000526020600020905b815481529060010190602001808311611a9257829003601f168201915b50505050508152602001600382018054611ac890614d2e565b80601f0160208091040260200160405190810160405280929190818152602001828054611af490614d2e565b8015611b415780601f10611b1657610100808354040283529160200191611b41565b820191906000526020600020905b815481529060010190602001808311611b2457829003601f168201915b50505050508152602001600482018054611b5a90614d2e565b80601f0160208091040260200160405190810160405280929190818152602001828054611b8690614d2e565b8015611bd35780601f10611ba857610100808354040283529160200191611bd3565b820191906000526020600020905b815481529060010190602001808311611bb657829003601f168201915b50505050508152602001600582018054611bec90614d2e565b80601f0160208091040260200160405190810160405280929190818152602001828054611c1890614d2e565b8015611c655780601f10611c3a57610100808354040283529160200191611c65565b820191906000526020600020905b815481529060010190602001808311611c4857829003601f168201915b5050505050815260200160068201548152602001600782015481526020016008820154815260200160098201548152602001600a8201805480602002602001604051908101604052809291908181526020018280548015611d1b57602002820191906000526020600020905b8160009054906101000a900473ffffffffffffffffffffffffffffffffffffffff1673ffffffffffffffffffffffffffffffffffffffff1681526020019060010190808311611cd1575b50505050508152602001600b8201805480602002602001604051908101604052809291908181526020018280548015611d7357602002820191906000526020600020905b815481526020019060010190808311611d5f575b5050505050815250509050806000015181602001518260400151836060015184608001518560a001518660c001518760e001518861010001518961012001518a61014001518b61016001519c509c509c509c509c509c509c509c509c509c509c509c505091939597999b5091939597999b565b6060600060075467ffffffffffffffff811115611e0657611e05614450565b5b604051908082528060200260200182016040528015611e3f57816020015b611e2c613e31565b815260200190600190039081611e245790505b5090506000805b6007548110156122785760006005600083815260200190815260200160002060405180610180016040529081600082015481526020016001820160009054906101000a900473ffffffffffffffffffffffffffffffffffffffff1673ffffffffffffffffffffffffffffffffffffffff1673ffffffffffffffffffffffffffffffffffffffff168152602001600282018054611ee190614d2e565b80601f0160208091040260200160405190810160405280929190818152602001828054611f0d90614d2e565b8015611f5a5780601f10611f2f57610100808354040283529160200191611f5a565b820191906000526020600020905b815481529060010190602001808311611f3d57829003601f168201915b50505050508152602001600382018054611f7390614d2e565b80601f0160208091040260200160405190810160405280929190818152602001828054611f9f90614d2e565b8015611fec5780601f10611fc157610100808354040283529160200191611fec565b820191906000526020600020905b815481529060010190602001808311611fcf57829003601f168201915b5050505050815260200160048201805461200590614d2e565b80601f016020809104026020016040519081016040528092919081815260200182805461203190614d2e565b801561207e5780601f106120535761010080835404028352916020019161207e565b820191906000526020600020905b81548152906001019060200180831161206157829003601f168201915b5050505050815260200160058201805461209790614d2e565b80601f01602080910402602001604051908101604052809291908181526020018280546120c390614d2e565b80156121105780601f106120e557610100808354040283529160200191612110565b820191906000526020600020905b8154815290600101906020018083116120f357829003601f168201915b5050505050815260200160068201548152602001600782015481526020016008820154815260200160098201548152602001600a82018054806020026020016040519081016040528092919081815260200182805480156121c657602002820191906000526020600020905b8160009054906101000a900473ffffffffffffffffffffffffffffffffffffffff1673ffffffffffffffffffffffffffffffffffffffff168152602001906001019080831161217c575b50505050508152602001600b820180548060200260200160405190810160405280929190818152602001828054801561221e57602002820191906000526020600020905b81548152602001906001019080831161220a575b5050505050815250509050428161012001511115612264578084848151811061224a57612249614d5f565b5b6020026020010181905250828061226090614dbd565b9350505b50808061227090614dbd565b915050611e46565b5060008167ffffffffffffffff81111561229557612294614450565b5b6040519080825280602002602001820160405280156122ce57816020015b6122bb613e31565b8152602001906001900390816122b35790505b50905060005b82811015612328578381815181106122ef576122ee614d5f565b5b602002602001015182828151811061230a57612309614d5f565b5b6020026020010181905250808061232090614dbd565b9150506122d4565b5080935050505090565b600073ffffffffffffffffffffffffffffffffffffffff166006600083815260200190815260200160002060010160019054906101000a900473ffffffffffffffffffffffffffffffffffffffff1673ffffffffffffffffffffffffffffffffffffffff16036123d7576040517f08c379a00000000000000000000000000000000000000000000000000000000081526004016123ce90615201565b60405180910390fd5b600073ffffffffffffffffffffffffffffffffffffffff166006600083815260200190815260200160002060030160009054906101000a900473ffffffffffffffffffffffffffffffffffffffff1673ffffffffffffffffffffffffffffffffffffffff161461247c576040517f08c379a00000000000000000000000000000000000000000000000000000000081526004016124739061526d565b60405180910390fd5b6006600082815260200190815260200160002060030160009054906101000a900473ffffffffffffffffffffffffffffffffffffffff1673ffffffffffffffffffffffffffffffffffffffff166108fc349081150290604051600060405180830381858888f193505050501580156124f8573d6000803e3d6000fd5b50336006600083815260200190815260200160002060030160006101000a81548173ffffffffffffffffffffffffffffffffffffffff021916908373ffffffffffffffffffffffffffffffffffffffff16021790555060026006600083815260200190815260200160002060070160006101000a81548160ff021916908360028111156125885761258761417a565b5b021790555050565b60008060008373ffffffffffffffffffffffffffffffffffffffff1673ffffffffffffffffffffffffffffffffffffffff168152602001908152602001600020549050919050565b6060600a60003373ffffffffffffffffffffffffffffffffffffffff1673ffffffffffffffffffffffffffffffffffffffff16815260200190815260200160002060009054906101000a900460ff16612666576040517f08c379a000000000000000000000000000000000000000000000000000000000815260040161265d90614e85565b60405180910390fd5b600060075467ffffffffffffffff81111561268457612683614450565b5b6040519080825280602002602001820160405280156126bd57816020015b6126aa613e31565b8152602001906001900390816126a25790505b5090506000805b600754811015612b205760006005600083815260200190815260200160002060405180610180016040529081600082015481526020016001820160009054906101000a900473ffffffffffffffffffffffffffffffffffffffff1673ffffffffffffffffffffffffffffffffffffffff1673ffffffffffffffffffffffffffffffffffffffff16815260200160028201805461275f90614d2e565b80601f016020809104026020016040519081016040528092919081815260200182805461278b90614d2e565b80156127d85780601f106127ad576101008083540402835291602001916127d8565b820191906000526020600020905b8154815290600101906020018083116127bb57829003601f168201915b505050505081526020016003820180546127f190614d2e565b80601f016020809104026020016040519081016040528092919081815260200182805461281d90614d2e565b801561286a5780601f1061283f5761010080835404028352916020019161286a565b820191906000526020600020905b81548152906001019060200180831161284d57829003601f168201915b5050505050815260200160048201805461288390614d2e565b80601f01602080910402602001604051908101604052809291908181526020018280546128af90614d2e565b80156128fc5780601f106128d1576101008083540402835291602001916128fc565b820191906000526020600020905b8154815290600101906020018083116128df57829003601f168201915b5050505050815260200160058201805461291590614d2e565b80601f016020809104026020016040519081016040528092919081815260200182805461294190614d2e565b801561298e5780601f106129635761010080835404028352916020019161298e565b820191906000526020600020905b81548152906001019060200180831161297157829003601f168201915b5050505050815260200160068201548152602001600782015481526020016008820154815260200160098201548152602001600a8201805480602002602001604051908101604052809291908181526020018280548015612a4457602002820191906000526020600020905b8160009054906101000a900473ffffffffffffffffffffffffffffffffffffffff1673ffffffffffffffffffffffffffffffffffffffff16815260200190600101908083116129fa575b50505050508152602001600b8201805480602002602001604051908101604052809291908181526020018280548015612a9c57602002820191906000526020600020905b815481526020019060010190808311612a88575b50505050508152505090503373ffffffffffffffffffffffffffffffffffffffff16816020015173ffffffffffffffffffffffffffffffffffffffff1603612b0c5780848481518110612af257612af1614d5f565b5b60200260200101819052508280612b0890614dbd565b9350505b508080612b1890614dbd565b9150506126c4565b5060008167ffffffffffffffff811115612b3d57612b3c614450565b5b604051908082528060200260200182016040528015612b7657816020015b612b63613e31565b815260200190600190039081612b5b5790505b50905060005b82811015612bd057838181518110612b9757612b96614d5f565b5b6020026020010151828281518110612bb257612bb1614d5f565b5b60200260200101819052508080612bc890614dbd565b915050612b7c565b5080935050505090565b606060048054612be990614d2e565b80601f0160208091040260200160405190810160405280929190818152602001828054612c1590614d2e565b8015612c625780601f10612c3757610100808354040283529160200191612c62565b820191906000526020600020905b815481529060010190602001808311612c4557829003601f168201915b5050505050905090565b600080612c77613675565b90506000612c858286612e47565b905083811015612cca576040517f08c379a0000000000000000000000000000000000000000000000000000000008152600401612cc1906152ff565b60405180910390fd5b612cd7828686840361367d565b60019250505092915050565b600080612cee613675565b9050612cfb8185856138d2565b600191505092915050565b6000600a60008373ffffffffffffffffffffffffffffffffffffffff1673ffffffffffffffffffffffffffffffffffffffff16815260200190815260200160002060009054906101000a900460ff169050919050565b600960009054906101000a900473ffffffffffffffffffffffffffffffffffffffff1673ffffffffffffffffffffffffffffffffffffffff163373ffffffffffffffffffffffffffffffffffffffff1614612dec576040517f08c379a0000000000000000000000000000000000000000000000000000000008152600401612de39061536b565b60405180910390fd5b6001600a60008373ffffffffffffffffffffffffffffffffffffffff1673ffffffffffffffffffffffffffffffffffffffff16815260200190815260200160002060006101000a81548160ff02191690831515021790555050565b6000600160008473ffffffffffffffffffffffffffffffffffffffff1673ffffffffffffffffffffffffffffffffffffffff16815260200190815260200160002060008373ffffffffffffffffffffffffffffffffffffffff1673ffffffffffffffffffffffffffffffffffffffff16815260200190815260200160002054905092915050565b606080600073ffffffffffffffffffffffffffffffffffffffff166005600085815260200190815260200160002060010160009054906101000a900473ffffffffffffffffffffffffffffffffffffffff1673ffffffffffffffffffffffffffffffffffffffff1603612f76576040517f08c379a0000000000000000000000000000000000000000000000000000000008152600401612f6d90615195565b60405180910390fd5b60006005600085815260200190815260200160002060405180610180016040529081600082015481526020016001820160009054906101000a900473ffffffffffffffffffffffffffffffffffffffff1673ffffffffffffffffffffffffffffffffffffffff1673ffffffffffffffffffffffffffffffffffffffff16815260200160028201805461300790614d2e565b80601f016020809104026020016040519081016040528092919081815260200182805461303390614d2e565b80156130805780601f1061305557610100808354040283529160200191613080565b820191906000526020600020905b81548152906001019060200180831161306357829003601f168201915b5050505050815260200160038201805461309990614d2e565b80601f01602080910402602001604051908101604052809291908181526020018280546130c590614d2e565b80156131125780601f106130e757610100808354040283529160200191613112565b820191906000526020600020905b8154815290600101906020018083116130f557829003601f168201915b5050505050815260200160048201805461312b90614d2e565b80601f016020809104026020016040519081016040528092919081815260200182805461315790614d2e565b80156131a45780601f10613179576101008083540402835291602001916131a4565b820191906000526020600020905b81548152906001019060200180831161318757829003601f168201915b505050505081526020016005820180546131bd90614d2e565b80601f01602080910402602001604051908101604052809291908181526020018280546131e990614d2e565b80156132365780601f1061320b57610100808354040283529160200191613236565b820191906000526020600020905b81548152906001019060200180831161321957829003601f168201915b5050505050815260200160068201548152602001600782015481526020016008820154815260200160098201548152602001600a82018054806020026020016040519081016040528092919081815260200182805480156132ec57602002820191906000526020600020905b8160009054906101000a900473ffffffffffffffffffffffffffffffffffffffff1673ffffffffffffffffffffffffffffffffffffffff16815260200190600101908083116132a2575b50505050508152602001600b820180548060200260200160405190810160405280929190818152602001828054801561334457602002820191906000526020600020905b815481526020019060010190808311613330575b50505050508152505090508061014001518161016001519250925050915091565b6000600a60003373ffffffffffffffffffffffffffffffffffffffff1673ffffffffffffffffffffffffffffffffffffffff16815260200190815260200160002060009054906101000a900460ff166133f3576040517f08c379a00000000000000000000000000000000000000000000000000000000081526004016133ea90614e85565b60405180910390fd5b6000600854905060006040518061012001604052808381526020018660078111156134215761342061417a565b5b81526020018773ffffffffffffffffffffffffffffffffffffffff1681526020013373ffffffffffffffffffffffffffffffffffffffff168152602001600073ffffffffffffffffffffffffffffffffffffffff16815260200185815260200142815260200160008152602001600060028111156134a2576134a161417a565b5b815250905080600660008481526020019081526020016000206000820151816000015560208201518160010160006101000a81548160ff021916908360078111156134f0576134ef61417a565b5b021790555060408201518160010160016101000a81548173ffffffffffffffffffffffffffffffffffffffff021916908373ffffffffffffffffffffffffffffffffffffffff16021790555060608201518160020160006101000a81548173ffffffffffffffffffffffffffffffffffffffff021916908373ffffffffffffffffffffffffffffffffffffffff16021790555060808201518160030160006101000a81548173ffffffffffffffffffffffffffffffffffffffff021916908373ffffffffffffffffffffffffffffffffffffffff16021790555060a08201518160040190816135df9190615051565b5060c0820151816005015560e082015181600601556101008201518160070160006101000a81548160ff021916908360028111156136205761361f61417a565b5b02179055509050506008600081548092919061363b90614dbd565b91905055506136698661364c610bf6565b600a61365891906154be565b60646136649190615509565b613b48565b81925050509392505050565b600033905090565b600073ffffffffffffffffffffffffffffffffffffffff168373ffffffffffffffffffffffffffffffffffffffff16036136ec576040517f08c379a00000000000000000000000000000000000000000000000000000000081526004016136e3906155bd565b60405180910390fd5b600073ffffffffffffffffffffffffffffffffffffffff168273ffffffffffffffffffffffffffffffffffffffff160361375b576040517f08c379a00000000000000000000000000000000000000000000000000000000081526004016137529061564f565b60405180910390fd5b80600160008573ffffffffffffffffffffffffffffffffffffffff1673ffffffffffffffffffffffffffffffffffffffff16815260200190815260200160002060008473ffffffffffffffffffffffffffffffffffffffff1673ffffffffffffffffffffffffffffffffffffffff168152602001908152602001600020819055508173ffffffffffffffffffffffffffffffffffffffff168373ffffffffffffffffffffffffffffffffffffffff167f8c5be1e5ebec7d5bd14f71427d1e84f3dd0314c0f7b2291e5b200ac8c7c3b9258360405161383991906140a4565b60405180910390a3505050565b60006138528484612e47565b90507fffffffffffffffffffffffffffffffffffffffffffffffffffffffffffffffff81146138cc57818110156138be576040517f08c379a00000000000000000000000000000000000000000000000000000000081526004016138b5906156bb565b60405180910390fd5b6138cb848484840361367d565b5b50505050565b600073ffffffffffffffffffffffffffffffffffffffff168373ffffffffffffffffffffffffffffffffffffffff1603613941576040517f08c379a00000000000000000000000000000000000000000000000000000000081526004016139389061574d565b60405180910390fd5b600073ffffffffffffffffffffffffffffffffffffffff168273ffffffffffffffffffffffffffffffffffffffff16036139b0576040517f08c379a00000000000000000000000000000000000000000000000000000000081526004016139a7906157df565b60405180910390fd5b6139bb838383613c9e565b60008060008573ffffffffffffffffffffffffffffffffffffffff1673ffffffffffffffffffffffffffffffffffffffff16815260200190815260200160002054905081811015613a41576040517f08c379a0000000000000000000000000000000000000000000000000000000008152600401613a3890615871565b60405180910390fd5b8181036000808673ffffffffffffffffffffffffffffffffffffffff1673ffffffffffffffffffffffffffffffffffffffff16815260200190815260200160002081905550816000808573ffffffffffffffffffffffffffffffffffffffff1673ffffffffffffffffffffffffffffffffffffffff168152602001908152602001600020600082825401925050819055508273ffffffffffffffffffffffffffffffffffffffff168473ffffffffffffffffffffffffffffffffffffffff167fddf252ad1be2c89b69c2b068fc378daa952ba7f163c4a11628f55a4df523b3ef84604051613b2f91906140a4565b60405180910390a3613b42848484613ca3565b50505050565b600073ffffffffffffffffffffffffffffffffffffffff168273ffffffffffffffffffffffffffffffffffffffff1603613bb7576040517f08c379a0000000000000000000000000000000000000000000000000000000008152600401613bae906158dd565b60405180910390fd5b613bc360008383613c9e565b8060026000828254613bd59190614e05565b92505081905550806000808473ffffffffffffffffffffffffffffffffffffffff1673ffffffffffffffffffffffffffffffffffffffff168152602001908152602001600020600082825401925050819055508173ffffffffffffffffffffffffffffffffffffffff16600073ffffffffffffffffffffffffffffffffffffffff167fddf252ad1be2c89b69c2b068fc378daa952ba7f163c4a11628f55a4df523b3ef83604051613c8691906140a4565b60405180910390a3613c9a60008383613ca3565b5050565b505050565b505050565b6040518061012001604052806000815260200160006007811115613ccf57613cce61417a565b5b8152602001600073ffffffffffffffffffffffffffffffffffffffff168152602001600073ffffffffffffffffffffffffffffffffffffffff168152602001600073ffffffffffffffffffffffffffffffffffffffff16815260200160608152602001600081526020016000815260200160006002811115613d5457613d5361417a565b5b81525090565b828054828255906000526020600020908101928215613dd3579160200282015b82811115613dd25782518260006101000a81548173ffffffffffffffffffffffffffffffffffffffff021916908373ffffffffffffffffffffffffffffffffffffffff16021790555091602001919060010190613d7a565b5b509050613de09190613ea8565b5090565b828054828255906000526020600020908101928215613e20579160200282015b82811115613e1f578251825591602001919060010190613e04565b5b509050613e2d9190613ea8565b5090565b60405180610180016040528060008152602001600073ffffffffffffffffffffffffffffffffffffffff168152602001606081526020016060815260200160608152602001606081526020016000815260200160008152602001600081526020016000815260200160608152602001606081525090565b5b80821115613ec1576000816000905550600101613ea9565b5090565b600081519050919050565b600082825260208201905092915050565b60005b83811015613eff578082015181840152602081019050613ee4565b60008484015250505050565b6000601f19601f8301169050919050565b6000613f2782613ec5565b613f318185613ed0565b9350613f41818560208601613ee1565b613f4a81613f0b565b840191505092915050565b60006020820190508181036000830152613f6f8184613f1c565b905092915050565b6000604051905090565b600080fd5b600080fd5b600073ffffffffffffffffffffffffffffffffffffffff82169050919050565b6000613fb682613f8b565b9050919050565b613fc681613fab565b8114613fd157600080fd5b50565b600081359050613fe381613fbd565b92915050565b6000819050919050565b613ffc81613fe9565b811461400757600080fd5b50565b60008135905061401981613ff3565b92915050565b6000806040838503121561403657614035613f81565b5b600061404485828601613fd4565b92505060206140558582860161400a565b9150509250929050565b60008115159050919050565b6140748161405f565b82525050565b600060208201905061408f600083018461406b565b92915050565b61409e81613fe9565b82525050565b60006020820190506140b96000830184614095565b92915050565b6000806000606084860312156140d8576140d7613f81565b5b60006140e686828701613fd4565b93505060206140f786828701613fd4565b92505060406141088682870161400a565b9150509250925092565b60006020828403121561412857614127613f81565b5b600061413684828501613fd4565b91505092915050565b600081519050919050565b600082825260208201905092915050565b6000819050602082019050919050565b61417481613fe9565b82525050565b7f4e487b7100000000000000000000000000000000000000000000000000000000600052602160045260246000fd5b600881106141ba576141b961417a565b5b50565b60008190506141cb826141a9565b919050565b60006141db826141bd565b9050919050565b6141eb816141d0565b82525050565b6141fa81613fab565b82525050565b600082825260208201905092915050565b600061421c82613ec5565b6142268185614200565b9350614236818560208601613ee1565b61423f81613f0b565b840191505092915050565b6003811061425b5761425a61417a565b5b50565b600081905061426c8261424a565b919050565b600061427c8261425e565b9050919050565b61428c81614271565b82525050565b6000610120830160008301516142ab600086018261416b565b5060208301516142be60208601826141e2565b5060408301516142d160408601826141f1565b5060608301516142e460608601826141f1565b5060808301516142f760808601826141f1565b5060a083015184820360a086015261430f8282614211565b91505060c083015161432460c086018261416b565b5060e083015161433760e086018261416b565b5061010083015161434c610100860182614283565b508091505092915050565b60006143638383614292565b905092915050565b6000602082019050919050565b60006143838261413f565b61438d818561414a565b93508360208202850161439f8561415b565b8060005b858110156143db57848403895281516143bc8582614357565b94506143c78361436b565b925060208a019950506001810190506143a3565b50829750879550505050505092915050565b600060208201905081810360008301526144078184614378565b905092915050565b600060ff82169050919050565b6144258161440f565b82525050565b6000602082019050614440600083018461441c565b92915050565b600080fd5b600080fd5b7f4e487b7100000000000000000000000000000000000000000000000000000000600052604160045260246000fd5b61448882613f0b565b810181811067ffffffffffffffff821117156144a7576144a6614450565b5b80604052505050565b60006144ba613f77565b90506144c6828261447f565b919050565b600067ffffffffffffffff8211156144e6576144e5614450565b5b6144ef82613f0b565b9050602081019050919050565b82818337600083830152505050565b600061451e614519846144cb565b6144b0565b90508281526020810184848401111561453a5761453961444b565b5b6145458482856144fc565b509392505050565b600082601f83011261456257614561614446565b5b813561457284826020860161450b565b91505092915050565b600080600080600080600060e0888a03121561459a57614599613f81565b5b60006145a88a828b01613fd4565b975050602088013567ffffffffffffffff8111156145c9576145c8613f86565b5b6145d58a828b0161454d565b965050604088013567ffffffffffffffff8111156145f6576145f5613f86565b5b6146028a828b0161454d565b955050606088013567ffffffffffffffff81111561462357614622613f86565b5b61462f8a828b0161454d565b945050608088013567ffffffffffffffff8111156146505761464f613f86565b5b61465c8a828b0161454d565b93505060a061466d8a828b0161400a565b92505060c061467e8a828b0161400a565b91505092959891949750929550565b6000602082840312156146a3576146a2613f81565b5b60006146b18482850161400a565b91505092915050565b6146c381613fab565b82525050565b600081519050919050565b600082825260208201905092915050565b6000819050602082019050919050565b600061470183836141f1565b60208301905092915050565b6000602082019050919050565b6000614725826146c9565b61472f81856146d4565b935061473a836146e5565b8060005b8381101561476b57815161475288826146f5565b975061475d8361470d565b92505060018101905061473e565b5085935050505092915050565b600081519050919050565b600082825260208201905092915050565b6000819050602082019050919050565b60006147b0838361416b565b60208301905092915050565b6000602082019050919050565b60006147d482614778565b6147de8185614783565b93506147e983614794565b8060005b8381101561481a57815161480188826147a4565b975061480c836147bc565b9250506001810190506147ed565b5085935050505092915050565b60006101808201905061483d600083018f614095565b61484a602083018e6146ba565b818103604083015261485c818d613f1c565b90508181036060830152614870818c613f1c565b90508181036080830152614884818b613f1c565b905081810360a0830152614898818a613f1c565b90506148a760c0830189614095565b6148b460e0830188614095565b6148c2610100830187614095565b6148d0610120830186614095565b8181036101408301526148e3818561471a565b90508181036101608301526148f881846147c9565b90509d9c50505050505050505050505050565b600081519050919050565b600082825260208201905092915050565b6000819050602082019050919050565b600082825260208201905092915050565b6000614953826146c9565b61495d8185614937565b9350614968836146e5565b8060005b8381101561499957815161498088826146f5565b975061498b8361470d565b92505060018101905061496c565b5085935050505092915050565b600082825260208201905092915050565b60006149c282614778565b6149cc81856149a6565b93506149d783614794565b8060005b83811015614a085781516149ef88826147a4565b97506149fa836147bc565b9250506001810190506149db565b5085935050505092915050565b600061018083016000830151614a2e600086018261416b565b506020830151614a4160208601826141f1565b5060408301518482036040860152614a598282614211565b91505060608301518482036060860152614a738282614211565b91505060808301518482036080860152614a8d8282614211565b91505060a083015184820360a0860152614aa78282614211565b91505060c0830151614abc60c086018261416b565b5060e0830151614acf60e086018261416b565b50610100830151614ae461010086018261416b565b50610120830151614af961012086018261416b565b50610140830151848203610140860152614b138282614948565b915050610160830151848203610160860152614b2f82826149b7565b9150508091505092915050565b6000614b488383614a15565b905092915050565b6000602082019050919050565b6000614b688261490b565b614b728185614916565b935083602082028501614b8485614927565b8060005b85811015614bc05784840389528151614ba18582614b3c565b9450614bac83614b50565b925060208a01995050600181019050614b88565b50829750879550505050505092915050565b60006020820190508181036000830152614bec8184614b5d565b905092915050565b60008060408385031215614c0b57614c0a613f81565b5b6000614c1985828601613fd4565b9250506020614c2a85828601613fd4565b9150509250929050565b60006040820190508181036000830152614c4e818561471a565b90508181036020830152614c6281846147c9565b90509392505050565b60088110614c7857600080fd5b50565b600081359050614c8a81614c6b565b92915050565b600080600060608486031215614ca957614ca8613f81565b5b6000614cb786828701613fd4565b9350506020614cc886828701614c7b565b925050604084013567ffffffffffffffff811115614ce957614ce8613f86565b5b614cf58682870161454d565b9150509250925092565b7f4e487b7100000000000000000000000000000000000000000000000000000000600052602260045260246000fd5b60006002820490506001821680614d4657607f821691505b602082108103614d5957614d58614cff565b5b50919050565b7f4e487b7100000000000000000000000000000000000000000000000000000000600052603260045260246000fd5b7f4e487b7100000000000000000000000000000000000000000000000000000000600052601160045260246000fd5b6000614dc882613fe9565b91507fffffffffffffffffffffffffffffffffffffffffffffffffffffffffffffffff8203614dfa57614df9614d8e565b5b600182019050919050565b6000614e1082613fe9565b9150614e1b83613fe9565b9250828201905080821115614e3357614e32614d8e565b5b92915050565b7f43616c6c6572206973206e6f7420616e206f7267616e697a6174696f6e000000600082015250565b6000614e6f601d83613ed0565b9150614e7a82614e39565b602082019050919050565b60006020820190508181036000830152614e9e81614e62565b9050919050565b60008190508160005260206000209050919050565b60006020601f8301049050919050565b600082821b905092915050565b600060088302614f077fffffffffffffffffffffffffffffffffffffffffffffffffffffffffffffffff82614eca565b614f118683614eca565b95508019841693508086168417925050509392505050565b6000819050919050565b6000614f4e614f49614f4484613fe9565b614f29565b613fe9565b9050919050565b6000819050919050565b614f6883614f33565b614f7c614f7482614f55565b848454614ed7565b825550505050565b600090565b614f91614f84565b614f9c818484614f5f565b505050565b5b81811015614fc057614fb5600082614f89565b600181019050614fa2565b5050565b601f82111561500557614fd681614ea5565b614fdf84614eba565b81016020851015614fee578190505b615002614ffa85614eba565b830182614fa1565b50505b505050565b600082821c905092915050565b60006150286000198460080261500a565b1980831691505092915050565b60006150418383615017565b9150826002028217905092915050565b61505a82613ec5565b67ffffffffffffffff81111561507357615072614450565b5b61507d8254614d2e565b615088828285614fc4565b600060209050601f8311600181146150bb57600084156150a9578287015190505b6150b38582615035565b86555061511b565b601f1984166150c986614ea5565b60005b828110156150f1578489015182556001820191506020850194506020810190506150cc565b8683101561510e578489015161510a601f891682615017565b8355505b6001600288020188555050505b505050505050565b7f546865207370656369666965642063616d706169676e20494420646f6573206e60008201527f6f74206578697374000000000000000000000000000000000000000000000000602082015250565b600061517f602883613ed0565b915061518a82615123565b604082019050919050565b600060208201905081810360008301526151ae81615172565b9050919050565b7f506f75636820494420646f6573206e6f74206578697374000000000000000000600082015250565b60006151eb601783613ed0565b91506151f6826151b5565b602082019050919050565b6000602082019050818103600083015261521a816151de565b9050919050565b7f506f75636820616c726561647920686173206120726563656976657200000000600082015250565b6000615257601c83613ed0565b915061526282615221565b602082019050919050565b600060208201905081810360008301526152868161524a565b9050919050565b7f45524332303a2064656372656173656420616c6c6f77616e63652062656c6f7760008201527f207a65726f000000000000000000000000000000000000000000000000000000602082015250565b60006152e9602583613ed0565b91506152f48261528d565b604082019050919050565b60006020820190508181036000830152615318816152dc565b9050919050565b7f4f6e6c792061646d696e2063616e20616464206f7267616e697a6174696f6e00600082015250565b6000615355601f83613ed0565b91506153608261531f565b602082019050919050565b6000602082019050818103600083015261538481615348565b9050919050565b60008160011c9050919050565b6000808291508390505b60018511156153e2578086048111156153be576153bd614d8e565b5b60018516156153cd5780820291505b80810290506153db8561538b565b94506153a2565b94509492505050565b6000826153fb57600190506154b7565b8161540957600090506154b7565b816001811461541f576002811461542957615458565b60019150506154b7565b60ff84111561543b5761543a614d8e565b5b8360020a91508482111561545257615451614d8e565b5b506154b7565b5060208310610133831016604e8410600b841016171561548d5782820a90508381111561548857615487614d8e565b5b6154b7565b61549a8484846001615398565b925090508184048111156154b1576154b0614d8e565b5b81810290505b9392505050565b60006154c982613fe9565b91506154d48361440f565b92506155017fffffffffffffffffffffffffffffffffffffffffffffffffffffffffffffffff84846153eb565b905092915050565b600061551482613fe9565b915061551f83613fe9565b925082820261552d81613fe9565b9150828204841483151761554457615543614d8e565b5b5092915050565b7f45524332303a20617070726f76652066726f6d20746865207a65726f2061646460008201527f7265737300000000000000000000000000000000000000000000000000000000602082015250565b60006155a7602483613ed0565b91506155b28261554b565b604082019050919050565b600060208201905081810360008301526155d68161559a565b9050919050565b7f45524332303a20617070726f766520746f20746865207a65726f20616464726560008201527f7373000000000000000000000000000000000000000000000000000000000000602082015250565b6000615639602283613ed0565b9150615644826155dd565b604082019050919050565b600060208201905081810360008301526156688161562c565b9050919050565b7f45524332303a20696e73756666696369656e7420616c6c6f77616e6365000000600082015250565b60006156a5601d83613ed0565b91506156b08261566f565b602082019050919050565b600060208201905081810360008301526156d481615698565b9050919050565b7f45524332303a207472616e736665722066726f6d20746865207a65726f20616460008201527f6472657373000000000000000000000000000000000000000000000000000000602082015250565b6000615737602583613ed0565b9150615742826156db565b604082019050919050565b600060208201905081810360008301526157668161572a565b9050919050565b7f45524332303a207472616e7366657220746f20746865207a65726f206164647260008201527f6573730000000000000000000000000000000000000000000000000000000000602082015250565b60006157c9602383613ed0565b91506157d48261576d565b604082019050919050565b600060208201905081810360008301526157f8816157bc565b9050919050565b7f45524332303a207472616e7366657220616d6f756e742065786365656473206260008201527f616c616e63650000000000000000000000000000000000000000000000000000602082015250565b600061585b602683613ed0565b9150615866826157ff565b604082019050919050565b6000602082019050818103600083015261588a8161584e565b9050919050565b7f45524332303a206d696e7420746f20746865207a65726f206164647265737300600082015250565b60006158c7601f83613ed0565b91506158d282615891565b602082019050919050565b600060208201905081810360008301526158f6816158ba565b905091905056fea26469706673582212202ae67c07386a46e8d6c89a77c4ae6eaaaf5d1f74845de0f9b4cf07467565697864736f6c63430008120033",
  "linkReferences": {},
  "deployedLinkReferences": {}
}